{
	"contracts/Voting System/voting.sol": {
		"Ballot": {
			"abi": [
				{
					"inputs": [
						{
							"internalType": "address[]",
							"name": "_candidates",
							"type": "address[]"
						}
					],
					"stateMutability": "nonpayable",
					"type": "constructor"
				},
				{
					"inputs": [],
					"name": "getCandidates",
					"outputs": [
						{
							"internalType": "address[]",
							"name": "",
							"type": "address[]"
						}
					],
					"stateMutability": "view",
					"type": "function"
				},
				{
					"inputs": [],
					"name": "getChairman",
					"outputs": [
						{
							"internalType": "address",
							"name": "",
							"type": "address"
						}
					],
					"stateMutability": "view",
					"type": "function"
				},
				{
					"inputs": [],
					"name": "getVoters",
					"outputs": [
						{
							"internalType": "address[]",
							"name": "",
							"type": "address[]"
						}
					],
					"stateMutability": "view",
					"type": "function"
				},
				{
					"inputs": [
						{
							"internalType": "address",
							"name": "voter",
							"type": "address"
						}
					],
					"name": "giveRightToVote",
					"outputs": [],
					"stateMutability": "nonpayable",
					"type": "function"
				},
				{
					"inputs": [
						{
							"internalType": "address",
							"name": "_delegate",
							"type": "address"
						}
					],
					"name": "makeVotingProxy",
					"outputs": [],
					"stateMutability": "nonpayable",
					"type": "function"
				},
				{
					"inputs": [],
					"name": "results",
					"outputs": [
						{
							"internalType": "address[]",
							"name": "",
							"type": "address[]"
						},
						{
							"internalType": "uint256[]",
							"name": "",
							"type": "uint256[]"
						}
					],
					"stateMutability": "view",
					"type": "function"
				},
				{
					"inputs": [
						{
							"internalType": "uint256",
							"name": "durationInMinutes_",
							"type": "uint256"
						}
					],
					"name": "setBallotToOpen",
					"outputs": [],
					"stateMutability": "nonpayable",
					"type": "function"
				},
				{
					"inputs": [
						{
							"internalType": "address",
							"name": "candidate_",
							"type": "address"
						}
					],
					"name": "vote",
					"outputs": [],
					"stateMutability": "nonpayable",
					"type": "function"
				}
			],
			"devdoc": {
				"kind": "dev",
				"methods": {},
				"version": 1
			},
			"evm": {
				"assembly": "    /* \"contracts/Voting System/voting.sol\":61:5689  contract Ballot {... */\n  mstore(0x40, 0x80)\n    /* \"contracts/Voting System/voting.sol\":792:1177  constructor (address[] memory _candidates) {... */\n  callvalue\n  dup1\n  iszero\n  tag_1\n  jumpi\n  0x00\n  dup1\n  revert\ntag_1:\n  pop\n  mload(0x40)\n  sub(codesize, bytecodeSize)\n  dup1\n  bytecodeSize\n  dup4\n  codecopy\n  dup2\n  dup2\n  add\n  0x40\n  mstore\n  dup2\n  add\n  swap1\n  tag_2\n  swap2\n  swap1\n  tag_3\n  jump\t// in\ntag_2:\n    /* \"contracts/Voting System/voting.sol\":857:867  msg.sender */\n  caller\n    /* \"contracts/Voting System/voting.sol\":846:854  chairman */\n  0x00\n  dup1\n    /* \"contracts/Voting System/voting.sol\":846:867  chairman = msg.sender */\n  0x0100\n  exp\n  dup2\n  sload\n  dup2\n  0xffffffffffffffffffffffffffffffffffffffff\n  mul\n  not\n  and\n  swap1\n  dup4\n  0xffffffffffffffffffffffffffffffffffffffff\n  and\n  mul\n  or\n  swap1\n  sstore\n  pop\n    /* \"contracts/Voting System/voting.sol\":950:951  1 */\n  0x01\n    /* \"contracts/Voting System/voting.sol\":924:930  voters */\n  0x02\n    /* \"contracts/Voting System/voting.sol\":924:940  voters[chairman] */\n  0x00\n    /* \"contracts/Voting System/voting.sol\":931:939  chairman */\n  dup1\n  0x00\n  swap1\n  sload\n  swap1\n  0x0100\n  exp\n  swap1\n  div\n  0xffffffffffffffffffffffffffffffffffffffff\n  and\n    /* \"contracts/Voting System/voting.sol\":924:940  voters[chairman] */\n  0xffffffffffffffffffffffffffffffffffffffff\n  and\n  0xffffffffffffffffffffffffffffffffffffffff\n  and\n  dup2\n  mstore\n  0x20\n  add\n  swap1\n  dup2\n  mstore\n  0x20\n  add\n  0x00\n  keccak256\n    /* \"contracts/Voting System/voting.sol\":924:947  voters[chairman].weight */\n  0x00\n  add\n    /* \"contracts/Voting System/voting.sol\":924:951  voters[chairman].weight = 1 */\n  dup2\n  swap1\n  sstore\n  pop\n    /* \"contracts/Voting System/voting.sol\":996:997  1 */\n  0x01\n    /* \"contracts/Voting System/voting.sol\":962:968  voters */\n  0x02\n    /* \"contracts/Voting System/voting.sol\":962:978  voters[chairman] */\n  0x00\n    /* \"contracts/Voting System/voting.sol\":969:977  chairman */\n  dup1\n  0x00\n  swap1\n  sload\n  swap1\n  0x0100\n  exp\n  swap1\n  div\n  0xffffffffffffffffffffffffffffffffffffffff\n  and\n    /* \"contracts/Voting System/voting.sol\":962:978  voters[chairman] */\n  0xffffffffffffffffffffffffffffffffffffffff\n  and\n  0xffffffffffffffffffffffffffffffffffffffff\n  and\n  dup2\n  mstore\n  0x20\n  add\n  swap1\n  dup2\n  mstore\n  0x20\n  add\n  0x00\n  keccak256\n    /* \"contracts/Voting System/voting.sol\":962:993  voters[chairman].remainingVotes */\n  0x01\n  add\n    /* \"contracts/Voting System/voting.sol\":962:997  voters[chairman].remainingVotes = 1 */\n  dup2\n  swap1\n  sstore\n  pop\n    /* \"contracts/Voting System/voting.sol\":1008:1017  voterList */\n  0x04\n    /* \"contracts/Voting System/voting.sol\":1023:1033  msg.sender */\n  caller\n    /* \"contracts/Voting System/voting.sol\":1008:1034  voterList.push(msg.sender) */\n  swap1\n  dup1\n  0x01\n  dup2\n  sload\n  add\n  dup1\n  dup3\n  sstore\n  dup1\n  swap2\n  pop\n  pop\n  0x01\n  swap1\n  sub\n  swap1\n  0x00\n  mstore\n  keccak256(0x00, 0x20)\n  add\n  0x00\n  swap1\n  swap2\n  swap1\n  swap2\n  swap1\n  swap2\n  0x0100\n  exp\n  dup2\n  sload\n  dup2\n  0xffffffffffffffffffffffffffffffffffffffff\n  mul\n  not\n  and\n  swap1\n  dup4\n  0xffffffffffffffffffffffffffffffffffffffff\n  and\n  mul\n  or\n  swap1\n  sstore\n  pop\n    /* \"contracts/Voting System/voting.sol\":1052:1058  uint i */\n  0x00\n    /* \"contracts/Voting System/voting.sol\":1047:1166  for (uint i = 0; i < _candidates.length; i ++) {... */\ntag_7:\n    /* \"contracts/Voting System/voting.sol\":1068:1079  _candidates */\n  dup2\n    /* \"contracts/Voting System/voting.sol\":1068:1086  _candidates.length */\n  mload\n    /* \"contracts/Voting System/voting.sol\":1064:1065  i */\n  dup2\n    /* \"contracts/Voting System/voting.sol\":1064:1086  i < _candidates.length */\n  lt\n    /* \"contracts/Voting System/voting.sol\":1047:1166  for (uint i = 0; i < _candidates.length; i ++) {... */\n  iszero\n  tag_8\n  jumpi\n    /* \"contracts/Voting System/voting.sol\":1109:1119  candidates */\n  0x03\n    /* \"contracts/Voting System/voting.sol\":1125:1153  Candidate(_candidates[i], 0) */\n  mload(0x40)\n  dup1\n  0x40\n  add\n  0x40\n  mstore\n  dup1\n    /* \"contracts/Voting System/voting.sol\":1135:1146  _candidates */\n  dup5\n    /* \"contracts/Voting System/voting.sol\":1147:1148  i */\n  dup5\n    /* \"contracts/Voting System/voting.sol\":1135:1149  _candidates[i] */\n  dup2\n  mload\n  dup2\n  lt\n  tag_10\n  jumpi\n  tag_11\n  tag_12\n  jump\t// in\ntag_11:\ntag_10:\n  0x20\n  mul\n  0x20\n  add\n  add\n  mload\n    /* \"contracts/Voting System/voting.sol\":1125:1153  Candidate(_candidates[i], 0) */\n  0xffffffffffffffffffffffffffffffffffffffff\n  and\n  dup2\n  mstore\n  0x20\n  add\n    /* \"contracts/Voting System/voting.sol\":1151:1152  0 */\n  0x00\n    /* \"contracts/Voting System/voting.sol\":1125:1153  Candidate(_candidates[i], 0) */\n  dup2\n  mstore\n  pop\n    /* \"contracts/Voting System/voting.sol\":1109:1154  candidates.push(Candidate(_candidates[i], 0)) */\n  swap1\n  dup1\n  0x01\n  dup2\n  sload\n  add\n  dup1\n  dup3\n  sstore\n  dup1\n  swap2\n  pop\n  pop\n  0x01\n  swap1\n  sub\n  swap1\n  0x00\n  mstore\n  keccak256(0x00, 0x20)\n  swap1\n  0x02\n  mul\n  add\n  0x00\n  swap1\n  swap2\n  swap1\n  swap2\n  swap1\n  swap2\n  pop\n  0x00\n  dup3\n  add\n  mload\n  dup2\n  0x00\n  add\n  exp(0x0100, 0x00)\n  dup2\n  sload\n  dup2\n  0xffffffffffffffffffffffffffffffffffffffff\n  mul\n  not\n  and\n  swap1\n  dup4\n  0xffffffffffffffffffffffffffffffffffffffff\n  and\n  mul\n  or\n  swap1\n  sstore\n  pop\n  0x20\n  dup3\n  add\n  mload\n  dup2\n  0x01\n  add\n  sstore\n  pop\n  pop\n    /* \"contracts/Voting System/voting.sol\":1088:1092  i ++ */\n  dup1\n  dup1\n  0x01\n  add\n  swap2\n  pop\n  pop\n    /* \"contracts/Voting System/voting.sol\":1047:1166  for (uint i = 0; i < _candidates.length; i ++) {... */\n  jump(tag_7)\ntag_8:\n  pop\n    /* \"contracts/Voting System/voting.sol\":792:1177  constructor (address[] memory _candidates) {... */\n  pop\n    /* \"contracts/Voting System/voting.sol\":61:5689  contract Ballot {... */\n  jump(tag_14)\n    /* \"#utility.yul\":7:82   */\ntag_15:\n    /* \"#utility.yul\":40:46   */\n  0x00\n    /* \"#utility.yul\":73:75   */\n  0x40\n    /* \"#utility.yul\":67:76   */\n  mload\n    /* \"#utility.yul\":57:76   */\n  swap1\n  pop\n    /* \"#utility.yul\":7:82   */\n  swap1\n  jump\t// out\n    /* \"#utility.yul\":88:205   */\ntag_16:\n    /* \"#utility.yul\":197:198   */\n  0x00\n    /* \"#utility.yul\":194:195   */\n  dup1\n    /* \"#utility.yul\":187:199   */\n  revert\n    /* \"#utility.yul\":211:328   */\ntag_17:\n    /* \"#utility.yul\":320:321   */\n  0x00\n    /* \"#utility.yul\":317:318   */\n  dup1\n    /* \"#utility.yul\":310:322   */\n  revert\n    /* \"#utility.yul\":334:451   */\ntag_18:\n    /* \"#utility.yul\":443:444   */\n  0x00\n    /* \"#utility.yul\":440:441   */\n  dup1\n    /* \"#utility.yul\":433:445   */\n  revert\n    /* \"#utility.yul\":457:559   */\ntag_19:\n    /* \"#utility.yul\":498:504   */\n  0x00\n    /* \"#utility.yul\":549:551   */\n  0x1f\n    /* \"#utility.yul\":545:552   */\n  not\n    /* \"#utility.yul\":540:542   */\n  0x1f\n    /* \"#utility.yul\":533:538   */\n  dup4\n    /* \"#utility.yul\":529:543   */\n  add\n    /* \"#utility.yul\":525:553   */\n  and\n    /* \"#utility.yul\":515:553   */\n  swap1\n  pop\n    /* \"#utility.yul\":457:559   */\n  swap2\n  swap1\n  pop\n  jump\t// out\n    /* \"#utility.yul\":565:745   */\ntag_20:\n    /* \"#utility.yul\":613:690   */\n  0x4e487b7100000000000000000000000000000000000000000000000000000000\n    /* \"#utility.yul\":610:611   */\n  0x00\n    /* \"#utility.yul\":603:691   */\n  mstore\n    /* \"#utility.yul\":710:714   */\n  0x41\n    /* \"#utility.yul\":707:708   */\n  0x04\n    /* \"#utility.yul\":700:715   */\n  mstore\n    /* \"#utility.yul\":734:738   */\n  0x24\n    /* \"#utility.yul\":731:732   */\n  0x00\n    /* \"#utility.yul\":724:739   */\n  revert\n    /* \"#utility.yul\":751:1032   */\ntag_21:\n    /* \"#utility.yul\":834:861   */\n  tag_39\n    /* \"#utility.yul\":856:860   */\n  dup3\n    /* \"#utility.yul\":834:861   */\n  tag_19\n  jump\t// in\ntag_39:\n    /* \"#utility.yul\":826:832   */\n  dup2\n    /* \"#utility.yul\":822:862   */\n  add\n    /* \"#utility.yul\":964:970   */\n  dup2\n    /* \"#utility.yul\":952:962   */\n  dup2\n    /* \"#utility.yul\":949:971   */\n  lt\n    /* \"#utility.yul\":928:946   */\n  0xffffffffffffffff\n    /* \"#utility.yul\":916:926   */\n  dup3\n    /* \"#utility.yul\":913:947   */\n  gt\n    /* \"#utility.yul\":910:972   */\n  or\n    /* \"#utility.yul\":907:995   */\n  iszero\n  tag_40\n  jumpi\n    /* \"#utility.yul\":975:993   */\n  tag_41\n  tag_20\n  jump\t// in\ntag_41:\n    /* \"#utility.yul\":907:995   */\ntag_40:\n    /* \"#utility.yul\":1015:1025   */\n  dup1\n    /* \"#utility.yul\":1011:1013   */\n  0x40\n    /* \"#utility.yul\":1004:1026   */\n  mstore\n    /* \"#utility.yul\":794:1032   */\n  pop\n    /* \"#utility.yul\":751:1032   */\n  pop\n  pop\n  jump\t// out\n    /* \"#utility.yul\":1038:1167   */\ntag_22:\n    /* \"#utility.yul\":1072:1078   */\n  0x00\n    /* \"#utility.yul\":1099:1119   */\n  tag_43\n  tag_15\n  jump\t// in\ntag_43:\n    /* \"#utility.yul\":1089:1119   */\n  swap1\n  pop\n    /* \"#utility.yul\":1128:1161   */\n  tag_44\n    /* \"#utility.yul\":1156:1160   */\n  dup3\n    /* \"#utility.yul\":1148:1154   */\n  dup3\n    /* \"#utility.yul\":1128:1161   */\n  tag_21\n  jump\t// in\ntag_44:\n    /* \"#utility.yul\":1038:1167   */\n  swap2\n  swap1\n  pop\n  jump\t// out\n    /* \"#utility.yul\":1173:1484   */\ntag_23:\n    /* \"#utility.yul\":1250:1254   */\n  0x00\n    /* \"#utility.yul\":1340:1358   */\n  0xffffffffffffffff\n    /* \"#utility.yul\":1332:1338   */\n  dup3\n    /* \"#utility.yul\":1329:1359   */\n  gt\n    /* \"#utility.yul\":1326:1382   */\n  iszero\n  tag_46\n  jumpi\n    /* \"#utility.yul\":1362:1380   */\n  tag_47\n  tag_20\n  jump\t// in\ntag_47:\n    /* \"#utility.yul\":1326:1382   */\ntag_46:\n    /* \"#utility.yul\":1412:1416   */\n  0x20\n    /* \"#utility.yul\":1404:1410   */\n  dup3\n    /* \"#utility.yul\":1400:1417   */\n  mul\n    /* \"#utility.yul\":1392:1417   */\n  swap1\n  pop\n    /* \"#utility.yul\":1472:1476   */\n  0x20\n    /* \"#utility.yul\":1466:1470   */\n  dup2\n    /* \"#utility.yul\":1462:1477   */\n  add\n    /* \"#utility.yul\":1454:1477   */\n  swap1\n  pop\n    /* \"#utility.yul\":1173:1484   */\n  swap2\n  swap1\n  pop\n  jump\t// out\n    /* \"#utility.yul\":1490:1607   */\ntag_24:\n    /* \"#utility.yul\":1599:1600   */\n  0x00\n    /* \"#utility.yul\":1596:1597   */\n  dup1\n    /* \"#utility.yul\":1589:1601   */\n  revert\n    /* \"#utility.yul\":1613:1739   */\ntag_25:\n    /* \"#utility.yul\":1650:1657   */\n  0x00\n    /* \"#utility.yul\":1690:1732   */\n  0xffffffffffffffffffffffffffffffffffffffff\n    /* \"#utility.yul\":1683:1688   */\n  dup3\n    /* \"#utility.yul\":1679:1733   */\n  and\n    /* \"#utility.yul\":1668:1733   */\n  swap1\n  pop\n    /* \"#utility.yul\":1613:1739   */\n  swap2\n  swap1\n  pop\n  jump\t// out\n    /* \"#utility.yul\":1745:1841   */\ntag_26:\n    /* \"#utility.yul\":1782:1789   */\n  0x00\n    /* \"#utility.yul\":1811:1835   */\n  tag_51\n    /* \"#utility.yul\":1829:1834   */\n  dup3\n    /* \"#utility.yul\":1811:1835   */\n  tag_25\n  jump\t// in\ntag_51:\n    /* \"#utility.yul\":1800:1835   */\n  swap1\n  pop\n    /* \"#utility.yul\":1745:1841   */\n  swap2\n  swap1\n  pop\n  jump\t// out\n    /* \"#utility.yul\":1847:1969   */\ntag_27:\n    /* \"#utility.yul\":1920:1944   */\n  tag_53\n    /* \"#utility.yul\":1938:1943   */\n  dup2\n    /* \"#utility.yul\":1920:1944   */\n  tag_26\n  jump\t// in\ntag_53:\n    /* \"#utility.yul\":1913:1918   */\n  dup2\n    /* \"#utility.yul\":1910:1945   */\n  eq\n    /* \"#utility.yul\":1900:1963   */\n  tag_54\n  jumpi\n    /* \"#utility.yul\":1959:1960   */\n  0x00\n    /* \"#utility.yul\":1956:1957   */\n  dup1\n    /* \"#utility.yul\":1949:1961   */\n  revert\n    /* \"#utility.yul\":1900:1963   */\ntag_54:\n    /* \"#utility.yul\":1847:1969   */\n  pop\n  jump\t// out\n    /* \"#utility.yul\":1975:2118   */\ntag_28:\n    /* \"#utility.yul\":2032:2037   */\n  0x00\n    /* \"#utility.yul\":2063:2069   */\n  dup2\n    /* \"#utility.yul\":2057:2070   */\n  mload\n    /* \"#utility.yul\":2048:2070   */\n  swap1\n  pop\n    /* \"#utility.yul\":2079:2112   */\n  tag_56\n    /* \"#utility.yul\":2106:2111   */\n  dup2\n    /* \"#utility.yul\":2079:2112   */\n  tag_27\n  jump\t// in\ntag_56:\n    /* \"#utility.yul\":1975:2118   */\n  swap3\n  swap2\n  pop\n  pop\n  jump\t// out\n    /* \"#utility.yul\":2141:2873   */\ntag_29:\n    /* \"#utility.yul\":2248:2253   */\n  0x00\n    /* \"#utility.yul\":2273:2354   */\n  tag_58\n    /* \"#utility.yul\":2289:2353   */\n  tag_59\n    /* \"#utility.yul\":2346:2352   */\n  dup5\n    /* \"#utility.yul\":2289:2353   */\n  tag_23\n  jump\t// in\ntag_59:\n    /* \"#utility.yul\":2273:2354   */\n  tag_22\n  jump\t// in\ntag_58:\n    /* \"#utility.yul\":2264:2354   */\n  swap1\n  pop\n    /* \"#utility.yul\":2374:2379   */\n  dup1\n    /* \"#utility.yul\":2403:2409   */\n  dup4\n    /* \"#utility.yul\":2396:2401   */\n  dup3\n    /* \"#utility.yul\":2389:2410   */\n  mstore\n    /* \"#utility.yul\":2437:2441   */\n  0x20\n    /* \"#utility.yul\":2430:2435   */\n  dup3\n    /* \"#utility.yul\":2426:2442   */\n  add\n    /* \"#utility.yul\":2419:2442   */\n  swap1\n  pop\n    /* \"#utility.yul\":2490:2494   */\n  0x20\n    /* \"#utility.yul\":2482:2488   */\n  dup5\n    /* \"#utility.yul\":2478:2495   */\n  mul\n    /* \"#utility.yul\":2470:2476   */\n  dup4\n    /* \"#utility.yul\":2466:2496   */\n  add\n    /* \"#utility.yul\":2519:2522   */\n  dup6\n    /* \"#utility.yul\":2511:2517   */\n  dup2\n    /* \"#utility.yul\":2508:2523   */\n  gt\n    /* \"#utility.yul\":2505:2627   */\n  iszero\n  tag_60\n  jumpi\n    /* \"#utility.yul\":2538:2617   */\n  tag_61\n  tag_24\n  jump\t// in\ntag_61:\n    /* \"#utility.yul\":2505:2627   */\ntag_60:\n    /* \"#utility.yul\":2653:2659   */\n  dup4\n    /* \"#utility.yul\":2636:2867   */\ntag_62:\n    /* \"#utility.yul\":2670:2676   */\n  dup2\n    /* \"#utility.yul\":2665:2668   */\n  dup2\n    /* \"#utility.yul\":2662:2677   */\n  lt\n    /* \"#utility.yul\":2636:2867   */\n  iszero\n  tag_64\n  jumpi\n    /* \"#utility.yul\":2745:2748   */\n  dup1\n    /* \"#utility.yul\":2774:2822   */\n  tag_65\n    /* \"#utility.yul\":2818:2821   */\n  dup9\n    /* \"#utility.yul\":2806:2816   */\n  dup3\n    /* \"#utility.yul\":2774:2822   */\n  tag_28\n  jump\t// in\ntag_65:\n    /* \"#utility.yul\":2769:2772   */\n  dup5\n    /* \"#utility.yul\":2762:2823   */\n  mstore\n    /* \"#utility.yul\":2852:2856   */\n  0x20\n    /* \"#utility.yul\":2847:2850   */\n  dup5\n    /* \"#utility.yul\":2843:2857   */\n  add\n    /* \"#utility.yul\":2836:2857   */\n  swap4\n  pop\n    /* \"#utility.yul\":2712:2867   */\n  pop\n    /* \"#utility.yul\":2696:2700   */\n  0x20\n    /* \"#utility.yul\":2691:2694   */\n  dup2\n    /* \"#utility.yul\":2687:2701   */\n  add\n    /* \"#utility.yul\":2680:2701   */\n  swap1\n  pop\n    /* \"#utility.yul\":2636:2867   */\n  jump(tag_62)\ntag_64:\n    /* \"#utility.yul\":2640:2661   */\n  pop\n    /* \"#utility.yul\":2254:2873   */\n  pop\n  pop\n    /* \"#utility.yul\":2141:2873   */\n  swap4\n  swap3\n  pop\n  pop\n  pop\n  jump\t// out\n    /* \"#utility.yul\":2896:3281   */\ntag_30:\n    /* \"#utility.yul\":2978:2983   */\n  0x00\n    /* \"#utility.yul\":3027:3030   */\n  dup3\n    /* \"#utility.yul\":3020:3024   */\n  0x1f\n    /* \"#utility.yul\":3012:3018   */\n  dup4\n    /* \"#utility.yul\":3008:3025   */\n  add\n    /* \"#utility.yul\":3004:3031   */\n  slt\n    /* \"#utility.yul\":2994:3116   */\n  tag_67\n  jumpi\n    /* \"#utility.yul\":3035:3114   */\n  tag_68\n  tag_18\n  jump\t// in\ntag_68:\n    /* \"#utility.yul\":2994:3116   */\ntag_67:\n    /* \"#utility.yul\":3145:3151   */\n  dup2\n    /* \"#utility.yul\":3139:3152   */\n  mload\n    /* \"#utility.yul\":3170:3275   */\n  tag_69\n    /* \"#utility.yul\":3271:3274   */\n  dup5\n    /* \"#utility.yul\":3263:3269   */\n  dup3\n    /* \"#utility.yul\":3256:3260   */\n  0x20\n    /* \"#utility.yul\":3248:3254   */\n  dup7\n    /* \"#utility.yul\":3244:3261   */\n  add\n    /* \"#utility.yul\":3170:3275   */\n  tag_29\n  jump\t// in\ntag_69:\n    /* \"#utility.yul\":3161:3275   */\n  swap2\n  pop\n    /* \"#utility.yul\":2984:3281   */\n  pop\n    /* \"#utility.yul\":2896:3281   */\n  swap3\n  swap2\n  pop\n  pop\n  jump\t// out\n    /* \"#utility.yul\":3287:3841   */\ntag_3:\n    /* \"#utility.yul\":3382:3388   */\n  0x00\n    /* \"#utility.yul\":3431:3433   */\n  0x20\n    /* \"#utility.yul\":3419:3428   */\n  dup3\n    /* \"#utility.yul\":3410:3417   */\n  dup5\n    /* \"#utility.yul\":3406:3429   */\n  sub\n    /* \"#utility.yul\":3402:3434   */\n  slt\n    /* \"#utility.yul\":3399:3518   */\n  iszero\n  tag_71\n  jumpi\n    /* \"#utility.yul\":3437:3516   */\n  tag_72\n  tag_16\n  jump\t// in\ntag_72:\n    /* \"#utility.yul\":3399:3518   */\ntag_71:\n    /* \"#utility.yul\":3578:3579   */\n  0x00\n    /* \"#utility.yul\":3567:3576   */\n  dup3\n    /* \"#utility.yul\":3563:3580   */\n  add\n    /* \"#utility.yul\":3557:3581   */\n  mload\n    /* \"#utility.yul\":3608:3626   */\n  0xffffffffffffffff\n    /* \"#utility.yul\":3600:3606   */\n  dup2\n    /* \"#utility.yul\":3597:3627   */\n  gt\n    /* \"#utility.yul\":3594:3711   */\n  iszero\n  tag_73\n  jumpi\n    /* \"#utility.yul\":3630:3709   */\n  tag_74\n  tag_17\n  jump\t// in\ntag_74:\n    /* \"#utility.yul\":3594:3711   */\ntag_73:\n    /* \"#utility.yul\":3735:3824   */\n  tag_75\n    /* \"#utility.yul\":3816:3823   */\n  dup5\n    /* \"#utility.yul\":3807:3813   */\n  dup3\n    /* \"#utility.yul\":3796:3805   */\n  dup6\n    /* \"#utility.yul\":3792:3814   */\n  add\n    /* \"#utility.yul\":3735:3824   */\n  tag_30\n  jump\t// in\ntag_75:\n    /* \"#utility.yul\":3725:3824   */\n  swap2\n  pop\n    /* \"#utility.yul\":3528:3834   */\n  pop\n    /* \"#utility.yul\":3287:3841   */\n  swap3\n  swap2\n  pop\n  pop\n  jump\t// out\n    /* \"#utility.yul\":3847:4027   */\ntag_12:\n    /* \"#utility.yul\":3895:3972   */\n  0x4e487b7100000000000000000000000000000000000000000000000000000000\n    /* \"#utility.yul\":3892:3893   */\n  0x00\n    /* \"#utility.yul\":3885:3973   */\n  mstore\n    /* \"#utility.yul\":3992:3996   */\n  0x32\n    /* \"#utility.yul\":3989:3990   */\n  0x04\n    /* \"#utility.yul\":3982:3997   */\n  mstore\n    /* \"#utility.yul\":4016:4020   */\n  0x24\n    /* \"#utility.yul\":4013:4014   */\n  0x00\n    /* \"#utility.yul\":4006:4021   */\n  revert\n    /* \"contracts/Voting System/voting.sol\":61:5689  contract Ballot {... */\ntag_14:\n  dataSize(sub_0)\n  dup1\n  dataOffset(sub_0)\n  0x00\n  codecopy\n  0x00\n  return\nstop\n\nsub_0: assembly {\n        /* \"contracts/Voting System/voting.sol\":61:5689  contract Ballot {... */\n      mstore(0x40, 0x80)\n      callvalue\n      dup1\n      iszero\n      tag_1\n      jumpi\n      0x00\n      dup1\n      revert\n    tag_1:\n      pop\n      jumpi(tag_2, lt(calldatasize, 0x04))\n      shr(0xe0, calldataload(0x00))\n      dup1\n      0x9e7b8d61\n      gt\n      tag_11\n      jumpi\n      dup1\n      0x9e7b8d61\n      eq\n      tag_7\n      jumpi\n      dup1\n      0xa48bdb7c\n      eq\n      tag_8\n      jumpi\n      dup1\n      0xcdd72253\n      eq\n      tag_9\n      jumpi\n      dup1\n      0xd6451557\n      eq\n      tag_10\n      jumpi\n      jump(tag_2)\n    tag_11:\n      dup1\n      0x06a49fce\n      eq\n      tag_3\n      jumpi\n      dup1\n      0x5bd4e10d\n      eq\n      tag_4\n      jumpi\n      dup1\n      0x6dd7d8ea\n      eq\n      tag_5\n      jumpi\n      dup1\n      0x9794d8f3\n      eq\n      tag_6\n      jumpi\n    tag_2:\n      0x00\n      dup1\n      revert\n        /* \"contracts/Voting System/voting.sol\":2109:2404  function getCandidates() external view returns(address[] memory) {... */\n    tag_3:\n      tag_12\n      tag_13\n      jump\t// in\n    tag_12:\n      mload(0x40)\n      tag_14\n      swap2\n      swap1\n      tag_15\n      jump\t// in\n    tag_14:\n      mload(0x40)\n      dup1\n      swap2\n      sub\n      swap1\n      return\n        /* \"contracts/Voting System/voting.sol\":3137:3978  function makeVotingProxy(address _delegate) external isBallotClosed {... */\n    tag_4:\n      tag_16\n      0x04\n      dup1\n      calldatasize\n      sub\n      dup2\n      add\n      swap1\n      tag_17\n      swap2\n      swap1\n      tag_18\n      jump\t// in\n    tag_17:\n      tag_19\n      jump\t// in\n    tag_16:\n      stop\n        /* \"contracts/Voting System/voting.sol\":4341:5013  function vote(address candidate_) external isBallotOpen {... */\n    tag_5:\n      tag_20\n      0x04\n      dup1\n      calldatasize\n      sub\n      dup2\n      add\n      swap1\n      tag_21\n      swap2\n      swap1\n      tag_18\n      jump\t// in\n    tag_21:\n      tag_22\n      jump\t// in\n    tag_20:\n      stop\n        /* \"contracts/Voting System/voting.sol\":1590:1912  function setBallotToOpen(uint durationInMinutes_) external {... */\n    tag_6:\n      tag_23\n      0x04\n      dup1\n      calldatasize\n      sub\n      dup2\n      add\n      swap1\n      tag_24\n      swap2\n      swap1\n      tag_25\n      jump\t// in\n    tag_24:\n      tag_26\n      jump\t// in\n    tag_23:\n      stop\n        /* \"contracts/Voting System/voting.sol\":2704:3074  function giveRightToVote(address voter) external isBallotClosed {... */\n    tag_7:\n      tag_27\n      0x04\n      dup1\n      calldatasize\n      sub\n      dup2\n      add\n      swap1\n      tag_28\n      swap2\n      swap1\n      tag_18\n      jump\t// in\n    tag_28:\n      tag_29\n      jump\t// in\n    tag_27:\n      stop\n        /* \"contracts/Voting System/voting.sol\":5054:5684  function results() external view isBallotClosed returns(address[] memory, uint[] memory) {... */\n    tag_8:\n      tag_30\n      tag_31\n      jump\t// in\n    tag_30:\n      mload(0x40)\n      tag_32\n      swap3\n      swap2\n      swap1\n      tag_33\n      jump\t// in\n    tag_32:\n      mload(0x40)\n      dup1\n      swap2\n      sub\n      swap1\n      return\n        /* \"contracts/Voting System/voting.sol\":2456:2639  function getVoters() external view returns(address[] memory) {... */\n    tag_9:\n      tag_34\n      tag_35\n      jump\t// in\n    tag_34:\n      mload(0x40)\n      tag_36\n      swap2\n      swap1\n      tag_15\n      jump\t// in\n    tag_36:\n      mload(0x40)\n      dup1\n      swap2\n      sub\n      swap1\n      return\n        /* \"contracts/Voting System/voting.sol\":1965:2053  function getChairman() external view returns(address) {... */\n    tag_10:\n      tag_37\n      tag_38\n      jump\t// in\n    tag_37:\n      mload(0x40)\n      tag_39\n      swap2\n      swap1\n      tag_40\n      jump\t// in\n    tag_39:\n      mload(0x40)\n      dup1\n      swap2\n      sub\n      swap1\n      return\n        /* \"contracts/Voting System/voting.sol\":2109:2404  function getCandidates() external view returns(address[] memory) {... */\n    tag_13:\n        /* \"contracts/Voting System/voting.sol\":2156:2172  address[] memory */\n      0x60\n        /* \"contracts/Voting System/voting.sol\":2185:2212  address[] memory addresses_ */\n      0x00\n        /* \"contracts/Voting System/voting.sol\":2229:2239  candidates */\n      0x03\n        /* \"contracts/Voting System/voting.sol\":2229:2246  candidates.length */\n      dup1\n      sload\n      swap1\n      pop\n        /* \"contracts/Voting System/voting.sol\":2215:2247  new address[](candidates.length) */\n      0xffffffffffffffff\n      dup2\n      gt\n      iszero\n      tag_42\n      jumpi\n      tag_43\n      tag_44\n      jump\t// in\n    tag_43:\n    tag_42:\n      mload(0x40)\n      swap1\n      dup1\n      dup3\n      mstore\n      dup1\n      0x20\n      mul\n      0x20\n      add\n      dup3\n      add\n      0x40\n      mstore\n      dup1\n      iszero\n      tag_45\n      jumpi\n      dup2\n      0x20\n      add\n      0x20\n      dup3\n      mul\n      dup1\n      calldatasize\n      dup4\n      calldatacopy\n      dup1\n      dup3\n      add\n      swap2\n      pop\n      pop\n      swap1\n      pop\n    tag_45:\n      pop\n        /* \"contracts/Voting System/voting.sol\":2185:2247  address[] memory addresses_ = new address[](candidates.length) */\n      swap1\n      pop\n        /* \"contracts/Voting System/voting.sol\":2263:2269  uint i */\n      0x00\n        /* \"contracts/Voting System/voting.sol\":2258:2369  for (uint i = 0; i < candidates.length; i ++) {... */\n    tag_46:\n        /* \"contracts/Voting System/voting.sol\":2279:2289  candidates */\n      0x03\n        /* \"contracts/Voting System/voting.sol\":2279:2296  candidates.length */\n      dup1\n      sload\n      swap1\n      pop\n        /* \"contracts/Voting System/voting.sol\":2275:2276  i */\n      dup2\n        /* \"contracts/Voting System/voting.sol\":2275:2296  i < candidates.length */\n      lt\n        /* \"contracts/Voting System/voting.sol\":2258:2369  for (uint i = 0; i < candidates.length; i ++) {... */\n      iszero\n      tag_47\n      jumpi\n        /* \"contracts/Voting System/voting.sol\":2335:2345  candidates */\n      0x03\n        /* \"contracts/Voting System/voting.sol\":2346:2347  i */\n      dup2\n        /* \"contracts/Voting System/voting.sol\":2335:2348  candidates[i] */\n      dup2\n      sload\n      dup2\n      lt\n      tag_49\n      jumpi\n      tag_50\n      tag_51\n      jump\t// in\n    tag_50:\n    tag_49:\n      swap1\n      0x00\n      mstore\n      keccak256(0x00, 0x20)\n      swap1\n      0x02\n      mul\n      add\n        /* \"contracts/Voting System/voting.sol\":2335:2357  candidates[i].address_ */\n      0x00\n      add\n      0x00\n      swap1\n      sload\n      swap1\n      0x0100\n      exp\n      swap1\n      div\n      0xffffffffffffffffffffffffffffffffffffffff\n      and\n        /* \"contracts/Voting System/voting.sol\":2319:2329  addresses_ */\n      dup3\n        /* \"contracts/Voting System/voting.sol\":2330:2331  i */\n      dup3\n        /* \"contracts/Voting System/voting.sol\":2319:2332  addresses_[i] */\n      dup2\n      mload\n      dup2\n      lt\n      tag_53\n      jumpi\n      tag_54\n      tag_51\n      jump\t// in\n    tag_54:\n    tag_53:\n      0x20\n      mul\n      0x20\n      add\n      add\n        /* \"contracts/Voting System/voting.sol\":2319:2357  addresses_[i] = candidates[i].address_ */\n      swap1\n      0xffffffffffffffffffffffffffffffffffffffff\n      and\n      swap1\n      dup2\n      0xffffffffffffffffffffffffffffffffffffffff\n      and\n      dup2\n      mstore\n      pop\n      pop\n        /* \"contracts/Voting System/voting.sol\":2298:2302  i ++ */\n      dup1\n      dup1\n      0x01\n      add\n      swap2\n      pop\n      pop\n        /* \"contracts/Voting System/voting.sol\":2258:2369  for (uint i = 0; i < candidates.length; i ++) {... */\n      jump(tag_46)\n    tag_47:\n      pop\n        /* \"contracts/Voting System/voting.sol\":2386:2396  addresses_ */\n      dup1\n        /* \"contracts/Voting System/voting.sol\":2379:2396  return addresses_ */\n      swap2\n      pop\n      pop\n        /* \"contracts/Voting System/voting.sol\":2109:2404  function getCandidates() external view returns(address[] memory) {... */\n      swap1\n      jump\t// out\n        /* \"contracts/Voting System/voting.sol\":3137:3978  function makeVotingProxy(address _delegate) external isBallotClosed {... */\n    tag_19:\n        /* \"contracts/Voting System/voting.sol\":1487:1494  endTime */\n      sload(0x01)\n        /* \"contracts/Voting System/voting.sol\":1469:1484  block.timestamp */\n      timestamp\n        /* \"contracts/Voting System/voting.sol\":1469:1494  block.timestamp > endTime */\n      gt\n        /* \"contracts/Voting System/voting.sol\":1461:1525  require(block.timestamp > endTime, \"The voting session is open\") */\n      tag_56\n      jumpi\n      mload(0x40)\n      0x08c379a000000000000000000000000000000000000000000000000000000000\n      dup2\n      mstore\n      0x04\n      add\n      tag_57\n      swap1\n      tag_58\n      jump\t// in\n    tag_57:\n      mload(0x40)\n      dup1\n      swap2\n      sub\n      swap1\n      revert\n    tag_56:\n        /* \"contracts/Voting System/voting.sol\":3253:3254  0 */\n      0x00\n        /* \"contracts/Voting System/voting.sol\":3224:3230  voters */\n      0x02\n        /* \"contracts/Voting System/voting.sol\":3224:3242  voters[msg.sender] */\n      0x00\n        /* \"contracts/Voting System/voting.sol\":3231:3241  msg.sender */\n      caller\n        /* \"contracts/Voting System/voting.sol\":3224:3242  voters[msg.sender] */\n      0xffffffffffffffffffffffffffffffffffffffff\n      and\n      0xffffffffffffffffffffffffffffffffffffffff\n      and\n      dup2\n      mstore\n      0x20\n      add\n      swap1\n      dup2\n      mstore\n      0x20\n      add\n      0x00\n      keccak256\n        /* \"contracts/Voting System/voting.sol\":3224:3249  voters[msg.sender].weight */\n      0x00\n      add\n      sload\n        /* \"contracts/Voting System/voting.sol\":3224:3254  voters[msg.sender].weight != 0 */\n      sub\n        /* \"contracts/Voting System/voting.sol\":3216:3292  require(voters[msg.sender].weight != 0, \"You do not have the right to vote\") */\n      tag_60\n      jumpi\n      mload(0x40)\n      0x08c379a000000000000000000000000000000000000000000000000000000000\n      dup2\n      mstore\n      0x04\n      add\n      tag_61\n      swap1\n      tag_62\n      jump\t// in\n    tag_61:\n      mload(0x40)\n      dup1\n      swap2\n      sub\n      swap1\n      revert\n    tag_60:\n        /* \"contracts/Voting System/voting.sol\":3348:3349  0 */\n      0x00\n        /* \"contracts/Voting System/voting.sol\":3311:3317  voters */\n      0x02\n        /* \"contracts/Voting System/voting.sol\":3311:3329  voters[msg.sender] */\n      0x00\n        /* \"contracts/Voting System/voting.sol\":3318:3328  msg.sender */\n      caller\n        /* \"contracts/Voting System/voting.sol\":3311:3329  voters[msg.sender] */\n      0xffffffffffffffffffffffffffffffffffffffff\n      and\n      0xffffffffffffffffffffffffffffffffffffffff\n      and\n      dup2\n      mstore\n      0x20\n      add\n      swap1\n      dup2\n      mstore\n      0x20\n      add\n      0x00\n      keccak256\n        /* \"contracts/Voting System/voting.sol\":3311:3344  voters[msg.sender].remainingVotes */\n      0x01\n      add\n      sload\n        /* \"contracts/Voting System/voting.sol\":3311:3349  voters[msg.sender].remainingVotes != 0 */\n      sub\n        /* \"contracts/Voting System/voting.sol\":3303:3376  require(voters[msg.sender].remainingVotes != 0, \"You have already voted\") */\n      tag_63\n      jumpi\n      mload(0x40)\n      0x08c379a000000000000000000000000000000000000000000000000000000000\n      dup2\n      mstore\n      0x04\n      add\n      tag_64\n      swap1\n      tag_65\n      jump\t// in\n    tag_64:\n      mload(0x40)\n      dup1\n      swap2\n      sub\n      swap1\n      revert\n    tag_63:\n        /* \"contracts/Voting System/voting.sol\":3424:3425  2 */\n      0x02\n        /* \"contracts/Voting System/voting.sol\":3395:3401  voters */\n      dup1\n        /* \"contracts/Voting System/voting.sol\":3395:3413  voters[msg.sender] */\n      0x00\n        /* \"contracts/Voting System/voting.sol\":3402:3412  msg.sender */\n      caller\n        /* \"contracts/Voting System/voting.sol\":3395:3413  voters[msg.sender] */\n      0xffffffffffffffffffffffffffffffffffffffff\n      and\n      0xffffffffffffffffffffffffffffffffffffffff\n      and\n      dup2\n      mstore\n      0x20\n      add\n      swap1\n      dup2\n      mstore\n      0x20\n      add\n      0x00\n      keccak256\n        /* \"contracts/Voting System/voting.sol\":3395:3420  voters[msg.sender].weight */\n      0x00\n      add\n      sload\n        /* \"contracts/Voting System/voting.sol\":3395:3425  voters[msg.sender].weight != 2 */\n      sub\n        /* \"contracts/Voting System/voting.sol\":3387:3460  require(voters[msg.sender].weight != 2, \"You are a delegate for someone\") */\n      tag_66\n      jumpi\n      mload(0x40)\n      0x08c379a000000000000000000000000000000000000000000000000000000000\n      dup2\n      mstore\n      0x04\n      add\n      tag_67\n      swap1\n      tag_68\n      jump\t// in\n    tag_67:\n      mload(0x40)\n      dup1\n      swap2\n      sub\n      swap1\n      revert\n    tag_66:\n        /* \"contracts/Voting System/voting.sol\":3493:3502  _delegate */\n      dup1\n        /* \"contracts/Voting System/voting.sol\":3479:3502  msg.sender != _delegate */\n      0xffffffffffffffffffffffffffffffffffffffff\n      and\n        /* \"contracts/Voting System/voting.sol\":3479:3489  msg.sender */\n      caller\n        /* \"contracts/Voting System/voting.sol\":3479:3502  msg.sender != _delegate */\n      0xffffffffffffffffffffffffffffffffffffffff\n      and\n      sub\n        /* \"contracts/Voting System/voting.sol\":3471:3549  require(msg.sender != _delegate, \"You cannot make a voting proxy to yourself\") */\n      tag_69\n      jumpi\n      mload(0x40)\n      0x08c379a000000000000000000000000000000000000000000000000000000000\n      dup2\n      mstore\n      0x04\n      add\n      tag_70\n      swap1\n      tag_71\n      jump\t// in\n    tag_70:\n      mload(0x40)\n      dup1\n      swap2\n      sub\n      swap1\n      revert\n    tag_69:\n        /* \"contracts/Voting System/voting.sol\":3596:3597  0 */\n      0x00\n        /* \"contracts/Voting System/voting.sol\":3568:3574  voters */\n      0x02\n        /* \"contracts/Voting System/voting.sol\":3568:3585  voters[_delegate] */\n      0x00\n        /* \"contracts/Voting System/voting.sol\":3575:3584  _delegate */\n      dup4\n        /* \"contracts/Voting System/voting.sol\":3568:3585  voters[_delegate] */\n      0xffffffffffffffffffffffffffffffffffffffff\n      and\n      0xffffffffffffffffffffffffffffffffffffffff\n      and\n      dup2\n      mstore\n      0x20\n      add\n      swap1\n      dup2\n      mstore\n      0x20\n      add\n      0x00\n      keccak256\n        /* \"contracts/Voting System/voting.sol\":3568:3592  voters[_delegate].weight */\n      0x00\n      add\n      sload\n        /* \"contracts/Voting System/voting.sol\":3568:3597  voters[_delegate].weight != 0 */\n      sub\n        /* \"contracts/Voting System/voting.sol\":3560:3645  require(voters[_delegate].weight != 0, \"This person does not have the right to vote\") */\n      tag_72\n      jumpi\n      mload(0x40)\n      0x08c379a000000000000000000000000000000000000000000000000000000000\n      dup2\n      mstore\n      0x04\n      add\n      tag_73\n      swap1\n      tag_74\n      jump\t// in\n    tag_73:\n      mload(0x40)\n      dup1\n      swap2\n      sub\n      swap1\n      revert\n    tag_72:\n        /* \"contracts/Voting System/voting.sol\":3692:3693  2 */\n      0x02\n        /* \"contracts/Voting System/voting.sol\":3664:3670  voters */\n      dup1\n        /* \"contracts/Voting System/voting.sol\":3664:3681  voters[_delegate] */\n      0x00\n        /* \"contracts/Voting System/voting.sol\":3671:3680  _delegate */\n      dup4\n        /* \"contracts/Voting System/voting.sol\":3664:3681  voters[_delegate] */\n      0xffffffffffffffffffffffffffffffffffffffff\n      and\n      0xffffffffffffffffffffffffffffffffffffffff\n      and\n      dup2\n      mstore\n      0x20\n      add\n      swap1\n      dup2\n      mstore\n      0x20\n      add\n      0x00\n      keccak256\n        /* \"contracts/Voting System/voting.sol\":3664:3688  voters[_delegate].weight */\n      0x00\n      add\n      sload\n        /* \"contracts/Voting System/voting.sol\":3664:3693  voters[_delegate].weight != 2 */\n      sub\n        /* \"contracts/Voting System/voting.sol\":3656:3743  require(voters[_delegate].weight != 2, \"This person is already a delegate for someone\") */\n      tag_75\n      jumpi\n      mload(0x40)\n      0x08c379a000000000000000000000000000000000000000000000000000000000\n      dup2\n      mstore\n      0x04\n      add\n      tag_76\n      swap1\n      tag_77\n      jump\t// in\n    tag_76:\n      mload(0x40)\n      dup1\n      swap2\n      sub\n      swap1\n      revert\n    tag_75:\n        /* \"contracts/Voting System/voting.sol\":3783:3784  2 */\n      0x02\n        /* \"contracts/Voting System/voting.sol\":3756:3762  voters */\n      dup1\n        /* \"contracts/Voting System/voting.sol\":3756:3773  voters[_delegate] */\n      0x00\n        /* \"contracts/Voting System/voting.sol\":3763:3772  _delegate */\n      dup4\n        /* \"contracts/Voting System/voting.sol\":3756:3773  voters[_delegate] */\n      0xffffffffffffffffffffffffffffffffffffffff\n      and\n      0xffffffffffffffffffffffffffffffffffffffff\n      and\n      dup2\n      mstore\n      0x20\n      add\n      swap1\n      dup2\n      mstore\n      0x20\n      add\n      0x00\n      keccak256\n        /* \"contracts/Voting System/voting.sol\":3756:3780  voters[_delegate].weight */\n      0x00\n      add\n        /* \"contracts/Voting System/voting.sol\":3756:3784  voters[_delegate].weight = 2 */\n      dup2\n      swap1\n      sstore\n      pop\n        /* \"contracts/Voting System/voting.sol\":3831:3832  1 */\n      0x01\n        /* \"contracts/Voting System/voting.sol\":3795:3801  voters */\n      0x02\n        /* \"contracts/Voting System/voting.sol\":3795:3812  voters[_delegate] */\n      0x00\n        /* \"contracts/Voting System/voting.sol\":3802:3811  _delegate */\n      dup4\n        /* \"contracts/Voting System/voting.sol\":3795:3812  voters[_delegate] */\n      0xffffffffffffffffffffffffffffffffffffffff\n      and\n      0xffffffffffffffffffffffffffffffffffffffff\n      and\n      dup2\n      mstore\n      0x20\n      add\n      swap1\n      dup2\n      mstore\n      0x20\n      add\n      0x00\n      keccak256\n        /* \"contracts/Voting System/voting.sol\":3795:3827  voters[_delegate].remainingVotes */\n      0x01\n      add\n      0x00\n        /* \"contracts/Voting System/voting.sol\":3795:3832  voters[_delegate].remainingVotes += 1 */\n      dup3\n      dup3\n      sload\n      tag_78\n      swap2\n      swap1\n      tag_79\n      jump\t// in\n    tag_78:\n      swap3\n      pop\n      pop\n      dup2\n      swap1\n      sstore\n      pop\n        /* \"contracts/Voting System/voting.sol\":3871:3872  0 */\n      0x00\n        /* \"contracts/Voting System/voting.sol\":3843:3849  voters */\n      0x02\n        /* \"contracts/Voting System/voting.sol\":3843:3861  voters[msg.sender] */\n      0x00\n        /* \"contracts/Voting System/voting.sol\":3850:3860  msg.sender */\n      caller\n        /* \"contracts/Voting System/voting.sol\":3843:3861  voters[msg.sender] */\n      0xffffffffffffffffffffffffffffffffffffffff\n      and\n      0xffffffffffffffffffffffffffffffffffffffff\n      and\n      dup2\n      mstore\n      0x20\n      add\n      swap1\n      dup2\n      mstore\n      0x20\n      add\n      0x00\n      keccak256\n        /* \"contracts/Voting System/voting.sol\":3843:3868  voters[msg.sender].weight */\n      0x00\n      add\n        /* \"contracts/Voting System/voting.sol\":3843:3872  voters[msg.sender].weight = 0 */\n      dup2\n      swap1\n      sstore\n      pop\n        /* \"contracts/Voting System/voting.sol\":3919:3920  0 */\n      0x00\n        /* \"contracts/Voting System/voting.sol\":3883:3889  voters */\n      0x02\n        /* \"contracts/Voting System/voting.sol\":3883:3901  voters[msg.sender] */\n      0x00\n        /* \"contracts/Voting System/voting.sol\":3890:3900  msg.sender */\n      caller\n        /* \"contracts/Voting System/voting.sol\":3883:3901  voters[msg.sender] */\n      0xffffffffffffffffffffffffffffffffffffffff\n      and\n      0xffffffffffffffffffffffffffffffffffffffff\n      and\n      dup2\n      mstore\n      0x20\n      add\n      swap1\n      dup2\n      mstore\n      0x20\n      add\n      0x00\n      keccak256\n        /* \"contracts/Voting System/voting.sol\":3883:3916  voters[msg.sender].remainingVotes */\n      0x01\n      add\n        /* \"contracts/Voting System/voting.sol\":3883:3920  voters[msg.sender].remainingVotes = 0 */\n      dup2\n      swap1\n      sstore\n      pop\n        /* \"contracts/Voting System/voting.sol\":3961:3970  _delegate */\n      dup1\n        /* \"contracts/Voting System/voting.sol\":3931:3937  voters */\n      0x02\n        /* \"contracts/Voting System/voting.sol\":3931:3949  voters[msg.sender] */\n      0x00\n        /* \"contracts/Voting System/voting.sol\":3938:3948  msg.sender */\n      caller\n        /* \"contracts/Voting System/voting.sol\":3931:3949  voters[msg.sender] */\n      0xffffffffffffffffffffffffffffffffffffffff\n      and\n      0xffffffffffffffffffffffffffffffffffffffff\n      and\n      dup2\n      mstore\n      0x20\n      add\n      swap1\n      dup2\n      mstore\n      0x20\n      add\n      0x00\n      keccak256\n        /* \"contracts/Voting System/voting.sol\":3931:3958  voters[msg.sender].delegate */\n      0x02\n      add\n      0x00\n        /* \"contracts/Voting System/voting.sol\":3931:3970  voters[msg.sender].delegate = _delegate */\n      0x0100\n      exp\n      dup2\n      sload\n      dup2\n      0xffffffffffffffffffffffffffffffffffffffff\n      mul\n      not\n      and\n      swap1\n      dup4\n      0xffffffffffffffffffffffffffffffffffffffff\n      and\n      mul\n      or\n      swap1\n      sstore\n      pop\n        /* \"contracts/Voting System/voting.sol\":3137:3978  function makeVotingProxy(address _delegate) external isBallotClosed {... */\n      pop\n      jump\t// out\n        /* \"contracts/Voting System/voting.sol\":4341:5013  function vote(address candidate_) external isBallotOpen {... */\n    tag_22:\n        /* \"contracts/Voting System/voting.sol\":1301:1308  endTime */\n      sload(0x01)\n        /* \"contracts/Voting System/voting.sol\":1282:1297  block.timestamp */\n      timestamp\n        /* \"contracts/Voting System/voting.sol\":1282:1308  block.timestamp <= endTime */\n      gt\n      iszero\n        /* \"contracts/Voting System/voting.sol\":1274:1341  require(block.timestamp <= endTime, \"The voting session is closed\") */\n      tag_81\n      jumpi\n      mload(0x40)\n      0x08c379a000000000000000000000000000000000000000000000000000000000\n      dup2\n      mstore\n      0x04\n      add\n      tag_82\n      swap1\n      tag_83\n      jump\t// in\n    tag_82:\n      mload(0x40)\n      dup1\n      swap2\n      sub\n      swap1\n      revert\n    tag_81:\n        /* \"contracts/Voting System/voting.sol\":4455:4456  0 */\n      0x00\n        /* \"contracts/Voting System/voting.sol\":4416:4457  voters[msg.sender].delegate == address(0) */\n      0xffffffffffffffffffffffffffffffffffffffff\n      and\n        /* \"contracts/Voting System/voting.sol\":4416:4422  voters */\n      0x02\n        /* \"contracts/Voting System/voting.sol\":4416:4434  voters[msg.sender] */\n      0x00\n        /* \"contracts/Voting System/voting.sol\":4423:4433  msg.sender */\n      caller\n        /* \"contracts/Voting System/voting.sol\":4416:4434  voters[msg.sender] */\n      0xffffffffffffffffffffffffffffffffffffffff\n      and\n      0xffffffffffffffffffffffffffffffffffffffff\n      and\n      dup2\n      mstore\n      0x20\n      add\n      swap1\n      dup2\n      mstore\n      0x20\n      add\n      0x00\n      keccak256\n        /* \"contracts/Voting System/voting.sol\":4416:4443  voters[msg.sender].delegate */\n      0x02\n      add\n      0x00\n      swap1\n      sload\n      swap1\n      0x0100\n      exp\n      swap1\n      div\n      0xffffffffffffffffffffffffffffffffffffffff\n      and\n        /* \"contracts/Voting System/voting.sol\":4416:4457  voters[msg.sender].delegate == address(0) */\n      0xffffffffffffffffffffffffffffffffffffffff\n      and\n      eq\n        /* \"contracts/Voting System/voting.sol\":4408:4497  require(voters[msg.sender].delegate == address(0), \"You have given your vote to someone\") */\n      tag_85\n      jumpi\n      mload(0x40)\n      0x08c379a000000000000000000000000000000000000000000000000000000000\n      dup2\n      mstore\n      0x04\n      add\n      tag_86\n      swap1\n      tag_87\n      jump\t// in\n    tag_86:\n      mload(0x40)\n      dup1\n      swap2\n      sub\n      swap1\n      revert\n    tag_85:\n        /* \"contracts/Voting System/voting.sol\":4545:4546  0 */\n      0x00\n        /* \"contracts/Voting System/voting.sol\":4516:4522  voters */\n      0x02\n        /* \"contracts/Voting System/voting.sol\":4516:4534  voters[msg.sender] */\n      0x00\n        /* \"contracts/Voting System/voting.sol\":4523:4533  msg.sender */\n      caller\n        /* \"contracts/Voting System/voting.sol\":4516:4534  voters[msg.sender] */\n      0xffffffffffffffffffffffffffffffffffffffff\n      and\n      0xffffffffffffffffffffffffffffffffffffffff\n      and\n      dup2\n      mstore\n      0x20\n      add\n      swap1\n      dup2\n      mstore\n      0x20\n      add\n      0x00\n      keccak256\n        /* \"contracts/Voting System/voting.sol\":4516:4541  voters[msg.sender].weight */\n      0x00\n      add\n      sload\n        /* \"contracts/Voting System/voting.sol\":4516:4546  voters[msg.sender].weight != 0 */\n      sub\n        /* \"contracts/Voting System/voting.sol\":4508:4584  require(voters[msg.sender].weight != 0, \"You do not have the right to vote\") */\n      tag_88\n      jumpi\n      mload(0x40)\n      0x08c379a000000000000000000000000000000000000000000000000000000000\n      dup2\n      mstore\n      0x04\n      add\n      tag_89\n      swap1\n      tag_62\n      jump\t// in\n    tag_89:\n      mload(0x40)\n      dup1\n      swap2\n      sub\n      swap1\n      revert\n    tag_88:\n        /* \"contracts/Voting System/voting.sol\":4640:4641  0 */\n      0x00\n        /* \"contracts/Voting System/voting.sol\":4603:4609  voters */\n      0x02\n        /* \"contracts/Voting System/voting.sol\":4603:4621  voters[msg.sender] */\n      0x00\n        /* \"contracts/Voting System/voting.sol\":4610:4620  msg.sender */\n      caller\n        /* \"contracts/Voting System/voting.sol\":4603:4621  voters[msg.sender] */\n      0xffffffffffffffffffffffffffffffffffffffff\n      and\n      0xffffffffffffffffffffffffffffffffffffffff\n      and\n      dup2\n      mstore\n      0x20\n      add\n      swap1\n      dup2\n      mstore\n      0x20\n      add\n      0x00\n      keccak256\n        /* \"contracts/Voting System/voting.sol\":4603:4636  voters[msg.sender].remainingVotes */\n      0x01\n      add\n      sload\n        /* \"contracts/Voting System/voting.sol\":4603:4641  voters[msg.sender].remainingVotes != 0 */\n      sub\n        /* \"contracts/Voting System/voting.sol\":4595:4668  require(voters[msg.sender].remainingVotes != 0, \"You have already voted\") */\n      tag_90\n      jumpi\n      mload(0x40)\n      0x08c379a000000000000000000000000000000000000000000000000000000000\n      dup2\n      mstore\n      0x04\n      add\n      tag_91\n      swap1\n      tag_65\n      jump\t// in\n    tag_91:\n      mload(0x40)\n      dup1\n      swap2\n      sub\n      swap1\n      revert\n    tag_90:\n        /* \"contracts/Voting System/voting.sol\":4687:4710  isCandidate(candidate_) */\n      tag_92\n        /* \"contracts/Voting System/voting.sol\":4699:4709  candidate_ */\n      dup2\n        /* \"contracts/Voting System/voting.sol\":4687:4698  isCandidate */\n      tag_93\n        /* \"contracts/Voting System/voting.sol\":4687:4710  isCandidate(candidate_) */\n      jump\t// in\n    tag_92:\n        /* \"contracts/Voting System/voting.sol\":4679:4745  require(isCandidate(candidate_), \"This person is not a candidate\") */\n      tag_94\n      jumpi\n      mload(0x40)\n      0x08c379a000000000000000000000000000000000000000000000000000000000\n      dup2\n      mstore\n      0x04\n      add\n      tag_95\n      swap1\n      tag_96\n      jump\t// in\n    tag_95:\n      mload(0x40)\n      dup1\n      swap2\n      sub\n      swap1\n      revert\n    tag_94:\n        /* \"contracts/Voting System/voting.sol\":4763:4769  uint i */\n      0x00\n        /* \"contracts/Voting System/voting.sol\":4758:4959  for (uint i = 0; i < candidates.length; i ++) {... */\n    tag_97:\n        /* \"contracts/Voting System/voting.sol\":4779:4789  candidates */\n      0x03\n        /* \"contracts/Voting System/voting.sol\":4779:4796  candidates.length */\n      dup1\n      sload\n      swap1\n      pop\n        /* \"contracts/Voting System/voting.sol\":4775:4776  i */\n      dup2\n        /* \"contracts/Voting System/voting.sol\":4775:4796  i < candidates.length */\n      lt\n        /* \"contracts/Voting System/voting.sol\":4758:4959  for (uint i = 0; i < candidates.length; i ++) {... */\n      iszero\n      tag_98\n      jumpi\n        /* \"contracts/Voting System/voting.sol\":4849:4859  candidate_ */\n      dup2\n        /* \"contracts/Voting System/voting.sol\":4823:4859  candidates[i].address_ == candidate_ */\n      0xffffffffffffffffffffffffffffffffffffffff\n      and\n        /* \"contracts/Voting System/voting.sol\":4823:4833  candidates */\n      0x03\n        /* \"contracts/Voting System/voting.sol\":4834:4835  i */\n      dup3\n        /* \"contracts/Voting System/voting.sol\":4823:4836  candidates[i] */\n      dup2\n      sload\n      dup2\n      lt\n      tag_100\n      jumpi\n      tag_101\n      tag_51\n      jump\t// in\n    tag_101:\n    tag_100:\n      swap1\n      0x00\n      mstore\n      keccak256(0x00, 0x20)\n      swap1\n      0x02\n      mul\n      add\n        /* \"contracts/Voting System/voting.sol\":4823:4845  candidates[i].address_ */\n      0x00\n      add\n      0x00\n      swap1\n      sload\n      swap1\n      0x0100\n      exp\n      swap1\n      div\n      0xffffffffffffffffffffffffffffffffffffffff\n      and\n        /* \"contracts/Voting System/voting.sol\":4823:4859  candidates[i].address_ == candidate_ */\n      0xffffffffffffffffffffffffffffffffffffffff\n      and\n      sub\n        /* \"contracts/Voting System/voting.sol\":4819:4948  if (candidates[i].address_ == candidate_) {... */\n      tag_103\n      jumpi\n        /* \"contracts/Voting System/voting.sol\":4880:4890  candidates */\n      0x03\n        /* \"contracts/Voting System/voting.sol\":4891:4892  i */\n      dup2\n        /* \"contracts/Voting System/voting.sol\":4880:4893  candidates[i] */\n      dup2\n      sload\n      dup2\n      lt\n      tag_104\n      jumpi\n      tag_105\n      tag_51\n      jump\t// in\n    tag_105:\n    tag_104:\n      swap1\n      0x00\n      mstore\n      keccak256(0x00, 0x20)\n      swap1\n      0x02\n      mul\n      add\n        /* \"contracts/Voting System/voting.sol\":4880:4905  candidates[i].voteCounter */\n      0x01\n      add\n      0x00\n        /* \"contracts/Voting System/voting.sol\":4880:4908  candidates[i].voteCounter ++ */\n      dup2\n      sload\n      dup1\n      swap3\n      swap2\n      swap1\n      tag_107\n      swap1\n      tag_108\n      jump\t// in\n    tag_107:\n      swap2\n      swap1\n      pop\n      sstore\n      pop\n        /* \"contracts/Voting System/voting.sol\":4927:4932  break */\n      jump(tag_98)\n        /* \"contracts/Voting System/voting.sol\":4819:4948  if (candidates[i].address_ == candidate_) {... */\n    tag_103:\n        /* \"contracts/Voting System/voting.sol\":4798:4802  i ++ */\n      dup1\n      dup1\n      0x01\n      add\n      swap2\n      pop\n      pop\n        /* \"contracts/Voting System/voting.sol\":4758:4959  for (uint i = 0; i < candidates.length; i ++) {... */\n      jump(tag_97)\n    tag_98:\n      pop\n        /* \"contracts/Voting System/voting.sol\":4969:4975  voters */\n      0x02\n        /* \"contracts/Voting System/voting.sol\":4969:4987  voters[msg.sender] */\n      0x00\n        /* \"contracts/Voting System/voting.sol\":4976:4986  msg.sender */\n      caller\n        /* \"contracts/Voting System/voting.sol\":4969:4987  voters[msg.sender] */\n      0xffffffffffffffffffffffffffffffffffffffff\n      and\n      0xffffffffffffffffffffffffffffffffffffffff\n      and\n      dup2\n      mstore\n      0x20\n      add\n      swap1\n      dup2\n      mstore\n      0x20\n      add\n      0x00\n      keccak256\n        /* \"contracts/Voting System/voting.sol\":4969:5002  voters[msg.sender].remainingVotes */\n      0x01\n      add\n      0x00\n        /* \"contracts/Voting System/voting.sol\":4969:5005  voters[msg.sender].remainingVotes -- */\n      dup2\n      sload\n      dup1\n      swap3\n      swap2\n      swap1\n      tag_109\n      swap1\n      tag_110\n      jump\t// in\n    tag_109:\n      swap2\n      swap1\n      pop\n      sstore\n      pop\n        /* \"contracts/Voting System/voting.sol\":4341:5013  function vote(address candidate_) external isBallotOpen {... */\n      pop\n      jump\t// out\n        /* \"contracts/Voting System/voting.sol\":1590:1912  function setBallotToOpen(uint durationInMinutes_) external {... */\n    tag_26:\n        /* \"contracts/Voting System/voting.sol\":1682:1690  chairman */\n      0x00\n      dup1\n      sload\n      swap1\n      0x0100\n      exp\n      swap1\n      div\n      0xffffffffffffffffffffffffffffffffffffffff\n      and\n        /* \"contracts/Voting System/voting.sol\":1668:1690  msg.sender == chairman */\n      0xffffffffffffffffffffffffffffffffffffffff\n      and\n        /* \"contracts/Voting System/voting.sol\":1668:1678  msg.sender */\n      caller\n        /* \"contracts/Voting System/voting.sol\":1668:1690  msg.sender == chairman */\n      0xffffffffffffffffffffffffffffffffffffffff\n      and\n      eq\n        /* \"contracts/Voting System/voting.sol\":1660:1736  require(msg.sender == chairman, \"Only the chairman can perform this action\") */\n      tag_112\n      jumpi\n      mload(0x40)\n      0x08c379a000000000000000000000000000000000000000000000000000000000\n      dup2\n      mstore\n      0x04\n      add\n      tag_113\n      swap1\n      tag_114\n      jump\t// in\n    tag_113:\n      mload(0x40)\n      dup1\n      swap2\n      sub\n      swap1\n      revert\n    tag_112:\n        /* \"contracts/Voting System/voting.sol\":1756:1766  openBallot */\n      0x00\n      0x14\n      swap1\n      sload\n      swap1\n      0x0100\n      exp\n      swap1\n      div\n      0xff\n      and\n        /* \"contracts/Voting System/voting.sol\":1755:1766  !openBallot */\n      iszero\n        /* \"contracts/Voting System/voting.sol\":1747:1805  require(!openBallot, \"The voting session is already open\") */\n      tag_115\n      jumpi\n      mload(0x40)\n      0x08c379a000000000000000000000000000000000000000000000000000000000\n      dup2\n      mstore\n      0x04\n      add\n      tag_116\n      swap1\n      tag_117\n      jump\t// in\n    tag_116:\n      mload(0x40)\n      dup1\n      swap2\n      sub\n      swap1\n      revert\n    tag_115:\n        /* \"contracts/Voting System/voting.sol\":1866:1875  1 minutes */\n      0x3c\n        /* \"contracts/Voting System/voting.sol\":1845:1863  durationInMinutes_ */\n      dup2\n        /* \"contracts/Voting System/voting.sol\":1845:1875  durationInMinutes_ * 1 minutes */\n      tag_118\n      swap2\n      swap1\n      tag_119\n      jump\t// in\n    tag_118:\n        /* \"contracts/Voting System/voting.sol\":1826:1841  block.timestamp */\n      timestamp\n        /* \"contracts/Voting System/voting.sol\":1826:1876  block.timestamp + (durationInMinutes_ * 1 minutes) */\n      tag_120\n      swap2\n      swap1\n      tag_79\n      jump\t// in\n    tag_120:\n        /* \"contracts/Voting System/voting.sol\":1816:1823  endTime */\n      0x01\n        /* \"contracts/Voting System/voting.sol\":1816:1876  endTime = block.timestamp + (durationInMinutes_ * 1 minutes) */\n      dup2\n      swap1\n      sstore\n      pop\n        /* \"contracts/Voting System/voting.sol\":1900:1904  true */\n      0x01\n        /* \"contracts/Voting System/voting.sol\":1887:1897  openBallot */\n      0x00\n      0x14\n        /* \"contracts/Voting System/voting.sol\":1887:1904  openBallot = true */\n      0x0100\n      exp\n      dup2\n      sload\n      dup2\n      0xff\n      mul\n      not\n      and\n      swap1\n      dup4\n      iszero\n      iszero\n      mul\n      or\n      swap1\n      sstore\n      pop\n        /* \"contracts/Voting System/voting.sol\":1590:1912  function setBallotToOpen(uint durationInMinutes_) external {... */\n      pop\n      jump\t// out\n        /* \"contracts/Voting System/voting.sol\":2704:3074  function giveRightToVote(address voter) external isBallotClosed {... */\n    tag_29:\n        /* \"contracts/Voting System/voting.sol\":1487:1494  endTime */\n      sload(0x01)\n        /* \"contracts/Voting System/voting.sol\":1469:1484  block.timestamp */\n      timestamp\n        /* \"contracts/Voting System/voting.sol\":1469:1494  block.timestamp > endTime */\n      gt\n        /* \"contracts/Voting System/voting.sol\":1461:1525  require(block.timestamp > endTime, \"The voting session is open\") */\n      tag_122\n      jumpi\n      mload(0x40)\n      0x08c379a000000000000000000000000000000000000000000000000000000000\n      dup2\n      mstore\n      0x04\n      add\n      tag_123\n      swap1\n      tag_58\n      jump\t// in\n    tag_123:\n      mload(0x40)\n      dup1\n      swap2\n      sub\n      swap1\n      revert\n    tag_122:\n        /* \"contracts/Voting System/voting.sol\":2801:2809  chairman */\n      0x00\n      dup1\n      sload\n      swap1\n      0x0100\n      exp\n      swap1\n      div\n      0xffffffffffffffffffffffffffffffffffffffff\n      and\n        /* \"contracts/Voting System/voting.sol\":2787:2809  msg.sender == chairman */\n      0xffffffffffffffffffffffffffffffffffffffff\n      and\n        /* \"contracts/Voting System/voting.sol\":2787:2797  msg.sender */\n      caller\n        /* \"contracts/Voting System/voting.sol\":2787:2809  msg.sender == chairman */\n      0xffffffffffffffffffffffffffffffffffffffff\n      and\n      eq\n        /* \"contracts/Voting System/voting.sol\":2779:2855  require(msg.sender == chairman, \"Only the chairman can perform this action\") */\n      tag_125\n      jumpi\n      mload(0x40)\n      0x08c379a000000000000000000000000000000000000000000000000000000000\n      dup2\n      mstore\n      0x04\n      add\n      tag_126\n      swap1\n      tag_114\n      jump\t// in\n    tag_126:\n      mload(0x40)\n      dup1\n      swap2\n      sub\n      swap1\n      revert\n    tag_125:\n        /* \"contracts/Voting System/voting.sol\":2898:2899  0 */\n      0x00\n        /* \"contracts/Voting System/voting.sol\":2874:2880  voters */\n      0x02\n        /* \"contracts/Voting System/voting.sol\":2874:2887  voters[voter] */\n      0x00\n        /* \"contracts/Voting System/voting.sol\":2881:2886  voter */\n      dup4\n        /* \"contracts/Voting System/voting.sol\":2874:2887  voters[voter] */\n      0xffffffffffffffffffffffffffffffffffffffff\n      and\n      0xffffffffffffffffffffffffffffffffffffffff\n      and\n      dup2\n      mstore\n      0x20\n      add\n      swap1\n      dup2\n      mstore\n      0x20\n      add\n      0x00\n      keccak256\n        /* \"contracts/Voting System/voting.sol\":2874:2894  voters[voter].weight */\n      0x00\n      add\n      sload\n        /* \"contracts/Voting System/voting.sol\":2874:2899  voters[voter].weight == 0 */\n      eq\n        /* \"contracts/Voting System/voting.sol\":2866:2944  require(voters[voter].weight == 0, \"This voter already has the right to vote\") */\n      tag_127\n      jumpi\n      mload(0x40)\n      0x08c379a000000000000000000000000000000000000000000000000000000000\n      dup2\n      mstore\n      0x04\n      add\n      tag_128\n      swap1\n      tag_129\n      jump\t// in\n    tag_128:\n      mload(0x40)\n      dup1\n      swap2\n      sub\n      swap1\n      revert\n    tag_127:\n        /* \"contracts/Voting System/voting.sol\":2980:2981  1 */\n      0x01\n        /* \"contracts/Voting System/voting.sol\":2957:2963  voters */\n      0x02\n        /* \"contracts/Voting System/voting.sol\":2957:2970  voters[voter] */\n      0x00\n        /* \"contracts/Voting System/voting.sol\":2964:2969  voter */\n      dup4\n        /* \"contracts/Voting System/voting.sol\":2957:2970  voters[voter] */\n      0xffffffffffffffffffffffffffffffffffffffff\n      and\n      0xffffffffffffffffffffffffffffffffffffffff\n      and\n      dup2\n      mstore\n      0x20\n      add\n      swap1\n      dup2\n      mstore\n      0x20\n      add\n      0x00\n      keccak256\n        /* \"contracts/Voting System/voting.sol\":2957:2977  voters[voter].weight */\n      0x00\n      add\n        /* \"contracts/Voting System/voting.sol\":2957:2981  voters[voter].weight = 1 */\n      dup2\n      swap1\n      sstore\n      pop\n        /* \"contracts/Voting System/voting.sol\":3023:3024  1 */\n      0x01\n        /* \"contracts/Voting System/voting.sol\":2992:2998  voters */\n      0x02\n        /* \"contracts/Voting System/voting.sol\":2992:3005  voters[voter] */\n      0x00\n        /* \"contracts/Voting System/voting.sol\":2999:3004  voter */\n      dup4\n        /* \"contracts/Voting System/voting.sol\":2992:3005  voters[voter] */\n      0xffffffffffffffffffffffffffffffffffffffff\n      and\n      0xffffffffffffffffffffffffffffffffffffffff\n      and\n      dup2\n      mstore\n      0x20\n      add\n      swap1\n      dup2\n      mstore\n      0x20\n      add\n      0x00\n      keccak256\n        /* \"contracts/Voting System/voting.sol\":2992:3020  voters[voter].remainingVotes */\n      0x01\n      add\n        /* \"contracts/Voting System/voting.sol\":2992:3024  voters[voter].remainingVotes = 1 */\n      dup2\n      swap1\n      sstore\n      pop\n        /* \"contracts/Voting System/voting.sol\":3045:3054  voterList */\n      0x04\n        /* \"contracts/Voting System/voting.sol\":3060:3065  voter */\n      dup2\n        /* \"contracts/Voting System/voting.sol\":3045:3066  voterList.push(voter) */\n      swap1\n      dup1\n      0x01\n      dup2\n      sload\n      add\n      dup1\n      dup3\n      sstore\n      dup1\n      swap2\n      pop\n      pop\n      0x01\n      swap1\n      sub\n      swap1\n      0x00\n      mstore\n      keccak256(0x00, 0x20)\n      add\n      0x00\n      swap1\n      swap2\n      swap1\n      swap2\n      swap1\n      swap2\n      0x0100\n      exp\n      dup2\n      sload\n      dup2\n      0xffffffffffffffffffffffffffffffffffffffff\n      mul\n      not\n      and\n      swap1\n      dup4\n      0xffffffffffffffffffffffffffffffffffffffff\n      and\n      mul\n      or\n      swap1\n      sstore\n      pop\n        /* \"contracts/Voting System/voting.sol\":2704:3074  function giveRightToVote(address voter) external isBallotClosed {... */\n      pop\n      jump\t// out\n        /* \"contracts/Voting System/voting.sol\":5054:5684  function results() external view isBallotClosed returns(address[] memory, uint[] memory) {... */\n    tag_31:\n        /* \"contracts/Voting System/voting.sol\":5110:5126  address[] memory */\n      0x60\n        /* \"contracts/Voting System/voting.sol\":5128:5141  uint[] memory */\n      dup1\n        /* \"contracts/Voting System/voting.sol\":1487:1494  endTime */\n      sload(0x01)\n        /* \"contracts/Voting System/voting.sol\":1469:1484  block.timestamp */\n      timestamp\n        /* \"contracts/Voting System/voting.sol\":1469:1494  block.timestamp > endTime */\n      gt\n        /* \"contracts/Voting System/voting.sol\":1461:1525  require(block.timestamp > endTime, \"The voting session is open\") */\n      tag_132\n      jumpi\n      mload(0x40)\n      0x08c379a000000000000000000000000000000000000000000000000000000000\n      dup2\n      mstore\n      0x04\n      add\n      tag_133\n      swap1\n      tag_58\n      jump\t// in\n    tag_133:\n      mload(0x40)\n      dup1\n      swap2\n      sub\n      swap1\n      revert\n    tag_132:\n        /* \"contracts/Voting System/voting.sol\":5176:5184  chairman */\n      0x00\n      dup1\n      sload\n      swap1\n      0x0100\n      exp\n      swap1\n      div\n      0xffffffffffffffffffffffffffffffffffffffff\n      and\n        /* \"contracts/Voting System/voting.sol\":5162:5184  msg.sender == chairman */\n      0xffffffffffffffffffffffffffffffffffffffff\n      and\n        /* \"contracts/Voting System/voting.sol\":5162:5172  msg.sender */\n      caller\n        /* \"contracts/Voting System/voting.sol\":5162:5184  msg.sender == chairman */\n      0xffffffffffffffffffffffffffffffffffffffff\n      and\n      eq\n        /* \"contracts/Voting System/voting.sol\":5154:5230  require(msg.sender == chairman, \"Only the chairman can perform this action\") */\n      tag_135\n      jumpi\n      mload(0x40)\n      0x08c379a000000000000000000000000000000000000000000000000000000000\n      dup2\n      mstore\n      0x04\n      add\n      tag_136\n      swap1\n      tag_114\n      jump\t// in\n    tag_136:\n      mload(0x40)\n      dup1\n      swap2\n      sub\n      swap1\n      revert\n    tag_135:\n        /* \"contracts/Voting System/voting.sol\":5260:5261  0 */\n      0x00\n        /* \"contracts/Voting System/voting.sol\":5249:5256  endTime */\n      sload(0x01)\n        /* \"contracts/Voting System/voting.sol\":5249:5261  endTime != 0 */\n      sub\n        /* \"contracts/Voting System/voting.sol\":5241:5308  require(endTime != 0, \"The voting session has not yet taken place\") */\n      tag_137\n      jumpi\n      mload(0x40)\n      0x08c379a000000000000000000000000000000000000000000000000000000000\n      dup2\n      mstore\n      0x04\n      add\n      tag_138\n      swap1\n      tag_139\n      jump\t// in\n    tag_138:\n      mload(0x40)\n      dup1\n      swap2\n      sub\n      swap1\n      revert\n    tag_137:\n        /* \"contracts/Voting System/voting.sol\":5319:5346  address[] memory addresses_ */\n      0x00\n        /* \"contracts/Voting System/voting.sol\":5363:5373  candidates */\n      0x03\n        /* \"contracts/Voting System/voting.sol\":5363:5380  candidates.length */\n      dup1\n      sload\n      swap1\n      pop\n        /* \"contracts/Voting System/voting.sol\":5349:5381  new address[](candidates.length) */\n      0xffffffffffffffff\n      dup2\n      gt\n      iszero\n      tag_140\n      jumpi\n      tag_141\n      tag_44\n      jump\t// in\n    tag_141:\n    tag_140:\n      mload(0x40)\n      swap1\n      dup1\n      dup3\n      mstore\n      dup1\n      0x20\n      mul\n      0x20\n      add\n      dup3\n      add\n      0x40\n      mstore\n      dup1\n      iszero\n      tag_142\n      jumpi\n      dup2\n      0x20\n      add\n      0x20\n      dup3\n      mul\n      dup1\n      calldatasize\n      dup4\n      calldatacopy\n      dup1\n      dup3\n      add\n      swap2\n      pop\n      pop\n      swap1\n      pop\n    tag_142:\n      pop\n        /* \"contracts/Voting System/voting.sol\":5319:5381  address[] memory addresses_ = new address[](candidates.length) */\n      swap1\n      pop\n        /* \"contracts/Voting System/voting.sol\":5392:5419  uint[] memory voteCounters_ */\n      0x00\n        /* \"contracts/Voting System/voting.sol\":5433:5443  candidates */\n      0x03\n        /* \"contracts/Voting System/voting.sol\":5433:5450  candidates.length */\n      dup1\n      sload\n      swap1\n      pop\n        /* \"contracts/Voting System/voting.sol\":5422:5451  new uint[](candidates.length) */\n      0xffffffffffffffff\n      dup2\n      gt\n      iszero\n      tag_143\n      jumpi\n      tag_144\n      tag_44\n      jump\t// in\n    tag_144:\n    tag_143:\n      mload(0x40)\n      swap1\n      dup1\n      dup3\n      mstore\n      dup1\n      0x20\n      mul\n      0x20\n      add\n      dup3\n      add\n      0x40\n      mstore\n      dup1\n      iszero\n      tag_145\n      jumpi\n      dup2\n      0x20\n      add\n      0x20\n      dup3\n      mul\n      dup1\n      calldatasize\n      dup4\n      calldatacopy\n      dup1\n      dup3\n      add\n      swap2\n      pop\n      pop\n      swap1\n      pop\n    tag_145:\n      pop\n        /* \"contracts/Voting System/voting.sol\":5392:5451  uint[] memory voteCounters_ = new uint[](candidates.length) */\n      swap1\n      pop\n        /* \"contracts/Voting System/voting.sol\":5467:5473  uint i */\n      0x00\n        /* \"contracts/Voting System/voting.sol\":5462:5632  for (uint i = 0; i < candidates.length; i ++) {... */\n    tag_146:\n        /* \"contracts/Voting System/voting.sol\":5483:5493  candidates */\n      0x03\n        /* \"contracts/Voting System/voting.sol\":5483:5500  candidates.length */\n      dup1\n      sload\n      swap1\n      pop\n        /* \"contracts/Voting System/voting.sol\":5479:5480  i */\n      dup2\n        /* \"contracts/Voting System/voting.sol\":5479:5500  i < candidates.length */\n      lt\n        /* \"contracts/Voting System/voting.sol\":5462:5632  for (uint i = 0; i < candidates.length; i ++) {... */\n      iszero\n      tag_147\n      jumpi\n        /* \"contracts/Voting System/voting.sol\":5539:5549  candidates */\n      0x03\n        /* \"contracts/Voting System/voting.sol\":5550:5551  i */\n      dup2\n        /* \"contracts/Voting System/voting.sol\":5539:5552  candidates[i] */\n      dup2\n      sload\n      dup2\n      lt\n      tag_149\n      jumpi\n      tag_150\n      tag_51\n      jump\t// in\n    tag_150:\n    tag_149:\n      swap1\n      0x00\n      mstore\n      keccak256(0x00, 0x20)\n      swap1\n      0x02\n      mul\n      add\n        /* \"contracts/Voting System/voting.sol\":5539:5561  candidates[i].address_ */\n      0x00\n      add\n      0x00\n      swap1\n      sload\n      swap1\n      0x0100\n      exp\n      swap1\n      div\n      0xffffffffffffffffffffffffffffffffffffffff\n      and\n        /* \"contracts/Voting System/voting.sol\":5523:5533  addresses_ */\n      dup4\n        /* \"contracts/Voting System/voting.sol\":5534:5535  i */\n      dup3\n        /* \"contracts/Voting System/voting.sol\":5523:5536  addresses_[i] */\n      dup2\n      mload\n      dup2\n      lt\n      tag_152\n      jumpi\n      tag_153\n      tag_51\n      jump\t// in\n    tag_153:\n    tag_152:\n      0x20\n      mul\n      0x20\n      add\n      add\n        /* \"contracts/Voting System/voting.sol\":5523:5561  addresses_[i] = candidates[i].address_ */\n      swap1\n      0xffffffffffffffffffffffffffffffffffffffff\n      and\n      swap1\n      dup2\n      0xffffffffffffffffffffffffffffffffffffffff\n      and\n      dup2\n      mstore\n      pop\n      pop\n        /* \"contracts/Voting System/voting.sol\":5595:5605  candidates */\n      0x03\n        /* \"contracts/Voting System/voting.sol\":5606:5607  i */\n      dup2\n        /* \"contracts/Voting System/voting.sol\":5595:5608  candidates[i] */\n      dup2\n      sload\n      dup2\n      lt\n      tag_154\n      jumpi\n      tag_155\n      tag_51\n      jump\t// in\n    tag_155:\n    tag_154:\n      swap1\n      0x00\n      mstore\n      keccak256(0x00, 0x20)\n      swap1\n      0x02\n      mul\n      add\n        /* \"contracts/Voting System/voting.sol\":5595:5620  candidates[i].voteCounter */\n      0x01\n      add\n      sload\n        /* \"contracts/Voting System/voting.sol\":5576:5589  voteCounters_ */\n      dup3\n        /* \"contracts/Voting System/voting.sol\":5590:5591  i */\n      dup3\n        /* \"contracts/Voting System/voting.sol\":5576:5592  voteCounters_[i] */\n      dup2\n      mload\n      dup2\n      lt\n      tag_157\n      jumpi\n      tag_158\n      tag_51\n      jump\t// in\n    tag_158:\n    tag_157:\n      0x20\n      mul\n      0x20\n      add\n      add\n        /* \"contracts/Voting System/voting.sol\":5576:5620  voteCounters_[i] = candidates[i].voteCounter */\n      dup2\n      dup2\n      mstore\n      pop\n      pop\n        /* \"contracts/Voting System/voting.sol\":5502:5506  i ++ */\n      dup1\n      dup1\n      0x01\n      add\n      swap2\n      pop\n      pop\n        /* \"contracts/Voting System/voting.sol\":5462:5632  for (uint i = 0; i < candidates.length; i ++) {... */\n      jump(tag_146)\n    tag_147:\n      pop\n        /* \"contracts/Voting System/voting.sol\":5650:5660  addresses_ */\n      dup2\n        /* \"contracts/Voting System/voting.sol\":5662:5675  voteCounters_ */\n      dup2\n        /* \"contracts/Voting System/voting.sol\":5642:5676  return (addresses_, voteCounters_) */\n      swap4\n      pop\n      swap4\n      pop\n      pop\n      pop\n        /* \"contracts/Voting System/voting.sol\":5054:5684  function results() external view isBallotClosed returns(address[] memory, uint[] memory) {... */\n      swap1\n      swap2\n      jump\t// out\n        /* \"contracts/Voting System/voting.sol\":2456:2639  function getVoters() external view returns(address[] memory) {... */\n    tag_35:\n        /* \"contracts/Voting System/voting.sol\":2499:2515  address[] memory */\n      0x60\n        /* \"contracts/Voting System/voting.sol\":2550:2558  chairman */\n      0x00\n      dup1\n      sload\n      swap1\n      0x0100\n      exp\n      swap1\n      div\n      0xffffffffffffffffffffffffffffffffffffffff\n      and\n        /* \"contracts/Voting System/voting.sol\":2536:2558  msg.sender == chairman */\n      0xffffffffffffffffffffffffffffffffffffffff\n      and\n        /* \"contracts/Voting System/voting.sol\":2536:2546  msg.sender */\n      caller\n        /* \"contracts/Voting System/voting.sol\":2536:2558  msg.sender == chairman */\n      0xffffffffffffffffffffffffffffffffffffffff\n      and\n      eq\n        /* \"contracts/Voting System/voting.sol\":2528:2604  require(msg.sender == chairman, \"Only the chairman can perform this action\") */\n      tag_160\n      jumpi\n      mload(0x40)\n      0x08c379a000000000000000000000000000000000000000000000000000000000\n      dup2\n      mstore\n      0x04\n      add\n      tag_161\n      swap1\n      tag_114\n      jump\t// in\n    tag_161:\n      mload(0x40)\n      dup1\n      swap2\n      sub\n      swap1\n      revert\n    tag_160:\n        /* \"contracts/Voting System/voting.sol\":2622:2631  voterList */\n      0x04\n        /* \"contracts/Voting System/voting.sol\":2615:2631  return voterList */\n      dup1\n      sload\n      dup1\n      0x20\n      mul\n      0x20\n      add\n      mload(0x40)\n      swap1\n      dup2\n      add\n      0x40\n      mstore\n      dup1\n      swap3\n      swap2\n      swap1\n      dup2\n      dup2\n      mstore\n      0x20\n      add\n      dup3\n      dup1\n      sload\n      dup1\n      iszero\n      tag_162\n      jumpi\n      0x20\n      mul\n      dup3\n      add\n      swap2\n      swap1\n      0x00\n      mstore\n      keccak256(0x00, 0x20)\n      swap1\n    tag_163:\n      dup2\n      0x00\n      swap1\n      sload\n      swap1\n      0x0100\n      exp\n      swap1\n      div\n      0xffffffffffffffffffffffffffffffffffffffff\n      and\n      0xffffffffffffffffffffffffffffffffffffffff\n      and\n      dup2\n      mstore\n      0x20\n      add\n      swap1\n      0x01\n      add\n      swap1\n      dup1\n      dup4\n      gt\n      tag_163\n      jumpi\n    tag_162:\n      pop\n      pop\n      pop\n      pop\n      pop\n      swap1\n      pop\n        /* \"contracts/Voting System/voting.sol\":2456:2639  function getVoters() external view returns(address[] memory) {... */\n      swap1\n      jump\t// out\n        /* \"contracts/Voting System/voting.sol\":1965:2053  function getChairman() external view returns(address) {... */\n    tag_38:\n        /* \"contracts/Voting System/voting.sol\":2010:2017  address */\n      0x00\n        /* \"contracts/Voting System/voting.sol\":2037:2045  chairman */\n      dup1\n      0x00\n      swap1\n      sload\n      swap1\n      0x0100\n      exp\n      swap1\n      div\n      0xffffffffffffffffffffffffffffffffffffffff\n      and\n        /* \"contracts/Voting System/voting.sol\":2030:2045  return chairman */\n      swap1\n      pop\n        /* \"contracts/Voting System/voting.sol\":1965:2053  function getChairman() external view returns(address) {... */\n      swap1\n      jump\t// out\n        /* \"contracts/Voting System/voting.sol\":4042:4308  function isCandidate(address _address) internal view returns(bool) {... */\n    tag_93:\n        /* \"contracts/Voting System/voting.sol\":4103:4107  bool */\n      0x00\n        /* \"contracts/Voting System/voting.sol\":4125:4131  uint i */\n      dup1\n        /* \"contracts/Voting System/voting.sol\":4134:4135  0 */\n      0x00\n        /* \"contracts/Voting System/voting.sol\":4125:4135  uint i = 0 */\n      swap1\n      pop\n        /* \"contracts/Voting System/voting.sol\":4120:4278  for (uint i = 0; i < candidates.length; i ++) {... */\n    tag_166:\n        /* \"contracts/Voting System/voting.sol\":4141:4151  candidates */\n      0x03\n        /* \"contracts/Voting System/voting.sol\":4141:4158  candidates.length */\n      dup1\n      sload\n      swap1\n      pop\n        /* \"contracts/Voting System/voting.sol\":4137:4138  i */\n      dup2\n        /* \"contracts/Voting System/voting.sol\":4137:4158  i < candidates.length */\n      lt\n        /* \"contracts/Voting System/voting.sol\":4120:4278  for (uint i = 0; i < candidates.length; i ++) {... */\n      iszero\n      tag_167\n      jumpi\n        /* \"contracts/Voting System/voting.sol\":4211:4219  _address */\n      dup3\n        /* \"contracts/Voting System/voting.sol\":4185:4219  candidates[i].address_ == _address */\n      0xffffffffffffffffffffffffffffffffffffffff\n      and\n        /* \"contracts/Voting System/voting.sol\":4185:4195  candidates */\n      0x03\n        /* \"contracts/Voting System/voting.sol\":4196:4197  i */\n      dup3\n        /* \"contracts/Voting System/voting.sol\":4185:4198  candidates[i] */\n      dup2\n      sload\n      dup2\n      lt\n      tag_169\n      jumpi\n      tag_170\n      tag_51\n      jump\t// in\n    tag_170:\n    tag_169:\n      swap1\n      0x00\n      mstore\n      keccak256(0x00, 0x20)\n      swap1\n      0x02\n      mul\n      add\n        /* \"contracts/Voting System/voting.sol\":4185:4207  candidates[i].address_ */\n      0x00\n      add\n      0x00\n      swap1\n      sload\n      swap1\n      0x0100\n      exp\n      swap1\n      div\n      0xffffffffffffffffffffffffffffffffffffffff\n      and\n        /* \"contracts/Voting System/voting.sol\":4185:4219  candidates[i].address_ == _address */\n      0xffffffffffffffffffffffffffffffffffffffff\n      and\n      sub\n        /* \"contracts/Voting System/voting.sol\":4181:4267  if (candidates[i].address_ == _address) {... */\n      tag_172\n      jumpi\n        /* \"contracts/Voting System/voting.sol\":4247:4251  true */\n      0x01\n        /* \"contracts/Voting System/voting.sol\":4240:4251  return true */\n      swap2\n      pop\n      pop\n      jump(tag_165)\n        /* \"contracts/Voting System/voting.sol\":4181:4267  if (candidates[i].address_ == _address) {... */\n    tag_172:\n        /* \"contracts/Voting System/voting.sol\":4160:4164  i ++ */\n      dup1\n      dup1\n      0x01\n      add\n      swap2\n      pop\n      pop\n        /* \"contracts/Voting System/voting.sol\":4120:4278  for (uint i = 0; i < candidates.length; i ++) {... */\n      jump(tag_166)\n    tag_167:\n      pop\n        /* \"contracts/Voting System/voting.sol\":4295:4300  false */\n      0x00\n        /* \"contracts/Voting System/voting.sol\":4288:4300  return false */\n      swap1\n      pop\n        /* \"contracts/Voting System/voting.sol\":4042:4308  function isCandidate(address _address) internal view returns(bool) {... */\n    tag_165:\n      swap2\n      swap1\n      pop\n      jump\t// out\n        /* \"#utility.yul\":7:121   */\n    tag_173:\n        /* \"#utility.yul\":74:80   */\n      0x00\n        /* \"#utility.yul\":108:113   */\n      dup2\n        /* \"#utility.yul\":102:114   */\n      mload\n        /* \"#utility.yul\":92:114   */\n      swap1\n      pop\n        /* \"#utility.yul\":7:121   */\n      swap2\n      swap1\n      pop\n      jump\t// out\n        /* \"#utility.yul\":127:311   */\n    tag_174:\n        /* \"#utility.yul\":226:237   */\n      0x00\n        /* \"#utility.yul\":260:266   */\n      dup3\n        /* \"#utility.yul\":255:258   */\n      dup3\n        /* \"#utility.yul\":248:267   */\n      mstore\n        /* \"#utility.yul\":300:304   */\n      0x20\n        /* \"#utility.yul\":295:298   */\n      dup3\n        /* \"#utility.yul\":291:305   */\n      add\n        /* \"#utility.yul\":276:305   */\n      swap1\n      pop\n        /* \"#utility.yul\":127:311   */\n      swap3\n      swap2\n      pop\n      pop\n      jump\t// out\n        /* \"#utility.yul\":317:449   */\n    tag_175:\n        /* \"#utility.yul\":384:388   */\n      0x00\n        /* \"#utility.yul\":407:410   */\n      dup2\n        /* \"#utility.yul\":399:410   */\n      swap1\n      pop\n        /* \"#utility.yul\":437:441   */\n      0x20\n        /* \"#utility.yul\":432:435   */\n      dup3\n        /* \"#utility.yul\":428:442   */\n      add\n        /* \"#utility.yul\":420:442   */\n      swap1\n      pop\n        /* \"#utility.yul\":317:449   */\n      swap2\n      swap1\n      pop\n      jump\t// out\n        /* \"#utility.yul\":455:581   */\n    tag_176:\n        /* \"#utility.yul\":492:499   */\n      0x00\n        /* \"#utility.yul\":532:574   */\n      0xffffffffffffffffffffffffffffffffffffffff\n        /* \"#utility.yul\":525:530   */\n      dup3\n        /* \"#utility.yul\":521:575   */\n      and\n        /* \"#utility.yul\":510:575   */\n      swap1\n      pop\n        /* \"#utility.yul\":455:581   */\n      swap2\n      swap1\n      pop\n      jump\t// out\n        /* \"#utility.yul\":587:683   */\n    tag_177:\n        /* \"#utility.yul\":624:631   */\n      0x00\n        /* \"#utility.yul\":653:677   */\n      tag_234\n        /* \"#utility.yul\":671:676   */\n      dup3\n        /* \"#utility.yul\":653:677   */\n      tag_176\n      jump\t// in\n    tag_234:\n        /* \"#utility.yul\":642:677   */\n      swap1\n      pop\n        /* \"#utility.yul\":587:683   */\n      swap2\n      swap1\n      pop\n      jump\t// out\n        /* \"#utility.yul\":689:797   */\n    tag_178:\n        /* \"#utility.yul\":766:790   */\n      tag_236\n        /* \"#utility.yul\":784:789   */\n      dup2\n        /* \"#utility.yul\":766:790   */\n      tag_177\n      jump\t// in\n    tag_236:\n        /* \"#utility.yul\":761:764   */\n      dup3\n        /* \"#utility.yul\":754:791   */\n      mstore\n        /* \"#utility.yul\":689:797   */\n      pop\n      pop\n      jump\t// out\n        /* \"#utility.yul\":803:982   */\n    tag_179:\n        /* \"#utility.yul\":872:882   */\n      0x00\n        /* \"#utility.yul\":893:939   */\n      tag_238\n        /* \"#utility.yul\":935:938   */\n      dup4\n        /* \"#utility.yul\":927:933   */\n      dup4\n        /* \"#utility.yul\":893:939   */\n      tag_178\n      jump\t// in\n    tag_238:\n        /* \"#utility.yul\":971:975   */\n      0x20\n        /* \"#utility.yul\":966:969   */\n      dup4\n        /* \"#utility.yul\":962:976   */\n      add\n        /* \"#utility.yul\":948:976   */\n      swap1\n      pop\n        /* \"#utility.yul\":803:982   */\n      swap3\n      swap2\n      pop\n      pop\n      jump\t// out\n        /* \"#utility.yul\":988:1101   */\n    tag_180:\n        /* \"#utility.yul\":1058:1062   */\n      0x00\n        /* \"#utility.yul\":1090:1094   */\n      0x20\n        /* \"#utility.yul\":1085:1088   */\n      dup3\n        /* \"#utility.yul\":1081:1095   */\n      add\n        /* \"#utility.yul\":1073:1095   */\n      swap1\n      pop\n        /* \"#utility.yul\":988:1101   */\n      swap2\n      swap1\n      pop\n      jump\t// out\n        /* \"#utility.yul\":1137:1869   */\n    tag_181:\n        /* \"#utility.yul\":1256:1259   */\n      0x00\n        /* \"#utility.yul\":1285:1339   */\n      tag_241\n        /* \"#utility.yul\":1333:1338   */\n      dup3\n        /* \"#utility.yul\":1285:1339   */\n      tag_173\n      jump\t// in\n    tag_241:\n        /* \"#utility.yul\":1355:1441   */\n      tag_242\n        /* \"#utility.yul\":1434:1440   */\n      dup2\n        /* \"#utility.yul\":1429:1432   */\n      dup6\n        /* \"#utility.yul\":1355:1441   */\n      tag_174\n      jump\t// in\n    tag_242:\n        /* \"#utility.yul\":1348:1441   */\n      swap4\n      pop\n        /* \"#utility.yul\":1465:1521   */\n      tag_243\n        /* \"#utility.yul\":1515:1520   */\n      dup4\n        /* \"#utility.yul\":1465:1521   */\n      tag_175\n      jump\t// in\n    tag_243:\n        /* \"#utility.yul\":1544:1551   */\n      dup1\n        /* \"#utility.yul\":1575:1576   */\n      0x00\n        /* \"#utility.yul\":1560:1844   */\n    tag_244:\n        /* \"#utility.yul\":1585:1591   */\n      dup4\n        /* \"#utility.yul\":1582:1583   */\n      dup2\n        /* \"#utility.yul\":1579:1592   */\n      lt\n        /* \"#utility.yul\":1560:1844   */\n      iszero\n      tag_246\n      jumpi\n        /* \"#utility.yul\":1661:1667   */\n      dup2\n        /* \"#utility.yul\":1655:1668   */\n      mload\n        /* \"#utility.yul\":1688:1751   */\n      tag_247\n        /* \"#utility.yul\":1747:1750   */\n      dup9\n        /* \"#utility.yul\":1732:1745   */\n      dup3\n        /* \"#utility.yul\":1688:1751   */\n      tag_179\n      jump\t// in\n    tag_247:\n        /* \"#utility.yul\":1681:1751   */\n      swap8\n      pop\n        /* \"#utility.yul\":1774:1834   */\n      tag_248\n        /* \"#utility.yul\":1827:1833   */\n      dup4\n        /* \"#utility.yul\":1774:1834   */\n      tag_180\n      jump\t// in\n    tag_248:\n        /* \"#utility.yul\":1764:1834   */\n      swap3\n      pop\n        /* \"#utility.yul\":1620:1844   */\n      pop\n        /* \"#utility.yul\":1607:1608   */\n      0x01\n        /* \"#utility.yul\":1604:1605   */\n      dup2\n        /* \"#utility.yul\":1600:1609   */\n      add\n        /* \"#utility.yul\":1595:1609   */\n      swap1\n      pop\n        /* \"#utility.yul\":1560:1844   */\n      jump(tag_244)\n    tag_246:\n        /* \"#utility.yul\":1564:1578   */\n      pop\n        /* \"#utility.yul\":1860:1863   */\n      dup6\n        /* \"#utility.yul\":1853:1863   */\n      swap4\n      pop\n        /* \"#utility.yul\":1261:1869   */\n      pop\n      pop\n      pop\n        /* \"#utility.yul\":1137:1869   */\n      swap3\n      swap2\n      pop\n      pop\n      jump\t// out\n        /* \"#utility.yul\":1875:2248   */\n    tag_15:\n        /* \"#utility.yul\":2018:2022   */\n      0x00\n        /* \"#utility.yul\":2056:2058   */\n      0x20\n        /* \"#utility.yul\":2045:2054   */\n      dup3\n        /* \"#utility.yul\":2041:2059   */\n      add\n        /* \"#utility.yul\":2033:2059   */\n      swap1\n      pop\n        /* \"#utility.yul\":2105:2114   */\n      dup2\n        /* \"#utility.yul\":2099:2103   */\n      dup2\n        /* \"#utility.yul\":2095:2115   */\n      sub\n        /* \"#utility.yul\":2091:2092   */\n      0x00\n        /* \"#utility.yul\":2080:2089   */\n      dup4\n        /* \"#utility.yul\":2076:2093   */\n      add\n        /* \"#utility.yul\":2069:2116   */\n      mstore\n        /* \"#utility.yul\":2133:2241   */\n      tag_250\n        /* \"#utility.yul\":2236:2240   */\n      dup2\n        /* \"#utility.yul\":2227:2233   */\n      dup5\n        /* \"#utility.yul\":2133:2241   */\n      tag_181\n      jump\t// in\n    tag_250:\n        /* \"#utility.yul\":2125:2241   */\n      swap1\n      pop\n        /* \"#utility.yul\":1875:2248   */\n      swap3\n      swap2\n      pop\n      pop\n      jump\t// out\n        /* \"#utility.yul\":2335:2452   */\n    tag_183:\n        /* \"#utility.yul\":2444:2445   */\n      0x00\n        /* \"#utility.yul\":2441:2442   */\n      dup1\n        /* \"#utility.yul\":2434:2446   */\n      revert\n        /* \"#utility.yul\":2581:2703   */\n    tag_185:\n        /* \"#utility.yul\":2654:2678   */\n      tag_255\n        /* \"#utility.yul\":2672:2677   */\n      dup2\n        /* \"#utility.yul\":2654:2678   */\n      tag_177\n      jump\t// in\n    tag_255:\n        /* \"#utility.yul\":2647:2652   */\n      dup2\n        /* \"#utility.yul\":2644:2679   */\n      eq\n        /* \"#utility.yul\":2634:2697   */\n      tag_256\n      jumpi\n        /* \"#utility.yul\":2693:2694   */\n      0x00\n        /* \"#utility.yul\":2690:2691   */\n      dup1\n        /* \"#utility.yul\":2683:2695   */\n      revert\n        /* \"#utility.yul\":2634:2697   */\n    tag_256:\n        /* \"#utility.yul\":2581:2703   */\n      pop\n      jump\t// out\n        /* \"#utility.yul\":2709:2848   */\n    tag_186:\n        /* \"#utility.yul\":2755:2760   */\n      0x00\n        /* \"#utility.yul\":2793:2799   */\n      dup2\n        /* \"#utility.yul\":2780:2800   */\n      calldataload\n        /* \"#utility.yul\":2771:2800   */\n      swap1\n      pop\n        /* \"#utility.yul\":2809:2842   */\n      tag_258\n        /* \"#utility.yul\":2836:2841   */\n      dup2\n        /* \"#utility.yul\":2809:2842   */\n      tag_185\n      jump\t// in\n    tag_258:\n        /* \"#utility.yul\":2709:2848   */\n      swap3\n      swap2\n      pop\n      pop\n      jump\t// out\n        /* \"#utility.yul\":2854:3183   */\n    tag_18:\n        /* \"#utility.yul\":2913:2919   */\n      0x00\n        /* \"#utility.yul\":2962:2964   */\n      0x20\n        /* \"#utility.yul\":2950:2959   */\n      dup3\n        /* \"#utility.yul\":2941:2948   */\n      dup5\n        /* \"#utility.yul\":2937:2960   */\n      sub\n        /* \"#utility.yul\":2933:2965   */\n      slt\n        /* \"#utility.yul\":2930:3049   */\n      iszero\n      tag_260\n      jumpi\n        /* \"#utility.yul\":2968:3047   */\n      tag_261\n      tag_183\n      jump\t// in\n    tag_261:\n        /* \"#utility.yul\":2930:3049   */\n    tag_260:\n        /* \"#utility.yul\":3088:3089   */\n      0x00\n        /* \"#utility.yul\":3113:3166   */\n      tag_262\n        /* \"#utility.yul\":3158:3165   */\n      dup5\n        /* \"#utility.yul\":3149:3155   */\n      dup3\n        /* \"#utility.yul\":3138:3147   */\n      dup6\n        /* \"#utility.yul\":3134:3156   */\n      add\n        /* \"#utility.yul\":3113:3166   */\n      tag_186\n      jump\t// in\n    tag_262:\n        /* \"#utility.yul\":3103:3166   */\n      swap2\n      pop\n        /* \"#utility.yul\":3059:3176   */\n      pop\n        /* \"#utility.yul\":2854:3183   */\n      swap3\n      swap2\n      pop\n      pop\n      jump\t// out\n        /* \"#utility.yul\":3189:3266   */\n    tag_187:\n        /* \"#utility.yul\":3226:3233   */\n      0x00\n        /* \"#utility.yul\":3255:3260   */\n      dup2\n        /* \"#utility.yul\":3244:3260   */\n      swap1\n      pop\n        /* \"#utility.yul\":3189:3266   */\n      swap2\n      swap1\n      pop\n      jump\t// out\n        /* \"#utility.yul\":3272:3394   */\n    tag_188:\n        /* \"#utility.yul\":3345:3369   */\n      tag_265\n        /* \"#utility.yul\":3363:3368   */\n      dup2\n        /* \"#utility.yul\":3345:3369   */\n      tag_187\n      jump\t// in\n    tag_265:\n        /* \"#utility.yul\":3338:3343   */\n      dup2\n        /* \"#utility.yul\":3335:3370   */\n      eq\n        /* \"#utility.yul\":3325:3388   */\n      tag_266\n      jumpi\n        /* \"#utility.yul\":3384:3385   */\n      0x00\n        /* \"#utility.yul\":3381:3382   */\n      dup1\n        /* \"#utility.yul\":3374:3386   */\n      revert\n        /* \"#utility.yul\":3325:3388   */\n    tag_266:\n        /* \"#utility.yul\":3272:3394   */\n      pop\n      jump\t// out\n        /* \"#utility.yul\":3400:3539   */\n    tag_189:\n        /* \"#utility.yul\":3446:3451   */\n      0x00\n        /* \"#utility.yul\":3484:3490   */\n      dup2\n        /* \"#utility.yul\":3471:3491   */\n      calldataload\n        /* \"#utility.yul\":3462:3491   */\n      swap1\n      pop\n        /* \"#utility.yul\":3500:3533   */\n      tag_268\n        /* \"#utility.yul\":3527:3532   */\n      dup2\n        /* \"#utility.yul\":3500:3533   */\n      tag_188\n      jump\t// in\n    tag_268:\n        /* \"#utility.yul\":3400:3539   */\n      swap3\n      swap2\n      pop\n      pop\n      jump\t// out\n        /* \"#utility.yul\":3545:3874   */\n    tag_25:\n        /* \"#utility.yul\":3604:3610   */\n      0x00\n        /* \"#utility.yul\":3653:3655   */\n      0x20\n        /* \"#utility.yul\":3641:3650   */\n      dup3\n        /* \"#utility.yul\":3632:3639   */\n      dup5\n        /* \"#utility.yul\":3628:3651   */\n      sub\n        /* \"#utility.yul\":3624:3656   */\n      slt\n        /* \"#utility.yul\":3621:3740   */\n      iszero\n      tag_270\n      jumpi\n        /* \"#utility.yul\":3659:3738   */\n      tag_271\n      tag_183\n      jump\t// in\n    tag_271:\n        /* \"#utility.yul\":3621:3740   */\n    tag_270:\n        /* \"#utility.yul\":3779:3780   */\n      0x00\n        /* \"#utility.yul\":3804:3857   */\n      tag_272\n        /* \"#utility.yul\":3849:3856   */\n      dup5\n        /* \"#utility.yul\":3840:3846   */\n      dup3\n        /* \"#utility.yul\":3829:3838   */\n      dup6\n        /* \"#utility.yul\":3825:3847   */\n      add\n        /* \"#utility.yul\":3804:3857   */\n      tag_189\n      jump\t// in\n    tag_272:\n        /* \"#utility.yul\":3794:3857   */\n      swap2\n      pop\n        /* \"#utility.yul\":3750:3867   */\n      pop\n        /* \"#utility.yul\":3545:3874   */\n      swap3\n      swap2\n      pop\n      pop\n      jump\t// out\n        /* \"#utility.yul\":3880:3994   */\n    tag_190:\n        /* \"#utility.yul\":3947:3953   */\n      0x00\n        /* \"#utility.yul\":3981:3986   */\n      dup2\n        /* \"#utility.yul\":3975:3987   */\n      mload\n        /* \"#utility.yul\":3965:3987   */\n      swap1\n      pop\n        /* \"#utility.yul\":3880:3994   */\n      swap2\n      swap1\n      pop\n      jump\t// out\n        /* \"#utility.yul\":4000:4184   */\n    tag_191:\n        /* \"#utility.yul\":4099:4110   */\n      0x00\n        /* \"#utility.yul\":4133:4139   */\n      dup3\n        /* \"#utility.yul\":4128:4131   */\n      dup3\n        /* \"#utility.yul\":4121:4140   */\n      mstore\n        /* \"#utility.yul\":4173:4177   */\n      0x20\n        /* \"#utility.yul\":4168:4171   */\n      dup3\n        /* \"#utility.yul\":4164:4178   */\n      add\n        /* \"#utility.yul\":4149:4178   */\n      swap1\n      pop\n        /* \"#utility.yul\":4000:4184   */\n      swap3\n      swap2\n      pop\n      pop\n      jump\t// out\n        /* \"#utility.yul\":4190:4322   */\n    tag_192:\n        /* \"#utility.yul\":4257:4261   */\n      0x00\n        /* \"#utility.yul\":4280:4283   */\n      dup2\n        /* \"#utility.yul\":4272:4283   */\n      swap1\n      pop\n        /* \"#utility.yul\":4310:4314   */\n      0x20\n        /* \"#utility.yul\":4305:4308   */\n      dup3\n        /* \"#utility.yul\":4301:4315   */\n      add\n        /* \"#utility.yul\":4293:4315   */\n      swap1\n      pop\n        /* \"#utility.yul\":4190:4322   */\n      swap2\n      swap1\n      pop\n      jump\t// out\n        /* \"#utility.yul\":4328:4436   */\n    tag_193:\n        /* \"#utility.yul\":4405:4429   */\n      tag_277\n        /* \"#utility.yul\":4423:4428   */\n      dup2\n        /* \"#utility.yul\":4405:4429   */\n      tag_187\n      jump\t// in\n    tag_277:\n        /* \"#utility.yul\":4400:4403   */\n      dup3\n        /* \"#utility.yul\":4393:4430   */\n      mstore\n        /* \"#utility.yul\":4328:4436   */\n      pop\n      pop\n      jump\t// out\n        /* \"#utility.yul\":4442:4621   */\n    tag_194:\n        /* \"#utility.yul\":4511:4521   */\n      0x00\n        /* \"#utility.yul\":4532:4578   */\n      tag_279\n        /* \"#utility.yul\":4574:4577   */\n      dup4\n        /* \"#utility.yul\":4566:4572   */\n      dup4\n        /* \"#utility.yul\":4532:4578   */\n      tag_193\n      jump\t// in\n    tag_279:\n        /* \"#utility.yul\":4610:4614   */\n      0x20\n        /* \"#utility.yul\":4605:4608   */\n      dup4\n        /* \"#utility.yul\":4601:4615   */\n      add\n        /* \"#utility.yul\":4587:4615   */\n      swap1\n      pop\n        /* \"#utility.yul\":4442:4621   */\n      swap3\n      swap2\n      pop\n      pop\n      jump\t// out\n        /* \"#utility.yul\":4627:4740   */\n    tag_195:\n        /* \"#utility.yul\":4697:4701   */\n      0x00\n        /* \"#utility.yul\":4729:4733   */\n      0x20\n        /* \"#utility.yul\":4724:4727   */\n      dup3\n        /* \"#utility.yul\":4720:4734   */\n      add\n        /* \"#utility.yul\":4712:4734   */\n      swap1\n      pop\n        /* \"#utility.yul\":4627:4740   */\n      swap2\n      swap1\n      pop\n      jump\t// out\n        /* \"#utility.yul\":4776:5508   */\n    tag_196:\n        /* \"#utility.yul\":4895:4898   */\n      0x00\n        /* \"#utility.yul\":4924:4978   */\n      tag_282\n        /* \"#utility.yul\":4972:4977   */\n      dup3\n        /* \"#utility.yul\":4924:4978   */\n      tag_190\n      jump\t// in\n    tag_282:\n        /* \"#utility.yul\":4994:5080   */\n      tag_283\n        /* \"#utility.yul\":5073:5079   */\n      dup2\n        /* \"#utility.yul\":5068:5071   */\n      dup6\n        /* \"#utility.yul\":4994:5080   */\n      tag_191\n      jump\t// in\n    tag_283:\n        /* \"#utility.yul\":4987:5080   */\n      swap4\n      pop\n        /* \"#utility.yul\":5104:5160   */\n      tag_284\n        /* \"#utility.yul\":5154:5159   */\n      dup4\n        /* \"#utility.yul\":5104:5160   */\n      tag_192\n      jump\t// in\n    tag_284:\n        /* \"#utility.yul\":5183:5190   */\n      dup1\n        /* \"#utility.yul\":5214:5215   */\n      0x00\n        /* \"#utility.yul\":5199:5483   */\n    tag_285:\n        /* \"#utility.yul\":5224:5230   */\n      dup4\n        /* \"#utility.yul\":5221:5222   */\n      dup2\n        /* \"#utility.yul\":5218:5231   */\n      lt\n        /* \"#utility.yul\":5199:5483   */\n      iszero\n      tag_287\n      jumpi\n        /* \"#utility.yul\":5300:5306   */\n      dup2\n        /* \"#utility.yul\":5294:5307   */\n      mload\n        /* \"#utility.yul\":5327:5390   */\n      tag_288\n        /* \"#utility.yul\":5386:5389   */\n      dup9\n        /* \"#utility.yul\":5371:5384   */\n      dup3\n        /* \"#utility.yul\":5327:5390   */\n      tag_194\n      jump\t// in\n    tag_288:\n        /* \"#utility.yul\":5320:5390   */\n      swap8\n      pop\n        /* \"#utility.yul\":5413:5473   */\n      tag_289\n        /* \"#utility.yul\":5466:5472   */\n      dup4\n        /* \"#utility.yul\":5413:5473   */\n      tag_195\n      jump\t// in\n    tag_289:\n        /* \"#utility.yul\":5403:5473   */\n      swap3\n      pop\n        /* \"#utility.yul\":5259:5483   */\n      pop\n        /* \"#utility.yul\":5246:5247   */\n      0x01\n        /* \"#utility.yul\":5243:5244   */\n      dup2\n        /* \"#utility.yul\":5239:5248   */\n      add\n        /* \"#utility.yul\":5234:5248   */\n      swap1\n      pop\n        /* \"#utility.yul\":5199:5483   */\n      jump(tag_285)\n    tag_287:\n        /* \"#utility.yul\":5203:5217   */\n      pop\n        /* \"#utility.yul\":5499:5502   */\n      dup6\n        /* \"#utility.yul\":5492:5502   */\n      swap4\n      pop\n        /* \"#utility.yul\":4900:5508   */\n      pop\n      pop\n      pop\n        /* \"#utility.yul\":4776:5508   */\n      swap3\n      swap2\n      pop\n      pop\n      jump\t// out\n        /* \"#utility.yul\":5514:6148   */\n    tag_33:\n        /* \"#utility.yul\":5735:5739   */\n      0x00\n        /* \"#utility.yul\":5773:5775   */\n      0x40\n        /* \"#utility.yul\":5762:5771   */\n      dup3\n        /* \"#utility.yul\":5758:5776   */\n      add\n        /* \"#utility.yul\":5750:5776   */\n      swap1\n      pop\n        /* \"#utility.yul\":5822:5831   */\n      dup2\n        /* \"#utility.yul\":5816:5820   */\n      dup2\n        /* \"#utility.yul\":5812:5832   */\n      sub\n        /* \"#utility.yul\":5808:5809   */\n      0x00\n        /* \"#utility.yul\":5797:5806   */\n      dup4\n        /* \"#utility.yul\":5793:5810   */\n      add\n        /* \"#utility.yul\":5786:5833   */\n      mstore\n        /* \"#utility.yul\":5850:5958   */\n      tag_291\n        /* \"#utility.yul\":5953:5957   */\n      dup2\n        /* \"#utility.yul\":5944:5950   */\n      dup6\n        /* \"#utility.yul\":5850:5958   */\n      tag_181\n      jump\t// in\n    tag_291:\n        /* \"#utility.yul\":5842:5958   */\n      swap1\n      pop\n        /* \"#utility.yul\":6005:6014   */\n      dup2\n        /* \"#utility.yul\":5999:6003   */\n      dup2\n        /* \"#utility.yul\":5995:6015   */\n      sub\n        /* \"#utility.yul\":5990:5992   */\n      0x20\n        /* \"#utility.yul\":5979:5988   */\n      dup4\n        /* \"#utility.yul\":5975:5993   */\n      add\n        /* \"#utility.yul\":5968:6016   */\n      mstore\n        /* \"#utility.yul\":6033:6141   */\n      tag_292\n        /* \"#utility.yul\":6136:6140   */\n      dup2\n        /* \"#utility.yul\":6127:6133   */\n      dup5\n        /* \"#utility.yul\":6033:6141   */\n      tag_196\n      jump\t// in\n    tag_292:\n        /* \"#utility.yul\":6025:6141   */\n      swap1\n      pop\n        /* \"#utility.yul\":5514:6148   */\n      swap4\n      swap3\n      pop\n      pop\n      pop\n      jump\t// out\n        /* \"#utility.yul\":6154:6272   */\n    tag_197:\n        /* \"#utility.yul\":6241:6265   */\n      tag_294\n        /* \"#utility.yul\":6259:6264   */\n      dup2\n        /* \"#utility.yul\":6241:6265   */\n      tag_177\n      jump\t// in\n    tag_294:\n        /* \"#utility.yul\":6236:6239   */\n      dup3\n        /* \"#utility.yul\":6229:6266   */\n      mstore\n        /* \"#utility.yul\":6154:6272   */\n      pop\n      pop\n      jump\t// out\n        /* \"#utility.yul\":6278:6500   */\n    tag_40:\n        /* \"#utility.yul\":6371:6375   */\n      0x00\n        /* \"#utility.yul\":6409:6411   */\n      0x20\n        /* \"#utility.yul\":6398:6407   */\n      dup3\n        /* \"#utility.yul\":6394:6412   */\n      add\n        /* \"#utility.yul\":6386:6412   */\n      swap1\n      pop\n        /* \"#utility.yul\":6422:6493   */\n      tag_296\n        /* \"#utility.yul\":6490:6491   */\n      0x00\n        /* \"#utility.yul\":6479:6488   */\n      dup4\n        /* \"#utility.yul\":6475:6492   */\n      add\n        /* \"#utility.yul\":6466:6472   */\n      dup5\n        /* \"#utility.yul\":6422:6493   */\n      tag_197\n      jump\t// in\n    tag_296:\n        /* \"#utility.yul\":6278:6500   */\n      swap3\n      swap2\n      pop\n      pop\n      jump\t// out\n        /* \"#utility.yul\":6506:6686   */\n    tag_44:\n        /* \"#utility.yul\":6554:6631   */\n      0x4e487b7100000000000000000000000000000000000000000000000000000000\n        /* \"#utility.yul\":6551:6552   */\n      0x00\n        /* \"#utility.yul\":6544:6632   */\n      mstore\n        /* \"#utility.yul\":6651:6655   */\n      0x41\n        /* \"#utility.yul\":6648:6649   */\n      0x04\n        /* \"#utility.yul\":6641:6656   */\n      mstore\n        /* \"#utility.yul\":6675:6679   */\n      0x24\n        /* \"#utility.yul\":6672:6673   */\n      0x00\n        /* \"#utility.yul\":6665:6680   */\n      revert\n        /* \"#utility.yul\":6692:6872   */\n    tag_51:\n        /* \"#utility.yul\":6740:6817   */\n      0x4e487b7100000000000000000000000000000000000000000000000000000000\n        /* \"#utility.yul\":6737:6738   */\n      0x00\n        /* \"#utility.yul\":6730:6818   */\n      mstore\n        /* \"#utility.yul\":6837:6841   */\n      0x32\n        /* \"#utility.yul\":6834:6835   */\n      0x04\n        /* \"#utility.yul\":6827:6842   */\n      mstore\n        /* \"#utility.yul\":6861:6865   */\n      0x24\n        /* \"#utility.yul\":6858:6859   */\n      0x00\n        /* \"#utility.yul\":6851:6866   */\n      revert\n        /* \"#utility.yul\":6878:7047   */\n    tag_198:\n        /* \"#utility.yul\":6962:6973   */\n      0x00\n        /* \"#utility.yul\":6996:7002   */\n      dup3\n        /* \"#utility.yul\":6991:6994   */\n      dup3\n        /* \"#utility.yul\":6984:7003   */\n      mstore\n        /* \"#utility.yul\":7036:7040   */\n      0x20\n        /* \"#utility.yul\":7031:7034   */\n      dup3\n        /* \"#utility.yul\":7027:7041   */\n      add\n        /* \"#utility.yul\":7012:7041   */\n      swap1\n      pop\n        /* \"#utility.yul\":6878:7047   */\n      swap3\n      swap2\n      pop\n      pop\n      jump\t// out\n        /* \"#utility.yul\":7053:7229   */\n    tag_199:\n        /* \"#utility.yul\":7193:7221   */\n      0x54686520766f74696e672073657373696f6e206973206f70656e000000000000\n        /* \"#utility.yul\":7189:7190   */\n      0x00\n        /* \"#utility.yul\":7181:7187   */\n      dup3\n        /* \"#utility.yul\":7177:7191   */\n      add\n        /* \"#utility.yul\":7170:7222   */\n      mstore\n        /* \"#utility.yul\":7053:7229   */\n      pop\n      jump\t// out\n        /* \"#utility.yul\":7235:7601   */\n    tag_200:\n        /* \"#utility.yul\":7377:7380   */\n      0x00\n        /* \"#utility.yul\":7398:7465   */\n      tag_302\n        /* \"#utility.yul\":7462:7464   */\n      0x1a\n        /* \"#utility.yul\":7457:7460   */\n      dup4\n        /* \"#utility.yul\":7398:7465   */\n      tag_198\n      jump\t// in\n    tag_302:\n        /* \"#utility.yul\":7391:7465   */\n      swap2\n      pop\n        /* \"#utility.yul\":7474:7567   */\n      tag_303\n        /* \"#utility.yul\":7563:7566   */\n      dup3\n        /* \"#utility.yul\":7474:7567   */\n      tag_199\n      jump\t// in\n    tag_303:\n        /* \"#utility.yul\":7592:7594   */\n      0x20\n        /* \"#utility.yul\":7587:7590   */\n      dup3\n        /* \"#utility.yul\":7583:7595   */\n      add\n        /* \"#utility.yul\":7576:7595   */\n      swap1\n      pop\n        /* \"#utility.yul\":7235:7601   */\n      swap2\n      swap1\n      pop\n      jump\t// out\n        /* \"#utility.yul\":7607:8026   */\n    tag_58:\n        /* \"#utility.yul\":7773:7777   */\n      0x00\n        /* \"#utility.yul\":7811:7813   */\n      0x20\n        /* \"#utility.yul\":7800:7809   */\n      dup3\n        /* \"#utility.yul\":7796:7814   */\n      add\n        /* \"#utility.yul\":7788:7814   */\n      swap1\n      pop\n        /* \"#utility.yul\":7860:7869   */\n      dup2\n        /* \"#utility.yul\":7854:7858   */\n      dup2\n        /* \"#utility.yul\":7850:7870   */\n      sub\n        /* \"#utility.yul\":7846:7847   */\n      0x00\n        /* \"#utility.yul\":7835:7844   */\n      dup4\n        /* \"#utility.yul\":7831:7848   */\n      add\n        /* \"#utility.yul\":7824:7871   */\n      mstore\n        /* \"#utility.yul\":7888:8019   */\n      tag_305\n        /* \"#utility.yul\":8014:8018   */\n      dup2\n        /* \"#utility.yul\":7888:8019   */\n      tag_200\n      jump\t// in\n    tag_305:\n        /* \"#utility.yul\":7880:8019   */\n      swap1\n      pop\n        /* \"#utility.yul\":7607:8026   */\n      swap2\n      swap1\n      pop\n      jump\t// out\n        /* \"#utility.yul\":8032:8252   */\n    tag_201:\n        /* \"#utility.yul\":8172:8206   */\n      0x596f7520646f206e6f7420686176652074686520726967687420746f20766f74\n        /* \"#utility.yul\":8168:8169   */\n      0x00\n        /* \"#utility.yul\":8160:8166   */\n      dup3\n        /* \"#utility.yul\":8156:8170   */\n      add\n        /* \"#utility.yul\":8149:8207   */\n      mstore\n        /* \"#utility.yul\":8241:8244   */\n      0x6500000000000000000000000000000000000000000000000000000000000000\n        /* \"#utility.yul\":8236:8238   */\n      0x20\n        /* \"#utility.yul\":8228:8234   */\n      dup3\n        /* \"#utility.yul\":8224:8239   */\n      add\n        /* \"#utility.yul\":8217:8245   */\n      mstore\n        /* \"#utility.yul\":8032:8252   */\n      pop\n      jump\t// out\n        /* \"#utility.yul\":8258:8624   */\n    tag_202:\n        /* \"#utility.yul\":8400:8403   */\n      0x00\n        /* \"#utility.yul\":8421:8488   */\n      tag_308\n        /* \"#utility.yul\":8485:8487   */\n      0x21\n        /* \"#utility.yul\":8480:8483   */\n      dup4\n        /* \"#utility.yul\":8421:8488   */\n      tag_198\n      jump\t// in\n    tag_308:\n        /* \"#utility.yul\":8414:8488   */\n      swap2\n      pop\n        /* \"#utility.yul\":8497:8590   */\n      tag_309\n        /* \"#utility.yul\":8586:8589   */\n      dup3\n        /* \"#utility.yul\":8497:8590   */\n      tag_201\n      jump\t// in\n    tag_309:\n        /* \"#utility.yul\":8615:8617   */\n      0x40\n        /* \"#utility.yul\":8610:8613   */\n      dup3\n        /* \"#utility.yul\":8606:8618   */\n      add\n        /* \"#utility.yul\":8599:8618   */\n      swap1\n      pop\n        /* \"#utility.yul\":8258:8624   */\n      swap2\n      swap1\n      pop\n      jump\t// out\n        /* \"#utility.yul\":8630:9049   */\n    tag_62:\n        /* \"#utility.yul\":8796:8800   */\n      0x00\n        /* \"#utility.yul\":8834:8836   */\n      0x20\n        /* \"#utility.yul\":8823:8832   */\n      dup3\n        /* \"#utility.yul\":8819:8837   */\n      add\n        /* \"#utility.yul\":8811:8837   */\n      swap1\n      pop\n        /* \"#utility.yul\":8883:8892   */\n      dup2\n        /* \"#utility.yul\":8877:8881   */\n      dup2\n        /* \"#utility.yul\":8873:8893   */\n      sub\n        /* \"#utility.yul\":8869:8870   */\n      0x00\n        /* \"#utility.yul\":8858:8867   */\n      dup4\n        /* \"#utility.yul\":8854:8871   */\n      add\n        /* \"#utility.yul\":8847:8894   */\n      mstore\n        /* \"#utility.yul\":8911:9042   */\n      tag_311\n        /* \"#utility.yul\":9037:9041   */\n      dup2\n        /* \"#utility.yul\":8911:9042   */\n      tag_202\n      jump\t// in\n    tag_311:\n        /* \"#utility.yul\":8903:9042   */\n      swap1\n      pop\n        /* \"#utility.yul\":8630:9049   */\n      swap2\n      swap1\n      pop\n      jump\t// out\n        /* \"#utility.yul\":9055:9227   */\n    tag_203:\n        /* \"#utility.yul\":9195:9219   */\n      0x596f75206861766520616c726561647920766f74656400000000000000000000\n        /* \"#utility.yul\":9191:9192   */\n      0x00\n        /* \"#utility.yul\":9183:9189   */\n      dup3\n        /* \"#utility.yul\":9179:9193   */\n      add\n        /* \"#utility.yul\":9172:9220   */\n      mstore\n        /* \"#utility.yul\":9055:9227   */\n      pop\n      jump\t// out\n        /* \"#utility.yul\":9233:9599   */\n    tag_204:\n        /* \"#utility.yul\":9375:9378   */\n      0x00\n        /* \"#utility.yul\":9396:9463   */\n      tag_314\n        /* \"#utility.yul\":9460:9462   */\n      0x16\n        /* \"#utility.yul\":9455:9458   */\n      dup4\n        /* \"#utility.yul\":9396:9463   */\n      tag_198\n      jump\t// in\n    tag_314:\n        /* \"#utility.yul\":9389:9463   */\n      swap2\n      pop\n        /* \"#utility.yul\":9472:9565   */\n      tag_315\n        /* \"#utility.yul\":9561:9564   */\n      dup3\n        /* \"#utility.yul\":9472:9565   */\n      tag_203\n      jump\t// in\n    tag_315:\n        /* \"#utility.yul\":9590:9592   */\n      0x20\n        /* \"#utility.yul\":9585:9588   */\n      dup3\n        /* \"#utility.yul\":9581:9593   */\n      add\n        /* \"#utility.yul\":9574:9593   */\n      swap1\n      pop\n        /* \"#utility.yul\":9233:9599   */\n      swap2\n      swap1\n      pop\n      jump\t// out\n        /* \"#utility.yul\":9605:10024   */\n    tag_65:\n        /* \"#utility.yul\":9771:9775   */\n      0x00\n        /* \"#utility.yul\":9809:9811   */\n      0x20\n        /* \"#utility.yul\":9798:9807   */\n      dup3\n        /* \"#utility.yul\":9794:9812   */\n      add\n        /* \"#utility.yul\":9786:9812   */\n      swap1\n      pop\n        /* \"#utility.yul\":9858:9867   */\n      dup2\n        /* \"#utility.yul\":9852:9856   */\n      dup2\n        /* \"#utility.yul\":9848:9868   */\n      sub\n        /* \"#utility.yul\":9844:9845   */\n      0x00\n        /* \"#utility.yul\":9833:9842   */\n      dup4\n        /* \"#utility.yul\":9829:9846   */\n      add\n        /* \"#utility.yul\":9822:9869   */\n      mstore\n        /* \"#utility.yul\":9886:10017   */\n      tag_317\n        /* \"#utility.yul\":10012:10016   */\n      dup2\n        /* \"#utility.yul\":9886:10017   */\n      tag_204\n      jump\t// in\n    tag_317:\n        /* \"#utility.yul\":9878:10017   */\n      swap1\n      pop\n        /* \"#utility.yul\":9605:10024   */\n      swap2\n      swap1\n      pop\n      jump\t// out\n        /* \"#utility.yul\":10030:10210   */\n    tag_205:\n        /* \"#utility.yul\":10170:10202   */\n      0x596f752061726520612064656c656761746520666f7220736f6d656f6e650000\n        /* \"#utility.yul\":10166:10167   */\n      0x00\n        /* \"#utility.yul\":10158:10164   */\n      dup3\n        /* \"#utility.yul\":10154:10168   */\n      add\n        /* \"#utility.yul\":10147:10203   */\n      mstore\n        /* \"#utility.yul\":10030:10210   */\n      pop\n      jump\t// out\n        /* \"#utility.yul\":10216:10582   */\n    tag_206:\n        /* \"#utility.yul\":10358:10361   */\n      0x00\n        /* \"#utility.yul\":10379:10446   */\n      tag_320\n        /* \"#utility.yul\":10443:10445   */\n      0x1e\n        /* \"#utility.yul\":10438:10441   */\n      dup4\n        /* \"#utility.yul\":10379:10446   */\n      tag_198\n      jump\t// in\n    tag_320:\n        /* \"#utility.yul\":10372:10446   */\n      swap2\n      pop\n        /* \"#utility.yul\":10455:10548   */\n      tag_321\n        /* \"#utility.yul\":10544:10547   */\n      dup3\n        /* \"#utility.yul\":10455:10548   */\n      tag_205\n      jump\t// in\n    tag_321:\n        /* \"#utility.yul\":10573:10575   */\n      0x20\n        /* \"#utility.yul\":10568:10571   */\n      dup3\n        /* \"#utility.yul\":10564:10576   */\n      add\n        /* \"#utility.yul\":10557:10576   */\n      swap1\n      pop\n        /* \"#utility.yul\":10216:10582   */\n      swap2\n      swap1\n      pop\n      jump\t// out\n        /* \"#utility.yul\":10588:11007   */\n    tag_68:\n        /* \"#utility.yul\":10754:10758   */\n      0x00\n        /* \"#utility.yul\":10792:10794   */\n      0x20\n        /* \"#utility.yul\":10781:10790   */\n      dup3\n        /* \"#utility.yul\":10777:10795   */\n      add\n        /* \"#utility.yul\":10769:10795   */\n      swap1\n      pop\n        /* \"#utility.yul\":10841:10850   */\n      dup2\n        /* \"#utility.yul\":10835:10839   */\n      dup2\n        /* \"#utility.yul\":10831:10851   */\n      sub\n        /* \"#utility.yul\":10827:10828   */\n      0x00\n        /* \"#utility.yul\":10816:10825   */\n      dup4\n        /* \"#utility.yul\":10812:10829   */\n      add\n        /* \"#utility.yul\":10805:10852   */\n      mstore\n        /* \"#utility.yul\":10869:11000   */\n      tag_323\n        /* \"#utility.yul\":10995:10999   */\n      dup2\n        /* \"#utility.yul\":10869:11000   */\n      tag_206\n      jump\t// in\n    tag_323:\n        /* \"#utility.yul\":10861:11000   */\n      swap1\n      pop\n        /* \"#utility.yul\":10588:11007   */\n      swap2\n      swap1\n      pop\n      jump\t// out\n        /* \"#utility.yul\":11013:11242   */\n    tag_207:\n        /* \"#utility.yul\":11153:11187   */\n      0x596f752063616e6e6f74206d616b65206120766f74696e672070726f78792074\n        /* \"#utility.yul\":11149:11150   */\n      0x00\n        /* \"#utility.yul\":11141:11147   */\n      dup3\n        /* \"#utility.yul\":11137:11151   */\n      add\n        /* \"#utility.yul\":11130:11188   */\n      mstore\n        /* \"#utility.yul\":11222:11234   */\n      0x6f20796f757273656c6600000000000000000000000000000000000000000000\n        /* \"#utility.yul\":11217:11219   */\n      0x20\n        /* \"#utility.yul\":11209:11215   */\n      dup3\n        /* \"#utility.yul\":11205:11220   */\n      add\n        /* \"#utility.yul\":11198:11235   */\n      mstore\n        /* \"#utility.yul\":11013:11242   */\n      pop\n      jump\t// out\n        /* \"#utility.yul\":11248:11614   */\n    tag_208:\n        /* \"#utility.yul\":11390:11393   */\n      0x00\n        /* \"#utility.yul\":11411:11478   */\n      tag_326\n        /* \"#utility.yul\":11475:11477   */\n      0x2a\n        /* \"#utility.yul\":11470:11473   */\n      dup4\n        /* \"#utility.yul\":11411:11478   */\n      tag_198\n      jump\t// in\n    tag_326:\n        /* \"#utility.yul\":11404:11478   */\n      swap2\n      pop\n        /* \"#utility.yul\":11487:11580   */\n      tag_327\n        /* \"#utility.yul\":11576:11579   */\n      dup3\n        /* \"#utility.yul\":11487:11580   */\n      tag_207\n      jump\t// in\n    tag_327:\n        /* \"#utility.yul\":11605:11607   */\n      0x40\n        /* \"#utility.yul\":11600:11603   */\n      dup3\n        /* \"#utility.yul\":11596:11608   */\n      add\n        /* \"#utility.yul\":11589:11608   */\n      swap1\n      pop\n        /* \"#utility.yul\":11248:11614   */\n      swap2\n      swap1\n      pop\n      jump\t// out\n        /* \"#utility.yul\":11620:12039   */\n    tag_71:\n        /* \"#utility.yul\":11786:11790   */\n      0x00\n        /* \"#utility.yul\":11824:11826   */\n      0x20\n        /* \"#utility.yul\":11813:11822   */\n      dup3\n        /* \"#utility.yul\":11809:11827   */\n      add\n        /* \"#utility.yul\":11801:11827   */\n      swap1\n      pop\n        /* \"#utility.yul\":11873:11882   */\n      dup2\n        /* \"#utility.yul\":11867:11871   */\n      dup2\n        /* \"#utility.yul\":11863:11883   */\n      sub\n        /* \"#utility.yul\":11859:11860   */\n      0x00\n        /* \"#utility.yul\":11848:11857   */\n      dup4\n        /* \"#utility.yul\":11844:11861   */\n      add\n        /* \"#utility.yul\":11837:11884   */\n      mstore\n        /* \"#utility.yul\":11901:12032   */\n      tag_329\n        /* \"#utility.yul\":12027:12031   */\n      dup2\n        /* \"#utility.yul\":11901:12032   */\n      tag_208\n      jump\t// in\n    tag_329:\n        /* \"#utility.yul\":11893:12032   */\n      swap1\n      pop\n        /* \"#utility.yul\":11620:12039   */\n      swap2\n      swap1\n      pop\n      jump\t// out\n        /* \"#utility.yul\":12045:12275   */\n    tag_209:\n        /* \"#utility.yul\":12185:12219   */\n      0x5468697320706572736f6e20646f6573206e6f74206861766520746865207269\n        /* \"#utility.yul\":12181:12182   */\n      0x00\n        /* \"#utility.yul\":12173:12179   */\n      dup3\n        /* \"#utility.yul\":12169:12183   */\n      add\n        /* \"#utility.yul\":12162:12220   */\n      mstore\n        /* \"#utility.yul\":12254:12267   */\n      0x67687420746f20766f7465000000000000000000000000000000000000000000\n        /* \"#utility.yul\":12249:12251   */\n      0x20\n        /* \"#utility.yul\":12241:12247   */\n      dup3\n        /* \"#utility.yul\":12237:12252   */\n      add\n        /* \"#utility.yul\":12230:12268   */\n      mstore\n        /* \"#utility.yul\":12045:12275   */\n      pop\n      jump\t// out\n        /* \"#utility.yul\":12281:12647   */\n    tag_210:\n        /* \"#utility.yul\":12423:12426   */\n      0x00\n        /* \"#utility.yul\":12444:12511   */\n      tag_332\n        /* \"#utility.yul\":12508:12510   */\n      0x2b\n        /* \"#utility.yul\":12503:12506   */\n      dup4\n        /* \"#utility.yul\":12444:12511   */\n      tag_198\n      jump\t// in\n    tag_332:\n        /* \"#utility.yul\":12437:12511   */\n      swap2\n      pop\n        /* \"#utility.yul\":12520:12613   */\n      tag_333\n        /* \"#utility.yul\":12609:12612   */\n      dup3\n        /* \"#utility.yul\":12520:12613   */\n      tag_209\n      jump\t// in\n    tag_333:\n        /* \"#utility.yul\":12638:12640   */\n      0x40\n        /* \"#utility.yul\":12633:12636   */\n      dup3\n        /* \"#utility.yul\":12629:12641   */\n      add\n        /* \"#utility.yul\":12622:12641   */\n      swap1\n      pop\n        /* \"#utility.yul\":12281:12647   */\n      swap2\n      swap1\n      pop\n      jump\t// out\n        /* \"#utility.yul\":12653:13072   */\n    tag_74:\n        /* \"#utility.yul\":12819:12823   */\n      0x00\n        /* \"#utility.yul\":12857:12859   */\n      0x20\n        /* \"#utility.yul\":12846:12855   */\n      dup3\n        /* \"#utility.yul\":12842:12860   */\n      add\n        /* \"#utility.yul\":12834:12860   */\n      swap1\n      pop\n        /* \"#utility.yul\":12906:12915   */\n      dup2\n        /* \"#utility.yul\":12900:12904   */\n      dup2\n        /* \"#utility.yul\":12896:12916   */\n      sub\n        /* \"#utility.yul\":12892:12893   */\n      0x00\n        /* \"#utility.yul\":12881:12890   */\n      dup4\n        /* \"#utility.yul\":12877:12894   */\n      add\n        /* \"#utility.yul\":12870:12917   */\n      mstore\n        /* \"#utility.yul\":12934:13065   */\n      tag_335\n        /* \"#utility.yul\":13060:13064   */\n      dup2\n        /* \"#utility.yul\":12934:13065   */\n      tag_210\n      jump\t// in\n    tag_335:\n        /* \"#utility.yul\":12926:13065   */\n      swap1\n      pop\n        /* \"#utility.yul\":12653:13072   */\n      swap2\n      swap1\n      pop\n      jump\t// out\n        /* \"#utility.yul\":13078:13310   */\n    tag_211:\n        /* \"#utility.yul\":13218:13252   */\n      0x5468697320706572736f6e20697320616c726561647920612064656c65676174\n        /* \"#utility.yul\":13214:13215   */\n      0x00\n        /* \"#utility.yul\":13206:13212   */\n      dup3\n        /* \"#utility.yul\":13202:13216   */\n      add\n        /* \"#utility.yul\":13195:13253   */\n      mstore\n        /* \"#utility.yul\":13287:13302   */\n      0x6520666f7220736f6d656f6e6500000000000000000000000000000000000000\n        /* \"#utility.yul\":13282:13284   */\n      0x20\n        /* \"#utility.yul\":13274:13280   */\n      dup3\n        /* \"#utility.yul\":13270:13285   */\n      add\n        /* \"#utility.yul\":13263:13303   */\n      mstore\n        /* \"#utility.yul\":13078:13310   */\n      pop\n      jump\t// out\n        /* \"#utility.yul\":13316:13682   */\n    tag_212:\n        /* \"#utility.yul\":13458:13461   */\n      0x00\n        /* \"#utility.yul\":13479:13546   */\n      tag_338\n        /* \"#utility.yul\":13543:13545   */\n      0x2d\n        /* \"#utility.yul\":13538:13541   */\n      dup4\n        /* \"#utility.yul\":13479:13546   */\n      tag_198\n      jump\t// in\n    tag_338:\n        /* \"#utility.yul\":13472:13546   */\n      swap2\n      pop\n        /* \"#utility.yul\":13555:13648   */\n      tag_339\n        /* \"#utility.yul\":13644:13647   */\n      dup3\n        /* \"#utility.yul\":13555:13648   */\n      tag_211\n      jump\t// in\n    tag_339:\n        /* \"#utility.yul\":13673:13675   */\n      0x40\n        /* \"#utility.yul\":13668:13671   */\n      dup3\n        /* \"#utility.yul\":13664:13676   */\n      add\n        /* \"#utility.yul\":13657:13676   */\n      swap1\n      pop\n        /* \"#utility.yul\":13316:13682   */\n      swap2\n      swap1\n      pop\n      jump\t// out\n        /* \"#utility.yul\":13688:14107   */\n    tag_77:\n        /* \"#utility.yul\":13854:13858   */\n      0x00\n        /* \"#utility.yul\":13892:13894   */\n      0x20\n        /* \"#utility.yul\":13881:13890   */\n      dup3\n        /* \"#utility.yul\":13877:13895   */\n      add\n        /* \"#utility.yul\":13869:13895   */\n      swap1\n      pop\n        /* \"#utility.yul\":13941:13950   */\n      dup2\n        /* \"#utility.yul\":13935:13939   */\n      dup2\n        /* \"#utility.yul\":13931:13951   */\n      sub\n        /* \"#utility.yul\":13927:13928   */\n      0x00\n        /* \"#utility.yul\":13916:13925   */\n      dup4\n        /* \"#utility.yul\":13912:13929   */\n      add\n        /* \"#utility.yul\":13905:13952   */\n      mstore\n        /* \"#utility.yul\":13969:14100   */\n      tag_341\n        /* \"#utility.yul\":14095:14099   */\n      dup2\n        /* \"#utility.yul\":13969:14100   */\n      tag_212\n      jump\t// in\n    tag_341:\n        /* \"#utility.yul\":13961:14100   */\n      swap1\n      pop\n        /* \"#utility.yul\":13688:14107   */\n      swap2\n      swap1\n      pop\n      jump\t// out\n        /* \"#utility.yul\":14113:14293   */\n    tag_213:\n        /* \"#utility.yul\":14161:14238   */\n      0x4e487b7100000000000000000000000000000000000000000000000000000000\n        /* \"#utility.yul\":14158:14159   */\n      0x00\n        /* \"#utility.yul\":14151:14239   */\n      mstore\n        /* \"#utility.yul\":14258:14262   */\n      0x11\n        /* \"#utility.yul\":14255:14256   */\n      0x04\n        /* \"#utility.yul\":14248:14263   */\n      mstore\n        /* \"#utility.yul\":14282:14286   */\n      0x24\n        /* \"#utility.yul\":14279:14280   */\n      0x00\n        /* \"#utility.yul\":14272:14287   */\n      revert\n        /* \"#utility.yul\":14299:14490   */\n    tag_79:\n        /* \"#utility.yul\":14339:14342   */\n      0x00\n        /* \"#utility.yul\":14358:14378   */\n      tag_344\n        /* \"#utility.yul\":14376:14377   */\n      dup3\n        /* \"#utility.yul\":14358:14378   */\n      tag_187\n      jump\t// in\n    tag_344:\n        /* \"#utility.yul\":14353:14378   */\n      swap2\n      pop\n        /* \"#utility.yul\":14392:14412   */\n      tag_345\n        /* \"#utility.yul\":14410:14411   */\n      dup4\n        /* \"#utility.yul\":14392:14412   */\n      tag_187\n      jump\t// in\n    tag_345:\n        /* \"#utility.yul\":14387:14412   */\n      swap3\n      pop\n        /* \"#utility.yul\":14435:14436   */\n      dup3\n        /* \"#utility.yul\":14432:14433   */\n      dup3\n        /* \"#utility.yul\":14428:14437   */\n      add\n        /* \"#utility.yul\":14421:14437   */\n      swap1\n      pop\n        /* \"#utility.yul\":14456:14459   */\n      dup1\n        /* \"#utility.yul\":14453:14454   */\n      dup3\n        /* \"#utility.yul\":14450:14460   */\n      gt\n        /* \"#utility.yul\":14447:14483   */\n      iszero\n      tag_346\n      jumpi\n        /* \"#utility.yul\":14463:14481   */\n      tag_347\n      tag_213\n      jump\t// in\n    tag_347:\n        /* \"#utility.yul\":14447:14483   */\n    tag_346:\n        /* \"#utility.yul\":14299:14490   */\n      swap3\n      swap2\n      pop\n      pop\n      jump\t// out\n        /* \"#utility.yul\":14496:14674   */\n    tag_214:\n        /* \"#utility.yul\":14636:14666   */\n      0x54686520766f74696e672073657373696f6e20697320636c6f73656400000000\n        /* \"#utility.yul\":14632:14633   */\n      0x00\n        /* \"#utility.yul\":14624:14630   */\n      dup3\n        /* \"#utility.yul\":14620:14634   */\n      add\n        /* \"#utility.yul\":14613:14667   */\n      mstore\n        /* \"#utility.yul\":14496:14674   */\n      pop\n      jump\t// out\n        /* \"#utility.yul\":14680:15046   */\n    tag_215:\n        /* \"#utility.yul\":14822:14825   */\n      0x00\n        /* \"#utility.yul\":14843:14910   */\n      tag_350\n        /* \"#utility.yul\":14907:14909   */\n      0x1c\n        /* \"#utility.yul\":14902:14905   */\n      dup4\n        /* \"#utility.yul\":14843:14910   */\n      tag_198\n      jump\t// in\n    tag_350:\n        /* \"#utility.yul\":14836:14910   */\n      swap2\n      pop\n        /* \"#utility.yul\":14919:15012   */\n      tag_351\n        /* \"#utility.yul\":15008:15011   */\n      dup3\n        /* \"#utility.yul\":14919:15012   */\n      tag_214\n      jump\t// in\n    tag_351:\n        /* \"#utility.yul\":15037:15039   */\n      0x20\n        /* \"#utility.yul\":15032:15035   */\n      dup3\n        /* \"#utility.yul\":15028:15040   */\n      add\n        /* \"#utility.yul\":15021:15040   */\n      swap1\n      pop\n        /* \"#utility.yul\":14680:15046   */\n      swap2\n      swap1\n      pop\n      jump\t// out\n        /* \"#utility.yul\":15052:15471   */\n    tag_83:\n        /* \"#utility.yul\":15218:15222   */\n      0x00\n        /* \"#utility.yul\":15256:15258   */\n      0x20\n        /* \"#utility.yul\":15245:15254   */\n      dup3\n        /* \"#utility.yul\":15241:15259   */\n      add\n        /* \"#utility.yul\":15233:15259   */\n      swap1\n      pop\n        /* \"#utility.yul\":15305:15314   */\n      dup2\n        /* \"#utility.yul\":15299:15303   */\n      dup2\n        /* \"#utility.yul\":15295:15315   */\n      sub\n        /* \"#utility.yul\":15291:15292   */\n      0x00\n        /* \"#utility.yul\":15280:15289   */\n      dup4\n        /* \"#utility.yul\":15276:15293   */\n      add\n        /* \"#utility.yul\":15269:15316   */\n      mstore\n        /* \"#utility.yul\":15333:15464   */\n      tag_353\n        /* \"#utility.yul\":15459:15463   */\n      dup2\n        /* \"#utility.yul\":15333:15464   */\n      tag_215\n      jump\t// in\n    tag_353:\n        /* \"#utility.yul\":15325:15464   */\n      swap1\n      pop\n        /* \"#utility.yul\":15052:15471   */\n      swap2\n      swap1\n      pop\n      jump\t// out\n        /* \"#utility.yul\":15477:15699   */\n    tag_216:\n        /* \"#utility.yul\":15617:15651   */\n      0x596f75206861766520676976656e20796f757220766f746520746f20736f6d65\n        /* \"#utility.yul\":15613:15614   */\n      0x00\n        /* \"#utility.yul\":15605:15611   */\n      dup3\n        /* \"#utility.yul\":15601:15615   */\n      add\n        /* \"#utility.yul\":15594:15652   */\n      mstore\n        /* \"#utility.yul\":15686:15691   */\n      0x6f6e650000000000000000000000000000000000000000000000000000000000\n        /* \"#utility.yul\":15681:15683   */\n      0x20\n        /* \"#utility.yul\":15673:15679   */\n      dup3\n        /* \"#utility.yul\":15669:15684   */\n      add\n        /* \"#utility.yul\":15662:15692   */\n      mstore\n        /* \"#utility.yul\":15477:15699   */\n      pop\n      jump\t// out\n        /* \"#utility.yul\":15705:16071   */\n    tag_217:\n        /* \"#utility.yul\":15847:15850   */\n      0x00\n        /* \"#utility.yul\":15868:15935   */\n      tag_356\n        /* \"#utility.yul\":15932:15934   */\n      0x23\n        /* \"#utility.yul\":15927:15930   */\n      dup4\n        /* \"#utility.yul\":15868:15935   */\n      tag_198\n      jump\t// in\n    tag_356:\n        /* \"#utility.yul\":15861:15935   */\n      swap2\n      pop\n        /* \"#utility.yul\":15944:16037   */\n      tag_357\n        /* \"#utility.yul\":16033:16036   */\n      dup3\n        /* \"#utility.yul\":15944:16037   */\n      tag_216\n      jump\t// in\n    tag_357:\n        /* \"#utility.yul\":16062:16064   */\n      0x40\n        /* \"#utility.yul\":16057:16060   */\n      dup3\n        /* \"#utility.yul\":16053:16065   */\n      add\n        /* \"#utility.yul\":16046:16065   */\n      swap1\n      pop\n        /* \"#utility.yul\":15705:16071   */\n      swap2\n      swap1\n      pop\n      jump\t// out\n        /* \"#utility.yul\":16077:16496   */\n    tag_87:\n        /* \"#utility.yul\":16243:16247   */\n      0x00\n        /* \"#utility.yul\":16281:16283   */\n      0x20\n        /* \"#utility.yul\":16270:16279   */\n      dup3\n        /* \"#utility.yul\":16266:16284   */\n      add\n        /* \"#utility.yul\":16258:16284   */\n      swap1\n      pop\n        /* \"#utility.yul\":16330:16339   */\n      dup2\n        /* \"#utility.yul\":16324:16328   */\n      dup2\n        /* \"#utility.yul\":16320:16340   */\n      sub\n        /* \"#utility.yul\":16316:16317   */\n      0x00\n        /* \"#utility.yul\":16305:16314   */\n      dup4\n        /* \"#utility.yul\":16301:16318   */\n      add\n        /* \"#utility.yul\":16294:16341   */\n      mstore\n        /* \"#utility.yul\":16358:16489   */\n      tag_359\n        /* \"#utility.yul\":16484:16488   */\n      dup2\n        /* \"#utility.yul\":16358:16489   */\n      tag_217\n      jump\t// in\n    tag_359:\n        /* \"#utility.yul\":16350:16489   */\n      swap1\n      pop\n        /* \"#utility.yul\":16077:16496   */\n      swap2\n      swap1\n      pop\n      jump\t// out\n        /* \"#utility.yul\":16502:16682   */\n    tag_218:\n        /* \"#utility.yul\":16642:16674   */\n      0x5468697320706572736f6e206973206e6f7420612063616e6469646174650000\n        /* \"#utility.yul\":16638:16639   */\n      0x00\n        /* \"#utility.yul\":16630:16636   */\n      dup3\n        /* \"#utility.yul\":16626:16640   */\n      add\n        /* \"#utility.yul\":16619:16675   */\n      mstore\n        /* \"#utility.yul\":16502:16682   */\n      pop\n      jump\t// out\n        /* \"#utility.yul\":16688:17054   */\n    tag_219:\n        /* \"#utility.yul\":16830:16833   */\n      0x00\n        /* \"#utility.yul\":16851:16918   */\n      tag_362\n        /* \"#utility.yul\":16915:16917   */\n      0x1e\n        /* \"#utility.yul\":16910:16913   */\n      dup4\n        /* \"#utility.yul\":16851:16918   */\n      tag_198\n      jump\t// in\n    tag_362:\n        /* \"#utility.yul\":16844:16918   */\n      swap2\n      pop\n        /* \"#utility.yul\":16927:17020   */\n      tag_363\n        /* \"#utility.yul\":17016:17019   */\n      dup3\n        /* \"#utility.yul\":16927:17020   */\n      tag_218\n      jump\t// in\n    tag_363:\n        /* \"#utility.yul\":17045:17047   */\n      0x20\n        /* \"#utility.yul\":17040:17043   */\n      dup3\n        /* \"#utility.yul\":17036:17048   */\n      add\n        /* \"#utility.yul\":17029:17048   */\n      swap1\n      pop\n        /* \"#utility.yul\":16688:17054   */\n      swap2\n      swap1\n      pop\n      jump\t// out\n        /* \"#utility.yul\":17060:17479   */\n    tag_96:\n        /* \"#utility.yul\":17226:17230   */\n      0x00\n        /* \"#utility.yul\":17264:17266   */\n      0x20\n        /* \"#utility.yul\":17253:17262   */\n      dup3\n        /* \"#utility.yul\":17249:17267   */\n      add\n        /* \"#utility.yul\":17241:17267   */\n      swap1\n      pop\n        /* \"#utility.yul\":17313:17322   */\n      dup2\n        /* \"#utility.yul\":17307:17311   */\n      dup2\n        /* \"#utility.yul\":17303:17323   */\n      sub\n        /* \"#utility.yul\":17299:17300   */\n      0x00\n        /* \"#utility.yul\":17288:17297   */\n      dup4\n        /* \"#utility.yul\":17284:17301   */\n      add\n        /* \"#utility.yul\":17277:17324   */\n      mstore\n        /* \"#utility.yul\":17341:17472   */\n      tag_365\n        /* \"#utility.yul\":17467:17471   */\n      dup2\n        /* \"#utility.yul\":17341:17472   */\n      tag_219\n      jump\t// in\n    tag_365:\n        /* \"#utility.yul\":17333:17472   */\n      swap1\n      pop\n        /* \"#utility.yul\":17060:17479   */\n      swap2\n      swap1\n      pop\n      jump\t// out\n        /* \"#utility.yul\":17485:17718   */\n    tag_108:\n        /* \"#utility.yul\":17524:17527   */\n      0x00\n        /* \"#utility.yul\":17547:17571   */\n      tag_367\n        /* \"#utility.yul\":17565:17570   */\n      dup3\n        /* \"#utility.yul\":17547:17571   */\n      tag_187\n      jump\t// in\n    tag_367:\n        /* \"#utility.yul\":17538:17571   */\n      swap2\n      pop\n        /* \"#utility.yul\":17593:17659   */\n      0xffffffffffffffffffffffffffffffffffffffffffffffffffffffffffffffff\n        /* \"#utility.yul\":17586:17591   */\n      dup3\n        /* \"#utility.yul\":17583:17660   */\n      sub\n        /* \"#utility.yul\":17580:17683   */\n      tag_368\n      jumpi\n        /* \"#utility.yul\":17663:17681   */\n      tag_369\n      tag_213\n      jump\t// in\n    tag_369:\n        /* \"#utility.yul\":17580:17683   */\n    tag_368:\n        /* \"#utility.yul\":17710:17711   */\n      0x01\n        /* \"#utility.yul\":17703:17708   */\n      dup3\n        /* \"#utility.yul\":17699:17712   */\n      add\n        /* \"#utility.yul\":17692:17712   */\n      swap1\n      pop\n        /* \"#utility.yul\":17485:17718   */\n      swap2\n      swap1\n      pop\n      jump\t// out\n        /* \"#utility.yul\":17724:17895   */\n    tag_110:\n        /* \"#utility.yul\":17763:17766   */\n      0x00\n        /* \"#utility.yul\":17786:17810   */\n      tag_371\n        /* \"#utility.yul\":17804:17809   */\n      dup3\n        /* \"#utility.yul\":17786:17810   */\n      tag_187\n      jump\t// in\n    tag_371:\n        /* \"#utility.yul\":17777:17810   */\n      swap2\n      pop\n        /* \"#utility.yul\":17832:17836   */\n      0x00\n        /* \"#utility.yul\":17825:17830   */\n      dup3\n        /* \"#utility.yul\":17822:17837   */\n      sub\n        /* \"#utility.yul\":17819:17860   */\n      tag_372\n      jumpi\n        /* \"#utility.yul\":17840:17858   */\n      tag_373\n      tag_213\n      jump\t// in\n    tag_373:\n        /* \"#utility.yul\":17819:17860   */\n    tag_372:\n        /* \"#utility.yul\":17887:17888   */\n      0x01\n        /* \"#utility.yul\":17880:17885   */\n      dup3\n        /* \"#utility.yul\":17876:17889   */\n      sub\n        /* \"#utility.yul\":17869:17889   */\n      swap1\n      pop\n        /* \"#utility.yul\":17724:17895   */\n      swap2\n      swap1\n      pop\n      jump\t// out\n        /* \"#utility.yul\":17901:18129   */\n    tag_220:\n        /* \"#utility.yul\":18041:18075   */\n      0x4f6e6c79207468652063686169726d616e2063616e20706572666f726d207468\n        /* \"#utility.yul\":18037:18038   */\n      0x00\n        /* \"#utility.yul\":18029:18035   */\n      dup3\n        /* \"#utility.yul\":18025:18039   */\n      add\n        /* \"#utility.yul\":18018:18076   */\n      mstore\n        /* \"#utility.yul\":18110:18121   */\n      0x697320616374696f6e0000000000000000000000000000000000000000000000\n        /* \"#utility.yul\":18105:18107   */\n      0x20\n        /* \"#utility.yul\":18097:18103   */\n      dup3\n        /* \"#utility.yul\":18093:18108   */\n      add\n        /* \"#utility.yul\":18086:18122   */\n      mstore\n        /* \"#utility.yul\":17901:18129   */\n      pop\n      jump\t// out\n        /* \"#utility.yul\":18135:18501   */\n    tag_221:\n        /* \"#utility.yul\":18277:18280   */\n      0x00\n        /* \"#utility.yul\":18298:18365   */\n      tag_376\n        /* \"#utility.yul\":18362:18364   */\n      0x29\n        /* \"#utility.yul\":18357:18360   */\n      dup4\n        /* \"#utility.yul\":18298:18365   */\n      tag_198\n      jump\t// in\n    tag_376:\n        /* \"#utility.yul\":18291:18365   */\n      swap2\n      pop\n        /* \"#utility.yul\":18374:18467   */\n      tag_377\n        /* \"#utility.yul\":18463:18466   */\n      dup3\n        /* \"#utility.yul\":18374:18467   */\n      tag_220\n      jump\t// in\n    tag_377:\n        /* \"#utility.yul\":18492:18494   */\n      0x40\n        /* \"#utility.yul\":18487:18490   */\n      dup3\n        /* \"#utility.yul\":18483:18495   */\n      add\n        /* \"#utility.yul\":18476:18495   */\n      swap1\n      pop\n        /* \"#utility.yul\":18135:18501   */\n      swap2\n      swap1\n      pop\n      jump\t// out\n        /* \"#utility.yul\":18507:18926   */\n    tag_114:\n        /* \"#utility.yul\":18673:18677   */\n      0x00\n        /* \"#utility.yul\":18711:18713   */\n      0x20\n        /* \"#utility.yul\":18700:18709   */\n      dup3\n        /* \"#utility.yul\":18696:18714   */\n      add\n        /* \"#utility.yul\":18688:18714   */\n      swap1\n      pop\n        /* \"#utility.yul\":18760:18769   */\n      dup2\n        /* \"#utility.yul\":18754:18758   */\n      dup2\n        /* \"#utility.yul\":18750:18770   */\n      sub\n        /* \"#utility.yul\":18746:18747   */\n      0x00\n        /* \"#utility.yul\":18735:18744   */\n      dup4\n        /* \"#utility.yul\":18731:18748   */\n      add\n        /* \"#utility.yul\":18724:18771   */\n      mstore\n        /* \"#utility.yul\":18788:18919   */\n      tag_379\n        /* \"#utility.yul\":18914:18918   */\n      dup2\n        /* \"#utility.yul\":18788:18919   */\n      tag_221\n      jump\t// in\n    tag_379:\n        /* \"#utility.yul\":18780:18919   */\n      swap1\n      pop\n        /* \"#utility.yul\":18507:18926   */\n      swap2\n      swap1\n      pop\n      jump\t// out\n        /* \"#utility.yul\":18932:19153   */\n    tag_222:\n        /* \"#utility.yul\":19072:19106   */\n      0x54686520766f74696e672073657373696f6e20697320616c7265616479206f70\n        /* \"#utility.yul\":19068:19069   */\n      0x00\n        /* \"#utility.yul\":19060:19066   */\n      dup3\n        /* \"#utility.yul\":19056:19070   */\n      add\n        /* \"#utility.yul\":19049:19107   */\n      mstore\n        /* \"#utility.yul\":19141:19145   */\n      0x656e000000000000000000000000000000000000000000000000000000000000\n        /* \"#utility.yul\":19136:19138   */\n      0x20\n        /* \"#utility.yul\":19128:19134   */\n      dup3\n        /* \"#utility.yul\":19124:19139   */\n      add\n        /* \"#utility.yul\":19117:19146   */\n      mstore\n        /* \"#utility.yul\":18932:19153   */\n      pop\n      jump\t// out\n        /* \"#utility.yul\":19159:19525   */\n    tag_223:\n        /* \"#utility.yul\":19301:19304   */\n      0x00\n        /* \"#utility.yul\":19322:19389   */\n      tag_382\n        /* \"#utility.yul\":19386:19388   */\n      0x22\n        /* \"#utility.yul\":19381:19384   */\n      dup4\n        /* \"#utility.yul\":19322:19389   */\n      tag_198\n      jump\t// in\n    tag_382:\n        /* \"#utility.yul\":19315:19389   */\n      swap2\n      pop\n        /* \"#utility.yul\":19398:19491   */\n      tag_383\n        /* \"#utility.yul\":19487:19490   */\n      dup3\n        /* \"#utility.yul\":19398:19491   */\n      tag_222\n      jump\t// in\n    tag_383:\n        /* \"#utility.yul\":19516:19518   */\n      0x40\n        /* \"#utility.yul\":19511:19514   */\n      dup3\n        /* \"#utility.yul\":19507:19519   */\n      add\n        /* \"#utility.yul\":19500:19519   */\n      swap1\n      pop\n        /* \"#utility.yul\":19159:19525   */\n      swap2\n      swap1\n      pop\n      jump\t// out\n        /* \"#utility.yul\":19531:19950   */\n    tag_117:\n        /* \"#utility.yul\":19697:19701   */\n      0x00\n        /* \"#utility.yul\":19735:19737   */\n      0x20\n        /* \"#utility.yul\":19724:19733   */\n      dup3\n        /* \"#utility.yul\":19720:19738   */\n      add\n        /* \"#utility.yul\":19712:19738   */\n      swap1\n      pop\n        /* \"#utility.yul\":19784:19793   */\n      dup2\n        /* \"#utility.yul\":19778:19782   */\n      dup2\n        /* \"#utility.yul\":19774:19794   */\n      sub\n        /* \"#utility.yul\":19770:19771   */\n      0x00\n        /* \"#utility.yul\":19759:19768   */\n      dup4\n        /* \"#utility.yul\":19755:19772   */\n      add\n        /* \"#utility.yul\":19748:19795   */\n      mstore\n        /* \"#utility.yul\":19812:19943   */\n      tag_385\n        /* \"#utility.yul\":19938:19942   */\n      dup2\n        /* \"#utility.yul\":19812:19943   */\n      tag_223\n      jump\t// in\n    tag_385:\n        /* \"#utility.yul\":19804:19943   */\n      swap1\n      pop\n        /* \"#utility.yul\":19531:19950   */\n      swap2\n      swap1\n      pop\n      jump\t// out\n        /* \"#utility.yul\":19956:20366   */\n    tag_119:\n        /* \"#utility.yul\":19996:20003   */\n      0x00\n        /* \"#utility.yul\":20019:20039   */\n      tag_387\n        /* \"#utility.yul\":20037:20038   */\n      dup3\n        /* \"#utility.yul\":20019:20039   */\n      tag_187\n      jump\t// in\n    tag_387:\n        /* \"#utility.yul\":20014:20039   */\n      swap2\n      pop\n        /* \"#utility.yul\":20053:20073   */\n      tag_388\n        /* \"#utility.yul\":20071:20072   */\n      dup4\n        /* \"#utility.yul\":20053:20073   */\n      tag_187\n      jump\t// in\n    tag_388:\n        /* \"#utility.yul\":20048:20073   */\n      swap3\n      pop\n        /* \"#utility.yul\":20108:20109   */\n      dup3\n        /* \"#utility.yul\":20105:20106   */\n      dup3\n        /* \"#utility.yul\":20101:20110   */\n      mul\n        /* \"#utility.yul\":20130:20160   */\n      tag_389\n        /* \"#utility.yul\":20148:20159   */\n      dup2\n        /* \"#utility.yul\":20130:20160   */\n      tag_187\n      jump\t// in\n    tag_389:\n        /* \"#utility.yul\":20119:20160   */\n      swap2\n      pop\n        /* \"#utility.yul\":20309:20310   */\n      dup3\n        /* \"#utility.yul\":20300:20307   */\n      dup3\n        /* \"#utility.yul\":20296:20311   */\n      div\n        /* \"#utility.yul\":20293:20294   */\n      dup5\n        /* \"#utility.yul\":20290:20312   */\n      eq\n        /* \"#utility.yul\":20270:20271   */\n      dup4\n        /* \"#utility.yul\":20263:20272   */\n      iszero\n        /* \"#utility.yul\":20243:20326   */\n      or\n        /* \"#utility.yul\":20220:20359   */\n      tag_390\n      jumpi\n        /* \"#utility.yul\":20339:20357   */\n      tag_391\n      tag_213\n      jump\t// in\n    tag_391:\n        /* \"#utility.yul\":20220:20359   */\n    tag_390:\n        /* \"#utility.yul\":20004:20366   */\n      pop\n        /* \"#utility.yul\":19956:20366   */\n      swap3\n      swap2\n      pop\n      pop\n      jump\t// out\n        /* \"#utility.yul\":20372:20599   */\n    tag_224:\n        /* \"#utility.yul\":20512:20546   */\n      0x5468697320766f74657220616c72656164792068617320746865207269676874\n        /* \"#utility.yul\":20508:20509   */\n      0x00\n        /* \"#utility.yul\":20500:20506   */\n      dup3\n        /* \"#utility.yul\":20496:20510   */\n      add\n        /* \"#utility.yul\":20489:20547   */\n      mstore\n        /* \"#utility.yul\":20581:20591   */\n      0x20746f20766f7465000000000000000000000000000000000000000000000000\n        /* \"#utility.yul\":20576:20578   */\n      0x20\n        /* \"#utility.yul\":20568:20574   */\n      dup3\n        /* \"#utility.yul\":20564:20579   */\n      add\n        /* \"#utility.yul\":20557:20592   */\n      mstore\n        /* \"#utility.yul\":20372:20599   */\n      pop\n      jump\t// out\n        /* \"#utility.yul\":20605:20971   */\n    tag_225:\n        /* \"#utility.yul\":20747:20750   */\n      0x00\n        /* \"#utility.yul\":20768:20835   */\n      tag_394\n        /* \"#utility.yul\":20832:20834   */\n      0x28\n        /* \"#utility.yul\":20827:20830   */\n      dup4\n        /* \"#utility.yul\":20768:20835   */\n      tag_198\n      jump\t// in\n    tag_394:\n        /* \"#utility.yul\":20761:20835   */\n      swap2\n      pop\n        /* \"#utility.yul\":20844:20937   */\n      tag_395\n        /* \"#utility.yul\":20933:20936   */\n      dup3\n        /* \"#utility.yul\":20844:20937   */\n      tag_224\n      jump\t// in\n    tag_395:\n        /* \"#utility.yul\":20962:20964   */\n      0x40\n        /* \"#utility.yul\":20957:20960   */\n      dup3\n        /* \"#utility.yul\":20953:20965   */\n      add\n        /* \"#utility.yul\":20946:20965   */\n      swap1\n      pop\n        /* \"#utility.yul\":20605:20971   */\n      swap2\n      swap1\n      pop\n      jump\t// out\n        /* \"#utility.yul\":20977:21396   */\n    tag_129:\n        /* \"#utility.yul\":21143:21147   */\n      0x00\n        /* \"#utility.yul\":21181:21183   */\n      0x20\n        /* \"#utility.yul\":21170:21179   */\n      dup3\n        /* \"#utility.yul\":21166:21184   */\n      add\n        /* \"#utility.yul\":21158:21184   */\n      swap1\n      pop\n        /* \"#utility.yul\":21230:21239   */\n      dup2\n        /* \"#utility.yul\":21224:21228   */\n      dup2\n        /* \"#utility.yul\":21220:21240   */\n      sub\n        /* \"#utility.yul\":21216:21217   */\n      0x00\n        /* \"#utility.yul\":21205:21214   */\n      dup4\n        /* \"#utility.yul\":21201:21218   */\n      add\n        /* \"#utility.yul\":21194:21241   */\n      mstore\n        /* \"#utility.yul\":21258:21389   */\n      tag_397\n        /* \"#utility.yul\":21384:21388   */\n      dup2\n        /* \"#utility.yul\":21258:21389   */\n      tag_225\n      jump\t// in\n    tag_397:\n        /* \"#utility.yul\":21250:21389   */\n      swap1\n      pop\n        /* \"#utility.yul\":20977:21396   */\n      swap2\n      swap1\n      pop\n      jump\t// out\n        /* \"#utility.yul\":21402:21631   */\n    tag_226:\n        /* \"#utility.yul\":21542:21576   */\n      0x54686520766f74696e672073657373696f6e20686173206e6f74207965742074\n        /* \"#utility.yul\":21538:21539   */\n      0x00\n        /* \"#utility.yul\":21530:21536   */\n      dup3\n        /* \"#utility.yul\":21526:21540   */\n      add\n        /* \"#utility.yul\":21519:21577   */\n      mstore\n        /* \"#utility.yul\":21611:21623   */\n      0x616b656e20706c61636500000000000000000000000000000000000000000000\n        /* \"#utility.yul\":21606:21608   */\n      0x20\n        /* \"#utility.yul\":21598:21604   */\n      dup3\n        /* \"#utility.yul\":21594:21609   */\n      add\n        /* \"#utility.yul\":21587:21624   */\n      mstore\n        /* \"#utility.yul\":21402:21631   */\n      pop\n      jump\t// out\n        /* \"#utility.yul\":21637:22003   */\n    tag_227:\n        /* \"#utility.yul\":21779:21782   */\n      0x00\n        /* \"#utility.yul\":21800:21867   */\n      tag_400\n        /* \"#utility.yul\":21864:21866   */\n      0x2a\n        /* \"#utility.yul\":21859:21862   */\n      dup4\n        /* \"#utility.yul\":21800:21867   */\n      tag_198\n      jump\t// in\n    tag_400:\n        /* \"#utility.yul\":21793:21867   */\n      swap2\n      pop\n        /* \"#utility.yul\":21876:21969   */\n      tag_401\n        /* \"#utility.yul\":21965:21968   */\n      dup3\n        /* \"#utility.yul\":21876:21969   */\n      tag_226\n      jump\t// in\n    tag_401:\n        /* \"#utility.yul\":21994:21996   */\n      0x40\n        /* \"#utility.yul\":21989:21992   */\n      dup3\n        /* \"#utility.yul\":21985:21997   */\n      add\n        /* \"#utility.yul\":21978:21997   */\n      swap1\n      pop\n        /* \"#utility.yul\":21637:22003   */\n      swap2\n      swap1\n      pop\n      jump\t// out\n        /* \"#utility.yul\":22009:22428   */\n    tag_139:\n        /* \"#utility.yul\":22175:22179   */\n      0x00\n        /* \"#utility.yul\":22213:22215   */\n      0x20\n        /* \"#utility.yul\":22202:22211   */\n      dup3\n        /* \"#utility.yul\":22198:22216   */\n      add\n        /* \"#utility.yul\":22190:22216   */\n      swap1\n      pop\n        /* \"#utility.yul\":22262:22271   */\n      dup2\n        /* \"#utility.yul\":22256:22260   */\n      dup2\n        /* \"#utility.yul\":22252:22272   */\n      sub\n        /* \"#utility.yul\":22248:22249   */\n      0x00\n        /* \"#utility.yul\":22237:22246   */\n      dup4\n        /* \"#utility.yul\":22233:22250   */\n      add\n        /* \"#utility.yul\":22226:22273   */\n      mstore\n        /* \"#utility.yul\":22290:22421   */\n      tag_403\n        /* \"#utility.yul\":22416:22420   */\n      dup2\n        /* \"#utility.yul\":22290:22421   */\n      tag_227\n      jump\t// in\n    tag_403:\n        /* \"#utility.yul\":22282:22421   */\n      swap1\n      pop\n        /* \"#utility.yul\":22009:22428   */\n      swap2\n      swap1\n      pop\n      jump\t// out\n\n    auxdata: 0xa2646970667358221220443d823f7996eb0cc9087358036ec38d30a3c83e99456539b4d2f1f14608645b64736f6c634300081a0033\n}\n",
				"bytecode": {
					"linkReferences": {},
					"object": "608060405234801561000f575f80fd5b5060405161230638038061230683398181016040528101906100319190610432565b335f806101000a81548173ffffffffffffffffffffffffffffffffffffffff021916908373ffffffffffffffffffffffffffffffffffffffff160217905550600160025f805f9054906101000a900473ffffffffffffffffffffffffffffffffffffffff1673ffffffffffffffffffffffffffffffffffffffff1673ffffffffffffffffffffffffffffffffffffffff1681526020019081526020015f205f0181905550600160025f805f9054906101000a900473ffffffffffffffffffffffffffffffffffffffff1673ffffffffffffffffffffffffffffffffffffffff1673ffffffffffffffffffffffffffffffffffffffff1681526020019081526020015f2060010181905550600433908060018154018082558091505060019003905f5260205f20015f9091909190916101000a81548173ffffffffffffffffffffffffffffffffffffffff021916908373ffffffffffffffffffffffffffffffffffffffff1602179055505f5b815181101561027057600360405180604001604052808484815181106101c6576101c5610479565b5b602002602001015173ffffffffffffffffffffffffffffffffffffffff1681526020015f815250908060018154018082558091505060019003905f5260205f2090600202015f909190919091505f820151815f015f6101000a81548173ffffffffffffffffffffffffffffffffffffffff021916908373ffffffffffffffffffffffffffffffffffffffff160217905550602082015181600101555050808060010191505061019d565b50506104a6565b5f604051905090565b5f80fd5b5f80fd5b5f80fd5b5f601f19601f8301169050919050565b7f4e487b71000000000000000000000000000000000000000000000000000000005f52604160045260245ffd5b6102d28261028c565b810181811067ffffffffffffffff821117156102f1576102f061029c565b5b80604052505050565b5f610303610277565b905061030f82826102c9565b919050565b5f67ffffffffffffffff82111561032e5761032d61029c565b5b602082029050602081019050919050565b5f80fd5b5f73ffffffffffffffffffffffffffffffffffffffff82169050919050565b5f61036c82610343565b9050919050565b61037c81610362565b8114610386575f80fd5b50565b5f8151905061039781610373565b92915050565b5f6103af6103aa84610314565b6102fa565b905080838252602082019050602084028301858111156103d2576103d161033f565b5b835b818110156103fb57806103e78882610389565b8452602084019350506020810190506103d4565b5050509392505050565b5f82601f83011261041957610418610288565b5b815161042984826020860161039d565b91505092915050565b5f6020828403121561044757610446610280565b5b5f82015167ffffffffffffffff81111561046457610463610284565b5b61047084828501610405565b91505092915050565b7f4e487b71000000000000000000000000000000000000000000000000000000005f52603260045260245ffd5b611e53806104b35f395ff3fe608060405234801561000f575f80fd5b5060043610610086575f3560e01c80639e7b8d61116100595780639e7b8d61146100fc578063a48bdb7c14610118578063cdd7225314610137578063d64515571461015557610086565b806306a49fce1461008a5780635bd4e10d146100a85780636dd7d8ea146100c45780639794d8f3146100e0575b5f80fd5b610092610173565b60405161009f91906113b3565b60405180910390f35b6100c260048036038101906100bd9190611401565b610279565b005b6100de60048036038101906100d99190611401565b610756565b005b6100fa60048036038101906100f5919061145f565b610ad9565b005b61011660048036038101906101119190611401565b610bf0565b005b610120610e30565b60405161012e929190611541565b60405180910390f35b61013f6110e5565b60405161014c91906113b3565b60405180910390f35b61015d6111fd565b60405161016a9190611585565b60405180910390f35b60605f60038054905067ffffffffffffffff8111156101955761019461159e565b5b6040519080825280602002602001820160405280156101c35781602001602082028036833780820191505090505b5090505f5b60038054905081101561027157600381815481106101e9576101e86115cb565b5b905f5260205f2090600202015f015f9054906101000a900473ffffffffffffffffffffffffffffffffffffffff1682828151811061022a576102296115cb565b5b602002602001019073ffffffffffffffffffffffffffffffffffffffff16908173ffffffffffffffffffffffffffffffffffffffff168152505080806001019150506101c8565b508091505090565b60015442116102bd576040517f08c379a00000000000000000000000000000000000000000000000000000000081526004016102b490611652565b60405180910390fd5b5f60025f3373ffffffffffffffffffffffffffffffffffffffff1673ffffffffffffffffffffffffffffffffffffffff1681526020019081526020015f205f01540361033e576040517f08c379a0000000000000000000000000000000000000000000000000000000008152600401610335906116e0565b60405180910390fd5b5f60025f3373ffffffffffffffffffffffffffffffffffffffff1673ffffffffffffffffffffffffffffffffffffffff1681526020019081526020015f2060010154036103c0576040517f08c379a00000000000000000000000000000000000000000000000000000000081526004016103b790611748565b60405180910390fd5b6002805f3373ffffffffffffffffffffffffffffffffffffffff1673ffffffffffffffffffffffffffffffffffffffff1681526020019081526020015f205f015403610441576040517f08c379a0000000000000000000000000000000000000000000000000000000008152600401610438906117b0565b60405180910390fd5b8073ffffffffffffffffffffffffffffffffffffffff163373ffffffffffffffffffffffffffffffffffffffff16036104af576040517f08c379a00000000000000000000000000000000000000000000000000000000081526004016104a69061183e565b60405180910390fd5b5f60025f8373ffffffffffffffffffffffffffffffffffffffff1673ffffffffffffffffffffffffffffffffffffffff1681526020019081526020015f205f015403610530576040517f08c379a0000000000000000000000000000000000000000000000000000000008152600401610527906118cc565b60405180910390fd5b6002805f8373ffffffffffffffffffffffffffffffffffffffff1673ffffffffffffffffffffffffffffffffffffffff1681526020019081526020015f205f0154036105b1576040517f08c379a00000000000000000000000000000000000000000000000000000000081526004016105a89061195a565b60405180910390fd5b6002805f8373ffffffffffffffffffffffffffffffffffffffff1673ffffffffffffffffffffffffffffffffffffffff1681526020019081526020015f205f0181905550600160025f8373ffffffffffffffffffffffffffffffffffffffff1673ffffffffffffffffffffffffffffffffffffffff1681526020019081526020015f206001015f82825461064591906119a5565b925050819055505f60025f3373ffffffffffffffffffffffffffffffffffffffff1673ffffffffffffffffffffffffffffffffffffffff1681526020019081526020015f205f01819055505f60025f3373ffffffffffffffffffffffffffffffffffffffff1673ffffffffffffffffffffffffffffffffffffffff1681526020019081526020015f20600101819055508060025f3373ffffffffffffffffffffffffffffffffffffffff1673ffffffffffffffffffffffffffffffffffffffff1681526020019081526020015f206002015f6101000a81548173ffffffffffffffffffffffffffffffffffffffff021916908373ffffffffffffffffffffffffffffffffffffffff16021790555050565b60015442111561079b576040517f08c379a000000000000000000000000000000000000000000000000000000000815260040161079290611a22565b60405180910390fd5b5f73ffffffffffffffffffffffffffffffffffffffff1660025f3373ffffffffffffffffffffffffffffffffffffffff1673ffffffffffffffffffffffffffffffffffffffff1681526020019081526020015f206002015f9054906101000a900473ffffffffffffffffffffffffffffffffffffffff1673ffffffffffffffffffffffffffffffffffffffff1614610868576040517f08c379a000000000000000000000000000000000000000000000000000000000815260040161085f90611ab0565b60405180910390fd5b5f60025f3373ffffffffffffffffffffffffffffffffffffffff1673ffffffffffffffffffffffffffffffffffffffff1681526020019081526020015f205f0154036108e9576040517f08c379a00000000000000000000000000000000000000000000000000000000081526004016108e0906116e0565b60405180910390fd5b5f60025f3373ffffffffffffffffffffffffffffffffffffffff1673ffffffffffffffffffffffffffffffffffffffff1681526020019081526020015f20600101540361096b576040517f08c379a000000000000000000000000000000000000000000000000000000000815260040161096290611748565b60405180910390fd5b61097481611224565b6109b3576040517f08c379a00000000000000000000000000000000000000000000000000000000081526004016109aa90611b18565b60405180910390fd5b5f5b600380549050811015610a80578173ffffffffffffffffffffffffffffffffffffffff16600382815481106109ed576109ec6115cb565b5b905f5260205f2090600202015f015f9054906101000a900473ffffffffffffffffffffffffffffffffffffffff1673ffffffffffffffffffffffffffffffffffffffff1603610a735760038181548110610a4a57610a496115cb565b5b905f5260205f2090600202016001015f815480929190610a6990611b36565b9190505550610a80565b80806001019150506109b5565b5060025f3373ffffffffffffffffffffffffffffffffffffffff1673ffffffffffffffffffffffffffffffffffffffff1681526020019081526020015f206001015f815480929190610ad190611b7d565b919050555050565b5f8054906101000a900473ffffffffffffffffffffffffffffffffffffffff1673ffffffffffffffffffffffffffffffffffffffff163373ffffffffffffffffffffffffffffffffffffffff1614610b66576040517f08c379a0000000000000000000000000000000000000000000000000000000008152600401610b5d90611c14565b60405180910390fd5b5f60149054906101000a900460ff1615610bb5576040517f08c379a0000000000000000000000000000000000000000000000000000000008152600401610bac90611ca2565b60405180910390fd5b603c81610bc29190611cc0565b42610bcd91906119a5565b60018190555060015f60146101000a81548160ff02191690831515021790555050565b6001544211610c34576040517f08c379a0000000000000000000000000000000000000000000000000000000008152600401610c2b90611652565b60405180910390fd5b5f8054906101000a900473ffffffffffffffffffffffffffffffffffffffff1673ffffffffffffffffffffffffffffffffffffffff163373ffffffffffffffffffffffffffffffffffffffff1614610cc1576040517f08c379a0000000000000000000000000000000000000000000000000000000008152600401610cb890611c14565b60405180910390fd5b5f60025f8373ffffffffffffffffffffffffffffffffffffffff1673ffffffffffffffffffffffffffffffffffffffff1681526020019081526020015f205f015414610d42576040517f08c379a0000000000000000000000000000000000000000000000000000000008152600401610d3990611d71565b60405180910390fd5b600160025f8373ffffffffffffffffffffffffffffffffffffffff1673ffffffffffffffffffffffffffffffffffffffff1681526020019081526020015f205f0181905550600160025f8373ffffffffffffffffffffffffffffffffffffffff1673ffffffffffffffffffffffffffffffffffffffff1681526020019081526020015f2060010181905550600481908060018154018082558091505060019003905f5260205f20015f9091909190916101000a81548173ffffffffffffffffffffffffffffffffffffffff021916908373ffffffffffffffffffffffffffffffffffffffff16021790555050565b6060806001544211610e77576040517f08c379a0000000000000000000000000000000000000000000000000000000008152600401610e6e90611652565b60405180910390fd5b5f8054906101000a900473ffffffffffffffffffffffffffffffffffffffff1673ffffffffffffffffffffffffffffffffffffffff163373ffffffffffffffffffffffffffffffffffffffff1614610f04576040517f08c379a0000000000000000000000000000000000000000000000000000000008152600401610efb90611c14565b60405180910390fd5b5f60015403610f48576040517f08c379a0000000000000000000000000000000000000000000000000000000008152600401610f3f90611dff565b60405180910390fd5b5f60038054905067ffffffffffffffff811115610f6857610f6761159e565b5b604051908082528060200260200182016040528015610f965781602001602082028036833780820191505090505b5090505f60038054905067ffffffffffffffff811115610fb957610fb861159e565b5b604051908082528060200260200182016040528015610fe75781602001602082028036833780820191505090505b5090505f5b6003805490508110156110d8576003818154811061100d5761100c6115cb565b5b905f5260205f2090600202015f015f9054906101000a900473ffffffffffffffffffffffffffffffffffffffff1683828151811061104e5761104d6115cb565b5b602002602001019073ffffffffffffffffffffffffffffffffffffffff16908173ffffffffffffffffffffffffffffffffffffffff16815250506003818154811061109c5761109b6115cb565b5b905f5260205f209060020201600101548282815181106110bf576110be6115cb565b5b6020026020010181815250508080600101915050610fec565b5081819350935050509091565b60605f8054906101000a900473ffffffffffffffffffffffffffffffffffffffff1673ffffffffffffffffffffffffffffffffffffffff163373ffffffffffffffffffffffffffffffffffffffff1614611174576040517f08c379a000000000000000000000000000000000000000000000000000000000815260040161116b90611c14565b60405180910390fd5b60048054806020026020016040519081016040528092919081815260200182805480156111f357602002820191905f5260205f20905b815f9054906101000a900473ffffffffffffffffffffffffffffffffffffffff1673ffffffffffffffffffffffffffffffffffffffff16815260200190600101908083116111aa575b5050505050905090565b5f805f9054906101000a900473ffffffffffffffffffffffffffffffffffffffff16905090565b5f805f90505b6003805490508110156112c2578273ffffffffffffffffffffffffffffffffffffffff1660038281548110611262576112616115cb565b5b905f5260205f2090600202015f015f9054906101000a900473ffffffffffffffffffffffffffffffffffffffff1673ffffffffffffffffffffffffffffffffffffffff16036112b55760019150506112c7565b808060010191505061122a565b505f90505b919050565b5f81519050919050565b5f82825260208201905092915050565b5f819050602082019050919050565b5f73ffffffffffffffffffffffffffffffffffffffff82169050919050565b5f61131e826112f5565b9050919050565b61132e81611314565b82525050565b5f61133f8383611325565b60208301905092915050565b5f602082019050919050565b5f611361826112cc565b61136b81856112d6565b9350611376836112e6565b805f5b838110156113a657815161138d8882611334565b97506113988361134b565b925050600181019050611379565b5085935050505092915050565b5f6020820190508181035f8301526113cb8184611357565b905092915050565b5f80fd5b6113e081611314565b81146113ea575f80fd5b50565b5f813590506113fb816113d7565b92915050565b5f60208284031215611416576114156113d3565b5b5f611423848285016113ed565b91505092915050565b5f819050919050565b61143e8161142c565b8114611448575f80fd5b50565b5f8135905061145981611435565b92915050565b5f60208284031215611474576114736113d3565b5b5f6114818482850161144b565b91505092915050565b5f81519050919050565b5f82825260208201905092915050565b5f819050602082019050919050565b6114bc8161142c565b82525050565b5f6114cd83836114b3565b60208301905092915050565b5f602082019050919050565b5f6114ef8261148a565b6114f98185611494565b9350611504836114a4565b805f5b8381101561153457815161151b88826114c2565b9750611526836114d9565b925050600181019050611507565b5085935050505092915050565b5f6040820190508181035f8301526115598185611357565b9050818103602083015261156d81846114e5565b90509392505050565b61157f81611314565b82525050565b5f6020820190506115985f830184611576565b92915050565b7f4e487b71000000000000000000000000000000000000000000000000000000005f52604160045260245ffd5b7f4e487b71000000000000000000000000000000000000000000000000000000005f52603260045260245ffd5b5f82825260208201905092915050565b7f54686520766f74696e672073657373696f6e206973206f70656e0000000000005f82015250565b5f61163c601a836115f8565b915061164782611608565b602082019050919050565b5f6020820190508181035f83015261166981611630565b9050919050565b7f596f7520646f206e6f7420686176652074686520726967687420746f20766f745f8201527f6500000000000000000000000000000000000000000000000000000000000000602082015250565b5f6116ca6021836115f8565b91506116d582611670565b604082019050919050565b5f6020820190508181035f8301526116f7816116be565b9050919050565b7f596f75206861766520616c726561647920766f746564000000000000000000005f82015250565b5f6117326016836115f8565b915061173d826116fe565b602082019050919050565b5f6020820190508181035f83015261175f81611726565b9050919050565b7f596f752061726520612064656c656761746520666f7220736f6d656f6e6500005f82015250565b5f61179a601e836115f8565b91506117a582611766565b602082019050919050565b5f6020820190508181035f8301526117c78161178e565b9050919050565b7f596f752063616e6e6f74206d616b65206120766f74696e672070726f787920745f8201527f6f20796f757273656c6600000000000000000000000000000000000000000000602082015250565b5f611828602a836115f8565b9150611833826117ce565b604082019050919050565b5f6020820190508181035f8301526118558161181c565b9050919050565b7f5468697320706572736f6e20646f6573206e6f742068617665207468652072695f8201527f67687420746f20766f7465000000000000000000000000000000000000000000602082015250565b5f6118b6602b836115f8565b91506118c18261185c565b604082019050919050565b5f6020820190508181035f8301526118e3816118aa565b9050919050565b7f5468697320706572736f6e20697320616c726561647920612064656c656761745f8201527f6520666f7220736f6d656f6e6500000000000000000000000000000000000000602082015250565b5f611944602d836115f8565b915061194f826118ea565b604082019050919050565b5f6020820190508181035f83015261197181611938565b9050919050565b7f4e487b71000000000000000000000000000000000000000000000000000000005f52601160045260245ffd5b5f6119af8261142c565b91506119ba8361142c565b92508282019050808211156119d2576119d1611978565b5b92915050565b7f54686520766f74696e672073657373696f6e20697320636c6f736564000000005f82015250565b5f611a0c601c836115f8565b9150611a17826119d8565b602082019050919050565b5f6020820190508181035f830152611a3981611a00565b9050919050565b7f596f75206861766520676976656e20796f757220766f746520746f20736f6d655f8201527f6f6e650000000000000000000000000000000000000000000000000000000000602082015250565b5f611a9a6023836115f8565b9150611aa582611a40565b604082019050919050565b5f6020820190508181035f830152611ac781611a8e565b9050919050565b7f5468697320706572736f6e206973206e6f7420612063616e64696461746500005f82015250565b5f611b02601e836115f8565b9150611b0d82611ace565b602082019050919050565b5f6020820190508181035f830152611b2f81611af6565b9050919050565b5f611b408261142c565b91507fffffffffffffffffffffffffffffffffffffffffffffffffffffffffffffffff8203611b7257611b71611978565b5b600182019050919050565b5f611b878261142c565b91505f8203611b9957611b98611978565b5b600182039050919050565b7f4f6e6c79207468652063686169726d616e2063616e20706572666f726d2074685f8201527f697320616374696f6e0000000000000000000000000000000000000000000000602082015250565b5f611bfe6029836115f8565b9150611c0982611ba4565b604082019050919050565b5f6020820190508181035f830152611c2b81611bf2565b9050919050565b7f54686520766f74696e672073657373696f6e20697320616c7265616479206f705f8201527f656e000000000000000000000000000000000000000000000000000000000000602082015250565b5f611c8c6022836115f8565b9150611c9782611c32565b604082019050919050565b5f6020820190508181035f830152611cb981611c80565b9050919050565b5f611cca8261142c565b9150611cd58361142c565b9250828202611ce38161142c565b91508282048414831517611cfa57611cf9611978565b5b5092915050565b7f5468697320766f74657220616c726561647920686173207468652072696768745f8201527f20746f20766f7465000000000000000000000000000000000000000000000000602082015250565b5f611d5b6028836115f8565b9150611d6682611d01565b604082019050919050565b5f6020820190508181035f830152611d8881611d4f565b9050919050565b7f54686520766f74696e672073657373696f6e20686173206e6f742079657420745f8201527f616b656e20706c61636500000000000000000000000000000000000000000000602082015250565b5f611de9602a836115f8565b9150611df482611d8f565b604082019050919050565b5f6020820190508181035f830152611e1681611ddd565b905091905056fea2646970667358221220443d823f7996eb0cc9087358036ec38d30a3c83e99456539b4d2f1f14608645b64736f6c634300081a0033",
					"opcodes": "PUSH1 0x80 PUSH1 0x40 MSTORE CALLVALUE DUP1 ISZERO PUSH2 0xF JUMPI PUSH0 DUP1 REVERT JUMPDEST POP PUSH1 0x40 MLOAD PUSH2 0x2306 CODESIZE SUB DUP1 PUSH2 0x2306 DUP4 CODECOPY DUP2 DUP2 ADD PUSH1 0x40 MSTORE DUP2 ADD SWAP1 PUSH2 0x31 SWAP2 SWAP1 PUSH2 0x432 JUMP JUMPDEST CALLER PUSH0 DUP1 PUSH2 0x100 EXP DUP2 SLOAD DUP2 PUSH20 0xFFFFFFFFFFFFFFFFFFFFFFFFFFFFFFFFFFFFFFFF MUL NOT AND SWAP1 DUP4 PUSH20 0xFFFFFFFFFFFFFFFFFFFFFFFFFFFFFFFFFFFFFFFF AND MUL OR SWAP1 SSTORE POP PUSH1 0x1 PUSH1 0x2 PUSH0 DUP1 PUSH0 SWAP1 SLOAD SWAP1 PUSH2 0x100 EXP SWAP1 DIV PUSH20 0xFFFFFFFFFFFFFFFFFFFFFFFFFFFFFFFFFFFFFFFF AND PUSH20 0xFFFFFFFFFFFFFFFFFFFFFFFFFFFFFFFFFFFFFFFF AND PUSH20 0xFFFFFFFFFFFFFFFFFFFFFFFFFFFFFFFFFFFFFFFF AND DUP2 MSTORE PUSH1 0x20 ADD SWAP1 DUP2 MSTORE PUSH1 0x20 ADD PUSH0 KECCAK256 PUSH0 ADD DUP2 SWAP1 SSTORE POP PUSH1 0x1 PUSH1 0x2 PUSH0 DUP1 PUSH0 SWAP1 SLOAD SWAP1 PUSH2 0x100 EXP SWAP1 DIV PUSH20 0xFFFFFFFFFFFFFFFFFFFFFFFFFFFFFFFFFFFFFFFF AND PUSH20 0xFFFFFFFFFFFFFFFFFFFFFFFFFFFFFFFFFFFFFFFF AND PUSH20 0xFFFFFFFFFFFFFFFFFFFFFFFFFFFFFFFFFFFFFFFF AND DUP2 MSTORE PUSH1 0x20 ADD SWAP1 DUP2 MSTORE PUSH1 0x20 ADD PUSH0 KECCAK256 PUSH1 0x1 ADD DUP2 SWAP1 SSTORE POP PUSH1 0x4 CALLER SWAP1 DUP1 PUSH1 0x1 DUP2 SLOAD ADD DUP1 DUP3 SSTORE DUP1 SWAP2 POP POP PUSH1 0x1 SWAP1 SUB SWAP1 PUSH0 MSTORE PUSH1 0x20 PUSH0 KECCAK256 ADD PUSH0 SWAP1 SWAP2 SWAP1 SWAP2 SWAP1 SWAP2 PUSH2 0x100 EXP DUP2 SLOAD DUP2 PUSH20 0xFFFFFFFFFFFFFFFFFFFFFFFFFFFFFFFFFFFFFFFF MUL NOT AND SWAP1 DUP4 PUSH20 0xFFFFFFFFFFFFFFFFFFFFFFFFFFFFFFFFFFFFFFFF AND MUL OR SWAP1 SSTORE POP PUSH0 JUMPDEST DUP2 MLOAD DUP2 LT ISZERO PUSH2 0x270 JUMPI PUSH1 0x3 PUSH1 0x40 MLOAD DUP1 PUSH1 0x40 ADD PUSH1 0x40 MSTORE DUP1 DUP5 DUP5 DUP2 MLOAD DUP2 LT PUSH2 0x1C6 JUMPI PUSH2 0x1C5 PUSH2 0x479 JUMP JUMPDEST JUMPDEST PUSH1 0x20 MUL PUSH1 0x20 ADD ADD MLOAD PUSH20 0xFFFFFFFFFFFFFFFFFFFFFFFFFFFFFFFFFFFFFFFF AND DUP2 MSTORE PUSH1 0x20 ADD PUSH0 DUP2 MSTORE POP SWAP1 DUP1 PUSH1 0x1 DUP2 SLOAD ADD DUP1 DUP3 SSTORE DUP1 SWAP2 POP POP PUSH1 0x1 SWAP1 SUB SWAP1 PUSH0 MSTORE PUSH1 0x20 PUSH0 KECCAK256 SWAP1 PUSH1 0x2 MUL ADD PUSH0 SWAP1 SWAP2 SWAP1 SWAP2 SWAP1 SWAP2 POP PUSH0 DUP3 ADD MLOAD DUP2 PUSH0 ADD PUSH0 PUSH2 0x100 EXP DUP2 SLOAD DUP2 PUSH20 0xFFFFFFFFFFFFFFFFFFFFFFFFFFFFFFFFFFFFFFFF MUL NOT AND SWAP1 DUP4 PUSH20 0xFFFFFFFFFFFFFFFFFFFFFFFFFFFFFFFFFFFFFFFF AND MUL OR SWAP1 SSTORE POP PUSH1 0x20 DUP3 ADD MLOAD DUP2 PUSH1 0x1 ADD SSTORE POP POP DUP1 DUP1 PUSH1 0x1 ADD SWAP2 POP POP PUSH2 0x19D JUMP JUMPDEST POP POP PUSH2 0x4A6 JUMP JUMPDEST PUSH0 PUSH1 0x40 MLOAD SWAP1 POP SWAP1 JUMP JUMPDEST PUSH0 DUP1 REVERT JUMPDEST PUSH0 DUP1 REVERT JUMPDEST PUSH0 DUP1 REVERT JUMPDEST PUSH0 PUSH1 0x1F NOT PUSH1 0x1F DUP4 ADD AND SWAP1 POP SWAP2 SWAP1 POP JUMP JUMPDEST PUSH32 0x4E487B7100000000000000000000000000000000000000000000000000000000 PUSH0 MSTORE PUSH1 0x41 PUSH1 0x4 MSTORE PUSH1 0x24 PUSH0 REVERT JUMPDEST PUSH2 0x2D2 DUP3 PUSH2 0x28C JUMP JUMPDEST DUP2 ADD DUP2 DUP2 LT PUSH8 0xFFFFFFFFFFFFFFFF DUP3 GT OR ISZERO PUSH2 0x2F1 JUMPI PUSH2 0x2F0 PUSH2 0x29C JUMP JUMPDEST JUMPDEST DUP1 PUSH1 0x40 MSTORE POP POP POP JUMP JUMPDEST PUSH0 PUSH2 0x303 PUSH2 0x277 JUMP JUMPDEST SWAP1 POP PUSH2 0x30F DUP3 DUP3 PUSH2 0x2C9 JUMP JUMPDEST SWAP2 SWAP1 POP JUMP JUMPDEST PUSH0 PUSH8 0xFFFFFFFFFFFFFFFF DUP3 GT ISZERO PUSH2 0x32E JUMPI PUSH2 0x32D PUSH2 0x29C JUMP JUMPDEST JUMPDEST PUSH1 0x20 DUP3 MUL SWAP1 POP PUSH1 0x20 DUP2 ADD SWAP1 POP SWAP2 SWAP1 POP JUMP JUMPDEST PUSH0 DUP1 REVERT JUMPDEST PUSH0 PUSH20 0xFFFFFFFFFFFFFFFFFFFFFFFFFFFFFFFFFFFFFFFF DUP3 AND SWAP1 POP SWAP2 SWAP1 POP JUMP JUMPDEST PUSH0 PUSH2 0x36C DUP3 PUSH2 0x343 JUMP JUMPDEST SWAP1 POP SWAP2 SWAP1 POP JUMP JUMPDEST PUSH2 0x37C DUP2 PUSH2 0x362 JUMP JUMPDEST DUP2 EQ PUSH2 0x386 JUMPI PUSH0 DUP1 REVERT JUMPDEST POP JUMP JUMPDEST PUSH0 DUP2 MLOAD SWAP1 POP PUSH2 0x397 DUP2 PUSH2 0x373 JUMP JUMPDEST SWAP3 SWAP2 POP POP JUMP JUMPDEST PUSH0 PUSH2 0x3AF PUSH2 0x3AA DUP5 PUSH2 0x314 JUMP JUMPDEST PUSH2 0x2FA JUMP JUMPDEST SWAP1 POP DUP1 DUP4 DUP3 MSTORE PUSH1 0x20 DUP3 ADD SWAP1 POP PUSH1 0x20 DUP5 MUL DUP4 ADD DUP6 DUP2 GT ISZERO PUSH2 0x3D2 JUMPI PUSH2 0x3D1 PUSH2 0x33F JUMP JUMPDEST JUMPDEST DUP4 JUMPDEST DUP2 DUP2 LT ISZERO PUSH2 0x3FB JUMPI DUP1 PUSH2 0x3E7 DUP9 DUP3 PUSH2 0x389 JUMP JUMPDEST DUP5 MSTORE PUSH1 0x20 DUP5 ADD SWAP4 POP POP PUSH1 0x20 DUP2 ADD SWAP1 POP PUSH2 0x3D4 JUMP JUMPDEST POP POP POP SWAP4 SWAP3 POP POP POP JUMP JUMPDEST PUSH0 DUP3 PUSH1 0x1F DUP4 ADD SLT PUSH2 0x419 JUMPI PUSH2 0x418 PUSH2 0x288 JUMP JUMPDEST JUMPDEST DUP2 MLOAD PUSH2 0x429 DUP5 DUP3 PUSH1 0x20 DUP7 ADD PUSH2 0x39D JUMP JUMPDEST SWAP2 POP POP SWAP3 SWAP2 POP POP JUMP JUMPDEST PUSH0 PUSH1 0x20 DUP3 DUP5 SUB SLT ISZERO PUSH2 0x447 JUMPI PUSH2 0x446 PUSH2 0x280 JUMP JUMPDEST JUMPDEST PUSH0 DUP3 ADD MLOAD PUSH8 0xFFFFFFFFFFFFFFFF DUP2 GT ISZERO PUSH2 0x464 JUMPI PUSH2 0x463 PUSH2 0x284 JUMP JUMPDEST JUMPDEST PUSH2 0x470 DUP5 DUP3 DUP6 ADD PUSH2 0x405 JUMP JUMPDEST SWAP2 POP POP SWAP3 SWAP2 POP POP JUMP JUMPDEST PUSH32 0x4E487B7100000000000000000000000000000000000000000000000000000000 PUSH0 MSTORE PUSH1 0x32 PUSH1 0x4 MSTORE PUSH1 0x24 PUSH0 REVERT JUMPDEST PUSH2 0x1E53 DUP1 PUSH2 0x4B3 PUSH0 CODECOPY PUSH0 RETURN INVALID PUSH1 0x80 PUSH1 0x40 MSTORE CALLVALUE DUP1 ISZERO PUSH2 0xF JUMPI PUSH0 DUP1 REVERT JUMPDEST POP PUSH1 0x4 CALLDATASIZE LT PUSH2 0x86 JUMPI PUSH0 CALLDATALOAD PUSH1 0xE0 SHR DUP1 PUSH4 0x9E7B8D61 GT PUSH2 0x59 JUMPI DUP1 PUSH4 0x9E7B8D61 EQ PUSH2 0xFC JUMPI DUP1 PUSH4 0xA48BDB7C EQ PUSH2 0x118 JUMPI DUP1 PUSH4 0xCDD72253 EQ PUSH2 0x137 JUMPI DUP1 PUSH4 0xD6451557 EQ PUSH2 0x155 JUMPI PUSH2 0x86 JUMP JUMPDEST DUP1 PUSH4 0x6A49FCE EQ PUSH2 0x8A JUMPI DUP1 PUSH4 0x5BD4E10D EQ PUSH2 0xA8 JUMPI DUP1 PUSH4 0x6DD7D8EA EQ PUSH2 0xC4 JUMPI DUP1 PUSH4 0x9794D8F3 EQ PUSH2 0xE0 JUMPI JUMPDEST PUSH0 DUP1 REVERT JUMPDEST PUSH2 0x92 PUSH2 0x173 JUMP JUMPDEST PUSH1 0x40 MLOAD PUSH2 0x9F SWAP2 SWAP1 PUSH2 0x13B3 JUMP JUMPDEST PUSH1 0x40 MLOAD DUP1 SWAP2 SUB SWAP1 RETURN JUMPDEST PUSH2 0xC2 PUSH1 0x4 DUP1 CALLDATASIZE SUB DUP2 ADD SWAP1 PUSH2 0xBD SWAP2 SWAP1 PUSH2 0x1401 JUMP JUMPDEST PUSH2 0x279 JUMP JUMPDEST STOP JUMPDEST PUSH2 0xDE PUSH1 0x4 DUP1 CALLDATASIZE SUB DUP2 ADD SWAP1 PUSH2 0xD9 SWAP2 SWAP1 PUSH2 0x1401 JUMP JUMPDEST PUSH2 0x756 JUMP JUMPDEST STOP JUMPDEST PUSH2 0xFA PUSH1 0x4 DUP1 CALLDATASIZE SUB DUP2 ADD SWAP1 PUSH2 0xF5 SWAP2 SWAP1 PUSH2 0x145F JUMP JUMPDEST PUSH2 0xAD9 JUMP JUMPDEST STOP JUMPDEST PUSH2 0x116 PUSH1 0x4 DUP1 CALLDATASIZE SUB DUP2 ADD SWAP1 PUSH2 0x111 SWAP2 SWAP1 PUSH2 0x1401 JUMP JUMPDEST PUSH2 0xBF0 JUMP JUMPDEST STOP JUMPDEST PUSH2 0x120 PUSH2 0xE30 JUMP JUMPDEST PUSH1 0x40 MLOAD PUSH2 0x12E SWAP3 SWAP2 SWAP1 PUSH2 0x1541 JUMP JUMPDEST PUSH1 0x40 MLOAD DUP1 SWAP2 SUB SWAP1 RETURN JUMPDEST PUSH2 0x13F PUSH2 0x10E5 JUMP JUMPDEST PUSH1 0x40 MLOAD PUSH2 0x14C SWAP2 SWAP1 PUSH2 0x13B3 JUMP JUMPDEST PUSH1 0x40 MLOAD DUP1 SWAP2 SUB SWAP1 RETURN JUMPDEST PUSH2 0x15D PUSH2 0x11FD JUMP JUMPDEST PUSH1 0x40 MLOAD PUSH2 0x16A SWAP2 SWAP1 PUSH2 0x1585 JUMP JUMPDEST PUSH1 0x40 MLOAD DUP1 SWAP2 SUB SWAP1 RETURN JUMPDEST PUSH1 0x60 PUSH0 PUSH1 0x3 DUP1 SLOAD SWAP1 POP PUSH8 0xFFFFFFFFFFFFFFFF DUP2 GT ISZERO PUSH2 0x195 JUMPI PUSH2 0x194 PUSH2 0x159E JUMP JUMPDEST JUMPDEST PUSH1 0x40 MLOAD SWAP1 DUP1 DUP3 MSTORE DUP1 PUSH1 0x20 MUL PUSH1 0x20 ADD DUP3 ADD PUSH1 0x40 MSTORE DUP1 ISZERO PUSH2 0x1C3 JUMPI DUP2 PUSH1 0x20 ADD PUSH1 0x20 DUP3 MUL DUP1 CALLDATASIZE DUP4 CALLDATACOPY DUP1 DUP3 ADD SWAP2 POP POP SWAP1 POP JUMPDEST POP SWAP1 POP PUSH0 JUMPDEST PUSH1 0x3 DUP1 SLOAD SWAP1 POP DUP2 LT ISZERO PUSH2 0x271 JUMPI PUSH1 0x3 DUP2 DUP2 SLOAD DUP2 LT PUSH2 0x1E9 JUMPI PUSH2 0x1E8 PUSH2 0x15CB JUMP JUMPDEST JUMPDEST SWAP1 PUSH0 MSTORE PUSH1 0x20 PUSH0 KECCAK256 SWAP1 PUSH1 0x2 MUL ADD PUSH0 ADD PUSH0 SWAP1 SLOAD SWAP1 PUSH2 0x100 EXP SWAP1 DIV PUSH20 0xFFFFFFFFFFFFFFFFFFFFFFFFFFFFFFFFFFFFFFFF AND DUP3 DUP3 DUP2 MLOAD DUP2 LT PUSH2 0x22A JUMPI PUSH2 0x229 PUSH2 0x15CB JUMP JUMPDEST JUMPDEST PUSH1 0x20 MUL PUSH1 0x20 ADD ADD SWAP1 PUSH20 0xFFFFFFFFFFFFFFFFFFFFFFFFFFFFFFFFFFFFFFFF AND SWAP1 DUP2 PUSH20 0xFFFFFFFFFFFFFFFFFFFFFFFFFFFFFFFFFFFFFFFF AND DUP2 MSTORE POP POP DUP1 DUP1 PUSH1 0x1 ADD SWAP2 POP POP PUSH2 0x1C8 JUMP JUMPDEST POP DUP1 SWAP2 POP POP SWAP1 JUMP JUMPDEST PUSH1 0x1 SLOAD TIMESTAMP GT PUSH2 0x2BD JUMPI PUSH1 0x40 MLOAD PUSH32 0x8C379A000000000000000000000000000000000000000000000000000000000 DUP2 MSTORE PUSH1 0x4 ADD PUSH2 0x2B4 SWAP1 PUSH2 0x1652 JUMP JUMPDEST PUSH1 0x40 MLOAD DUP1 SWAP2 SUB SWAP1 REVERT JUMPDEST PUSH0 PUSH1 0x2 PUSH0 CALLER PUSH20 0xFFFFFFFFFFFFFFFFFFFFFFFFFFFFFFFFFFFFFFFF AND PUSH20 0xFFFFFFFFFFFFFFFFFFFFFFFFFFFFFFFFFFFFFFFF AND DUP2 MSTORE PUSH1 0x20 ADD SWAP1 DUP2 MSTORE PUSH1 0x20 ADD PUSH0 KECCAK256 PUSH0 ADD SLOAD SUB PUSH2 0x33E JUMPI PUSH1 0x40 MLOAD PUSH32 0x8C379A000000000000000000000000000000000000000000000000000000000 DUP2 MSTORE PUSH1 0x4 ADD PUSH2 0x335 SWAP1 PUSH2 0x16E0 JUMP JUMPDEST PUSH1 0x40 MLOAD DUP1 SWAP2 SUB SWAP1 REVERT JUMPDEST PUSH0 PUSH1 0x2 PUSH0 CALLER PUSH20 0xFFFFFFFFFFFFFFFFFFFFFFFFFFFFFFFFFFFFFFFF AND PUSH20 0xFFFFFFFFFFFFFFFFFFFFFFFFFFFFFFFFFFFFFFFF AND DUP2 MSTORE PUSH1 0x20 ADD SWAP1 DUP2 MSTORE PUSH1 0x20 ADD PUSH0 KECCAK256 PUSH1 0x1 ADD SLOAD SUB PUSH2 0x3C0 JUMPI PUSH1 0x40 MLOAD PUSH32 0x8C379A000000000000000000000000000000000000000000000000000000000 DUP2 MSTORE PUSH1 0x4 ADD PUSH2 0x3B7 SWAP1 PUSH2 0x1748 JUMP JUMPDEST PUSH1 0x40 MLOAD DUP1 SWAP2 SUB SWAP1 REVERT JUMPDEST PUSH1 0x2 DUP1 PUSH0 CALLER PUSH20 0xFFFFFFFFFFFFFFFFFFFFFFFFFFFFFFFFFFFFFFFF AND PUSH20 0xFFFFFFFFFFFFFFFFFFFFFFFFFFFFFFFFFFFFFFFF AND DUP2 MSTORE PUSH1 0x20 ADD SWAP1 DUP2 MSTORE PUSH1 0x20 ADD PUSH0 KECCAK256 PUSH0 ADD SLOAD SUB PUSH2 0x441 JUMPI PUSH1 0x40 MLOAD PUSH32 0x8C379A000000000000000000000000000000000000000000000000000000000 DUP2 MSTORE PUSH1 0x4 ADD PUSH2 0x438 SWAP1 PUSH2 0x17B0 JUMP JUMPDEST PUSH1 0x40 MLOAD DUP1 SWAP2 SUB SWAP1 REVERT JUMPDEST DUP1 PUSH20 0xFFFFFFFFFFFFFFFFFFFFFFFFFFFFFFFFFFFFFFFF AND CALLER PUSH20 0xFFFFFFFFFFFFFFFFFFFFFFFFFFFFFFFFFFFFFFFF AND SUB PUSH2 0x4AF JUMPI PUSH1 0x40 MLOAD PUSH32 0x8C379A000000000000000000000000000000000000000000000000000000000 DUP2 MSTORE PUSH1 0x4 ADD PUSH2 0x4A6 SWAP1 PUSH2 0x183E JUMP JUMPDEST PUSH1 0x40 MLOAD DUP1 SWAP2 SUB SWAP1 REVERT JUMPDEST PUSH0 PUSH1 0x2 PUSH0 DUP4 PUSH20 0xFFFFFFFFFFFFFFFFFFFFFFFFFFFFFFFFFFFFFFFF AND PUSH20 0xFFFFFFFFFFFFFFFFFFFFFFFFFFFFFFFFFFFFFFFF AND DUP2 MSTORE PUSH1 0x20 ADD SWAP1 DUP2 MSTORE PUSH1 0x20 ADD PUSH0 KECCAK256 PUSH0 ADD SLOAD SUB PUSH2 0x530 JUMPI PUSH1 0x40 MLOAD PUSH32 0x8C379A000000000000000000000000000000000000000000000000000000000 DUP2 MSTORE PUSH1 0x4 ADD PUSH2 0x527 SWAP1 PUSH2 0x18CC JUMP JUMPDEST PUSH1 0x40 MLOAD DUP1 SWAP2 SUB SWAP1 REVERT JUMPDEST PUSH1 0x2 DUP1 PUSH0 DUP4 PUSH20 0xFFFFFFFFFFFFFFFFFFFFFFFFFFFFFFFFFFFFFFFF AND PUSH20 0xFFFFFFFFFFFFFFFFFFFFFFFFFFFFFFFFFFFFFFFF AND DUP2 MSTORE PUSH1 0x20 ADD SWAP1 DUP2 MSTORE PUSH1 0x20 ADD PUSH0 KECCAK256 PUSH0 ADD SLOAD SUB PUSH2 0x5B1 JUMPI PUSH1 0x40 MLOAD PUSH32 0x8C379A000000000000000000000000000000000000000000000000000000000 DUP2 MSTORE PUSH1 0x4 ADD PUSH2 0x5A8 SWAP1 PUSH2 0x195A JUMP JUMPDEST PUSH1 0x40 MLOAD DUP1 SWAP2 SUB SWAP1 REVERT JUMPDEST PUSH1 0x2 DUP1 PUSH0 DUP4 PUSH20 0xFFFFFFFFFFFFFFFFFFFFFFFFFFFFFFFFFFFFFFFF AND PUSH20 0xFFFFFFFFFFFFFFFFFFFFFFFFFFFFFFFFFFFFFFFF AND DUP2 MSTORE PUSH1 0x20 ADD SWAP1 DUP2 MSTORE PUSH1 0x20 ADD PUSH0 KECCAK256 PUSH0 ADD DUP2 SWAP1 SSTORE POP PUSH1 0x1 PUSH1 0x2 PUSH0 DUP4 PUSH20 0xFFFFFFFFFFFFFFFFFFFFFFFFFFFFFFFFFFFFFFFF AND PUSH20 0xFFFFFFFFFFFFFFFFFFFFFFFFFFFFFFFFFFFFFFFF AND DUP2 MSTORE PUSH1 0x20 ADD SWAP1 DUP2 MSTORE PUSH1 0x20 ADD PUSH0 KECCAK256 PUSH1 0x1 ADD PUSH0 DUP3 DUP3 SLOAD PUSH2 0x645 SWAP2 SWAP1 PUSH2 0x19A5 JUMP JUMPDEST SWAP3 POP POP DUP2 SWAP1 SSTORE POP PUSH0 PUSH1 0x2 PUSH0 CALLER PUSH20 0xFFFFFFFFFFFFFFFFFFFFFFFFFFFFFFFFFFFFFFFF AND PUSH20 0xFFFFFFFFFFFFFFFFFFFFFFFFFFFFFFFFFFFFFFFF AND DUP2 MSTORE PUSH1 0x20 ADD SWAP1 DUP2 MSTORE PUSH1 0x20 ADD PUSH0 KECCAK256 PUSH0 ADD DUP2 SWAP1 SSTORE POP PUSH0 PUSH1 0x2 PUSH0 CALLER PUSH20 0xFFFFFFFFFFFFFFFFFFFFFFFFFFFFFFFFFFFFFFFF AND PUSH20 0xFFFFFFFFFFFFFFFFFFFFFFFFFFFFFFFFFFFFFFFF AND DUP2 MSTORE PUSH1 0x20 ADD SWAP1 DUP2 MSTORE PUSH1 0x20 ADD PUSH0 KECCAK256 PUSH1 0x1 ADD DUP2 SWAP1 SSTORE POP DUP1 PUSH1 0x2 PUSH0 CALLER PUSH20 0xFFFFFFFFFFFFFFFFFFFFFFFFFFFFFFFFFFFFFFFF AND PUSH20 0xFFFFFFFFFFFFFFFFFFFFFFFFFFFFFFFFFFFFFFFF AND DUP2 MSTORE PUSH1 0x20 ADD SWAP1 DUP2 MSTORE PUSH1 0x20 ADD PUSH0 KECCAK256 PUSH1 0x2 ADD PUSH0 PUSH2 0x100 EXP DUP2 SLOAD DUP2 PUSH20 0xFFFFFFFFFFFFFFFFFFFFFFFFFFFFFFFFFFFFFFFF MUL NOT AND SWAP1 DUP4 PUSH20 0xFFFFFFFFFFFFFFFFFFFFFFFFFFFFFFFFFFFFFFFF AND MUL OR SWAP1 SSTORE POP POP JUMP JUMPDEST PUSH1 0x1 SLOAD TIMESTAMP GT ISZERO PUSH2 0x79B JUMPI PUSH1 0x40 MLOAD PUSH32 0x8C379A000000000000000000000000000000000000000000000000000000000 DUP2 MSTORE PUSH1 0x4 ADD PUSH2 0x792 SWAP1 PUSH2 0x1A22 JUMP JUMPDEST PUSH1 0x40 MLOAD DUP1 SWAP2 SUB SWAP1 REVERT JUMPDEST PUSH0 PUSH20 0xFFFFFFFFFFFFFFFFFFFFFFFFFFFFFFFFFFFFFFFF AND PUSH1 0x2 PUSH0 CALLER PUSH20 0xFFFFFFFFFFFFFFFFFFFFFFFFFFFFFFFFFFFFFFFF AND PUSH20 0xFFFFFFFFFFFFFFFFFFFFFFFFFFFFFFFFFFFFFFFF AND DUP2 MSTORE PUSH1 0x20 ADD SWAP1 DUP2 MSTORE PUSH1 0x20 ADD PUSH0 KECCAK256 PUSH1 0x2 ADD PUSH0 SWAP1 SLOAD SWAP1 PUSH2 0x100 EXP SWAP1 DIV PUSH20 0xFFFFFFFFFFFFFFFFFFFFFFFFFFFFFFFFFFFFFFFF AND PUSH20 0xFFFFFFFFFFFFFFFFFFFFFFFFFFFFFFFFFFFFFFFF AND EQ PUSH2 0x868 JUMPI PUSH1 0x40 MLOAD PUSH32 0x8C379A000000000000000000000000000000000000000000000000000000000 DUP2 MSTORE PUSH1 0x4 ADD PUSH2 0x85F SWAP1 PUSH2 0x1AB0 JUMP JUMPDEST PUSH1 0x40 MLOAD DUP1 SWAP2 SUB SWAP1 REVERT JUMPDEST PUSH0 PUSH1 0x2 PUSH0 CALLER PUSH20 0xFFFFFFFFFFFFFFFFFFFFFFFFFFFFFFFFFFFFFFFF AND PUSH20 0xFFFFFFFFFFFFFFFFFFFFFFFFFFFFFFFFFFFFFFFF AND DUP2 MSTORE PUSH1 0x20 ADD SWAP1 DUP2 MSTORE PUSH1 0x20 ADD PUSH0 KECCAK256 PUSH0 ADD SLOAD SUB PUSH2 0x8E9 JUMPI PUSH1 0x40 MLOAD PUSH32 0x8C379A000000000000000000000000000000000000000000000000000000000 DUP2 MSTORE PUSH1 0x4 ADD PUSH2 0x8E0 SWAP1 PUSH2 0x16E0 JUMP JUMPDEST PUSH1 0x40 MLOAD DUP1 SWAP2 SUB SWAP1 REVERT JUMPDEST PUSH0 PUSH1 0x2 PUSH0 CALLER PUSH20 0xFFFFFFFFFFFFFFFFFFFFFFFFFFFFFFFFFFFFFFFF AND PUSH20 0xFFFFFFFFFFFFFFFFFFFFFFFFFFFFFFFFFFFFFFFF AND DUP2 MSTORE PUSH1 0x20 ADD SWAP1 DUP2 MSTORE PUSH1 0x20 ADD PUSH0 KECCAK256 PUSH1 0x1 ADD SLOAD SUB PUSH2 0x96B JUMPI PUSH1 0x40 MLOAD PUSH32 0x8C379A000000000000000000000000000000000000000000000000000000000 DUP2 MSTORE PUSH1 0x4 ADD PUSH2 0x962 SWAP1 PUSH2 0x1748 JUMP JUMPDEST PUSH1 0x40 MLOAD DUP1 SWAP2 SUB SWAP1 REVERT JUMPDEST PUSH2 0x974 DUP2 PUSH2 0x1224 JUMP JUMPDEST PUSH2 0x9B3 JUMPI PUSH1 0x40 MLOAD PUSH32 0x8C379A000000000000000000000000000000000000000000000000000000000 DUP2 MSTORE PUSH1 0x4 ADD PUSH2 0x9AA SWAP1 PUSH2 0x1B18 JUMP JUMPDEST PUSH1 0x40 MLOAD DUP1 SWAP2 SUB SWAP1 REVERT JUMPDEST PUSH0 JUMPDEST PUSH1 0x3 DUP1 SLOAD SWAP1 POP DUP2 LT ISZERO PUSH2 0xA80 JUMPI DUP2 PUSH20 0xFFFFFFFFFFFFFFFFFFFFFFFFFFFFFFFFFFFFFFFF AND PUSH1 0x3 DUP3 DUP2 SLOAD DUP2 LT PUSH2 0x9ED JUMPI PUSH2 0x9EC PUSH2 0x15CB JUMP JUMPDEST JUMPDEST SWAP1 PUSH0 MSTORE PUSH1 0x20 PUSH0 KECCAK256 SWAP1 PUSH1 0x2 MUL ADD PUSH0 ADD PUSH0 SWAP1 SLOAD SWAP1 PUSH2 0x100 EXP SWAP1 DIV PUSH20 0xFFFFFFFFFFFFFFFFFFFFFFFFFFFFFFFFFFFFFFFF AND PUSH20 0xFFFFFFFFFFFFFFFFFFFFFFFFFFFFFFFFFFFFFFFF AND SUB PUSH2 0xA73 JUMPI PUSH1 0x3 DUP2 DUP2 SLOAD DUP2 LT PUSH2 0xA4A JUMPI PUSH2 0xA49 PUSH2 0x15CB JUMP JUMPDEST JUMPDEST SWAP1 PUSH0 MSTORE PUSH1 0x20 PUSH0 KECCAK256 SWAP1 PUSH1 0x2 MUL ADD PUSH1 0x1 ADD PUSH0 DUP2 SLOAD DUP1 SWAP3 SWAP2 SWAP1 PUSH2 0xA69 SWAP1 PUSH2 0x1B36 JUMP JUMPDEST SWAP2 SWAP1 POP SSTORE POP PUSH2 0xA80 JUMP JUMPDEST DUP1 DUP1 PUSH1 0x1 ADD SWAP2 POP POP PUSH2 0x9B5 JUMP JUMPDEST POP PUSH1 0x2 PUSH0 CALLER PUSH20 0xFFFFFFFFFFFFFFFFFFFFFFFFFFFFFFFFFFFFFFFF AND PUSH20 0xFFFFFFFFFFFFFFFFFFFFFFFFFFFFFFFFFFFFFFFF AND DUP2 MSTORE PUSH1 0x20 ADD SWAP1 DUP2 MSTORE PUSH1 0x20 ADD PUSH0 KECCAK256 PUSH1 0x1 ADD PUSH0 DUP2 SLOAD DUP1 SWAP3 SWAP2 SWAP1 PUSH2 0xAD1 SWAP1 PUSH2 0x1B7D JUMP JUMPDEST SWAP2 SWAP1 POP SSTORE POP POP JUMP JUMPDEST PUSH0 DUP1 SLOAD SWAP1 PUSH2 0x100 EXP SWAP1 DIV PUSH20 0xFFFFFFFFFFFFFFFFFFFFFFFFFFFFFFFFFFFFFFFF AND PUSH20 0xFFFFFFFFFFFFFFFFFFFFFFFFFFFFFFFFFFFFFFFF AND CALLER PUSH20 0xFFFFFFFFFFFFFFFFFFFFFFFFFFFFFFFFFFFFFFFF AND EQ PUSH2 0xB66 JUMPI PUSH1 0x40 MLOAD PUSH32 0x8C379A000000000000000000000000000000000000000000000000000000000 DUP2 MSTORE PUSH1 0x4 ADD PUSH2 0xB5D SWAP1 PUSH2 0x1C14 JUMP JUMPDEST PUSH1 0x40 MLOAD DUP1 SWAP2 SUB SWAP1 REVERT JUMPDEST PUSH0 PUSH1 0x14 SWAP1 SLOAD SWAP1 PUSH2 0x100 EXP SWAP1 DIV PUSH1 0xFF AND ISZERO PUSH2 0xBB5 JUMPI PUSH1 0x40 MLOAD PUSH32 0x8C379A000000000000000000000000000000000000000000000000000000000 DUP2 MSTORE PUSH1 0x4 ADD PUSH2 0xBAC SWAP1 PUSH2 0x1CA2 JUMP JUMPDEST PUSH1 0x40 MLOAD DUP1 SWAP2 SUB SWAP1 REVERT JUMPDEST PUSH1 0x3C DUP2 PUSH2 0xBC2 SWAP2 SWAP1 PUSH2 0x1CC0 JUMP JUMPDEST TIMESTAMP PUSH2 0xBCD SWAP2 SWAP1 PUSH2 0x19A5 JUMP JUMPDEST PUSH1 0x1 DUP2 SWAP1 SSTORE POP PUSH1 0x1 PUSH0 PUSH1 0x14 PUSH2 0x100 EXP DUP2 SLOAD DUP2 PUSH1 0xFF MUL NOT AND SWAP1 DUP4 ISZERO ISZERO MUL OR SWAP1 SSTORE POP POP JUMP JUMPDEST PUSH1 0x1 SLOAD TIMESTAMP GT PUSH2 0xC34 JUMPI PUSH1 0x40 MLOAD PUSH32 0x8C379A000000000000000000000000000000000000000000000000000000000 DUP2 MSTORE PUSH1 0x4 ADD PUSH2 0xC2B SWAP1 PUSH2 0x1652 JUMP JUMPDEST PUSH1 0x40 MLOAD DUP1 SWAP2 SUB SWAP1 REVERT JUMPDEST PUSH0 DUP1 SLOAD SWAP1 PUSH2 0x100 EXP SWAP1 DIV PUSH20 0xFFFFFFFFFFFFFFFFFFFFFFFFFFFFFFFFFFFFFFFF AND PUSH20 0xFFFFFFFFFFFFFFFFFFFFFFFFFFFFFFFFFFFFFFFF AND CALLER PUSH20 0xFFFFFFFFFFFFFFFFFFFFFFFFFFFFFFFFFFFFFFFF AND EQ PUSH2 0xCC1 JUMPI PUSH1 0x40 MLOAD PUSH32 0x8C379A000000000000000000000000000000000000000000000000000000000 DUP2 MSTORE PUSH1 0x4 ADD PUSH2 0xCB8 SWAP1 PUSH2 0x1C14 JUMP JUMPDEST PUSH1 0x40 MLOAD DUP1 SWAP2 SUB SWAP1 REVERT JUMPDEST PUSH0 PUSH1 0x2 PUSH0 DUP4 PUSH20 0xFFFFFFFFFFFFFFFFFFFFFFFFFFFFFFFFFFFFFFFF AND PUSH20 0xFFFFFFFFFFFFFFFFFFFFFFFFFFFFFFFFFFFFFFFF AND DUP2 MSTORE PUSH1 0x20 ADD SWAP1 DUP2 MSTORE PUSH1 0x20 ADD PUSH0 KECCAK256 PUSH0 ADD SLOAD EQ PUSH2 0xD42 JUMPI PUSH1 0x40 MLOAD PUSH32 0x8C379A000000000000000000000000000000000000000000000000000000000 DUP2 MSTORE PUSH1 0x4 ADD PUSH2 0xD39 SWAP1 PUSH2 0x1D71 JUMP JUMPDEST PUSH1 0x40 MLOAD DUP1 SWAP2 SUB SWAP1 REVERT JUMPDEST PUSH1 0x1 PUSH1 0x2 PUSH0 DUP4 PUSH20 0xFFFFFFFFFFFFFFFFFFFFFFFFFFFFFFFFFFFFFFFF AND PUSH20 0xFFFFFFFFFFFFFFFFFFFFFFFFFFFFFFFFFFFFFFFF AND DUP2 MSTORE PUSH1 0x20 ADD SWAP1 DUP2 MSTORE PUSH1 0x20 ADD PUSH0 KECCAK256 PUSH0 ADD DUP2 SWAP1 SSTORE POP PUSH1 0x1 PUSH1 0x2 PUSH0 DUP4 PUSH20 0xFFFFFFFFFFFFFFFFFFFFFFFFFFFFFFFFFFFFFFFF AND PUSH20 0xFFFFFFFFFFFFFFFFFFFFFFFFFFFFFFFFFFFFFFFF AND DUP2 MSTORE PUSH1 0x20 ADD SWAP1 DUP2 MSTORE PUSH1 0x20 ADD PUSH0 KECCAK256 PUSH1 0x1 ADD DUP2 SWAP1 SSTORE POP PUSH1 0x4 DUP2 SWAP1 DUP1 PUSH1 0x1 DUP2 SLOAD ADD DUP1 DUP3 SSTORE DUP1 SWAP2 POP POP PUSH1 0x1 SWAP1 SUB SWAP1 PUSH0 MSTORE PUSH1 0x20 PUSH0 KECCAK256 ADD PUSH0 SWAP1 SWAP2 SWAP1 SWAP2 SWAP1 SWAP2 PUSH2 0x100 EXP DUP2 SLOAD DUP2 PUSH20 0xFFFFFFFFFFFFFFFFFFFFFFFFFFFFFFFFFFFFFFFF MUL NOT AND SWAP1 DUP4 PUSH20 0xFFFFFFFFFFFFFFFFFFFFFFFFFFFFFFFFFFFFFFFF AND MUL OR SWAP1 SSTORE POP POP JUMP JUMPDEST PUSH1 0x60 DUP1 PUSH1 0x1 SLOAD TIMESTAMP GT PUSH2 0xE77 JUMPI PUSH1 0x40 MLOAD PUSH32 0x8C379A000000000000000000000000000000000000000000000000000000000 DUP2 MSTORE PUSH1 0x4 ADD PUSH2 0xE6E SWAP1 PUSH2 0x1652 JUMP JUMPDEST PUSH1 0x40 MLOAD DUP1 SWAP2 SUB SWAP1 REVERT JUMPDEST PUSH0 DUP1 SLOAD SWAP1 PUSH2 0x100 EXP SWAP1 DIV PUSH20 0xFFFFFFFFFFFFFFFFFFFFFFFFFFFFFFFFFFFFFFFF AND PUSH20 0xFFFFFFFFFFFFFFFFFFFFFFFFFFFFFFFFFFFFFFFF AND CALLER PUSH20 0xFFFFFFFFFFFFFFFFFFFFFFFFFFFFFFFFFFFFFFFF AND EQ PUSH2 0xF04 JUMPI PUSH1 0x40 MLOAD PUSH32 0x8C379A000000000000000000000000000000000000000000000000000000000 DUP2 MSTORE PUSH1 0x4 ADD PUSH2 0xEFB SWAP1 PUSH2 0x1C14 JUMP JUMPDEST PUSH1 0x40 MLOAD DUP1 SWAP2 SUB SWAP1 REVERT JUMPDEST PUSH0 PUSH1 0x1 SLOAD SUB PUSH2 0xF48 JUMPI PUSH1 0x40 MLOAD PUSH32 0x8C379A000000000000000000000000000000000000000000000000000000000 DUP2 MSTORE PUSH1 0x4 ADD PUSH2 0xF3F SWAP1 PUSH2 0x1DFF JUMP JUMPDEST PUSH1 0x40 MLOAD DUP1 SWAP2 SUB SWAP1 REVERT JUMPDEST PUSH0 PUSH1 0x3 DUP1 SLOAD SWAP1 POP PUSH8 0xFFFFFFFFFFFFFFFF DUP2 GT ISZERO PUSH2 0xF68 JUMPI PUSH2 0xF67 PUSH2 0x159E JUMP JUMPDEST JUMPDEST PUSH1 0x40 MLOAD SWAP1 DUP1 DUP3 MSTORE DUP1 PUSH1 0x20 MUL PUSH1 0x20 ADD DUP3 ADD PUSH1 0x40 MSTORE DUP1 ISZERO PUSH2 0xF96 JUMPI DUP2 PUSH1 0x20 ADD PUSH1 0x20 DUP3 MUL DUP1 CALLDATASIZE DUP4 CALLDATACOPY DUP1 DUP3 ADD SWAP2 POP POP SWAP1 POP JUMPDEST POP SWAP1 POP PUSH0 PUSH1 0x3 DUP1 SLOAD SWAP1 POP PUSH8 0xFFFFFFFFFFFFFFFF DUP2 GT ISZERO PUSH2 0xFB9 JUMPI PUSH2 0xFB8 PUSH2 0x159E JUMP JUMPDEST JUMPDEST PUSH1 0x40 MLOAD SWAP1 DUP1 DUP3 MSTORE DUP1 PUSH1 0x20 MUL PUSH1 0x20 ADD DUP3 ADD PUSH1 0x40 MSTORE DUP1 ISZERO PUSH2 0xFE7 JUMPI DUP2 PUSH1 0x20 ADD PUSH1 0x20 DUP3 MUL DUP1 CALLDATASIZE DUP4 CALLDATACOPY DUP1 DUP3 ADD SWAP2 POP POP SWAP1 POP JUMPDEST POP SWAP1 POP PUSH0 JUMPDEST PUSH1 0x3 DUP1 SLOAD SWAP1 POP DUP2 LT ISZERO PUSH2 0x10D8 JUMPI PUSH1 0x3 DUP2 DUP2 SLOAD DUP2 LT PUSH2 0x100D JUMPI PUSH2 0x100C PUSH2 0x15CB JUMP JUMPDEST JUMPDEST SWAP1 PUSH0 MSTORE PUSH1 0x20 PUSH0 KECCAK256 SWAP1 PUSH1 0x2 MUL ADD PUSH0 ADD PUSH0 SWAP1 SLOAD SWAP1 PUSH2 0x100 EXP SWAP1 DIV PUSH20 0xFFFFFFFFFFFFFFFFFFFFFFFFFFFFFFFFFFFFFFFF AND DUP4 DUP3 DUP2 MLOAD DUP2 LT PUSH2 0x104E JUMPI PUSH2 0x104D PUSH2 0x15CB JUMP JUMPDEST JUMPDEST PUSH1 0x20 MUL PUSH1 0x20 ADD ADD SWAP1 PUSH20 0xFFFFFFFFFFFFFFFFFFFFFFFFFFFFFFFFFFFFFFFF AND SWAP1 DUP2 PUSH20 0xFFFFFFFFFFFFFFFFFFFFFFFFFFFFFFFFFFFFFFFF AND DUP2 MSTORE POP POP PUSH1 0x3 DUP2 DUP2 SLOAD DUP2 LT PUSH2 0x109C JUMPI PUSH2 0x109B PUSH2 0x15CB JUMP JUMPDEST JUMPDEST SWAP1 PUSH0 MSTORE PUSH1 0x20 PUSH0 KECCAK256 SWAP1 PUSH1 0x2 MUL ADD PUSH1 0x1 ADD SLOAD DUP3 DUP3 DUP2 MLOAD DUP2 LT PUSH2 0x10BF JUMPI PUSH2 0x10BE PUSH2 0x15CB JUMP JUMPDEST JUMPDEST PUSH1 0x20 MUL PUSH1 0x20 ADD ADD DUP2 DUP2 MSTORE POP POP DUP1 DUP1 PUSH1 0x1 ADD SWAP2 POP POP PUSH2 0xFEC JUMP JUMPDEST POP DUP2 DUP2 SWAP4 POP SWAP4 POP POP POP SWAP1 SWAP2 JUMP JUMPDEST PUSH1 0x60 PUSH0 DUP1 SLOAD SWAP1 PUSH2 0x100 EXP SWAP1 DIV PUSH20 0xFFFFFFFFFFFFFFFFFFFFFFFFFFFFFFFFFFFFFFFF AND PUSH20 0xFFFFFFFFFFFFFFFFFFFFFFFFFFFFFFFFFFFFFFFF AND CALLER PUSH20 0xFFFFFFFFFFFFFFFFFFFFFFFFFFFFFFFFFFFFFFFF AND EQ PUSH2 0x1174 JUMPI PUSH1 0x40 MLOAD PUSH32 0x8C379A000000000000000000000000000000000000000000000000000000000 DUP2 MSTORE PUSH1 0x4 ADD PUSH2 0x116B SWAP1 PUSH2 0x1C14 JUMP JUMPDEST PUSH1 0x40 MLOAD DUP1 SWAP2 SUB SWAP1 REVERT JUMPDEST PUSH1 0x4 DUP1 SLOAD DUP1 PUSH1 0x20 MUL PUSH1 0x20 ADD PUSH1 0x40 MLOAD SWAP1 DUP2 ADD PUSH1 0x40 MSTORE DUP1 SWAP3 SWAP2 SWAP1 DUP2 DUP2 MSTORE PUSH1 0x20 ADD DUP3 DUP1 SLOAD DUP1 ISZERO PUSH2 0x11F3 JUMPI PUSH1 0x20 MUL DUP3 ADD SWAP2 SWAP1 PUSH0 MSTORE PUSH1 0x20 PUSH0 KECCAK256 SWAP1 JUMPDEST DUP2 PUSH0 SWAP1 SLOAD SWAP1 PUSH2 0x100 EXP SWAP1 DIV PUSH20 0xFFFFFFFFFFFFFFFFFFFFFFFFFFFFFFFFFFFFFFFF AND PUSH20 0xFFFFFFFFFFFFFFFFFFFFFFFFFFFFFFFFFFFFFFFF AND DUP2 MSTORE PUSH1 0x20 ADD SWAP1 PUSH1 0x1 ADD SWAP1 DUP1 DUP4 GT PUSH2 0x11AA JUMPI JUMPDEST POP POP POP POP POP SWAP1 POP SWAP1 JUMP JUMPDEST PUSH0 DUP1 PUSH0 SWAP1 SLOAD SWAP1 PUSH2 0x100 EXP SWAP1 DIV PUSH20 0xFFFFFFFFFFFFFFFFFFFFFFFFFFFFFFFFFFFFFFFF AND SWAP1 POP SWAP1 JUMP JUMPDEST PUSH0 DUP1 PUSH0 SWAP1 POP JUMPDEST PUSH1 0x3 DUP1 SLOAD SWAP1 POP DUP2 LT ISZERO PUSH2 0x12C2 JUMPI DUP3 PUSH20 0xFFFFFFFFFFFFFFFFFFFFFFFFFFFFFFFFFFFFFFFF AND PUSH1 0x3 DUP3 DUP2 SLOAD DUP2 LT PUSH2 0x1262 JUMPI PUSH2 0x1261 PUSH2 0x15CB JUMP JUMPDEST JUMPDEST SWAP1 PUSH0 MSTORE PUSH1 0x20 PUSH0 KECCAK256 SWAP1 PUSH1 0x2 MUL ADD PUSH0 ADD PUSH0 SWAP1 SLOAD SWAP1 PUSH2 0x100 EXP SWAP1 DIV PUSH20 0xFFFFFFFFFFFFFFFFFFFFFFFFFFFFFFFFFFFFFFFF AND PUSH20 0xFFFFFFFFFFFFFFFFFFFFFFFFFFFFFFFFFFFFFFFF AND SUB PUSH2 0x12B5 JUMPI PUSH1 0x1 SWAP2 POP POP PUSH2 0x12C7 JUMP JUMPDEST DUP1 DUP1 PUSH1 0x1 ADD SWAP2 POP POP PUSH2 0x122A JUMP JUMPDEST POP PUSH0 SWAP1 POP JUMPDEST SWAP2 SWAP1 POP JUMP JUMPDEST PUSH0 DUP2 MLOAD SWAP1 POP SWAP2 SWAP1 POP JUMP JUMPDEST PUSH0 DUP3 DUP3 MSTORE PUSH1 0x20 DUP3 ADD SWAP1 POP SWAP3 SWAP2 POP POP JUMP JUMPDEST PUSH0 DUP2 SWAP1 POP PUSH1 0x20 DUP3 ADD SWAP1 POP SWAP2 SWAP1 POP JUMP JUMPDEST PUSH0 PUSH20 0xFFFFFFFFFFFFFFFFFFFFFFFFFFFFFFFFFFFFFFFF DUP3 AND SWAP1 POP SWAP2 SWAP1 POP JUMP JUMPDEST PUSH0 PUSH2 0x131E DUP3 PUSH2 0x12F5 JUMP JUMPDEST SWAP1 POP SWAP2 SWAP1 POP JUMP JUMPDEST PUSH2 0x132E DUP2 PUSH2 0x1314 JUMP JUMPDEST DUP3 MSTORE POP POP JUMP JUMPDEST PUSH0 PUSH2 0x133F DUP4 DUP4 PUSH2 0x1325 JUMP JUMPDEST PUSH1 0x20 DUP4 ADD SWAP1 POP SWAP3 SWAP2 POP POP JUMP JUMPDEST PUSH0 PUSH1 0x20 DUP3 ADD SWAP1 POP SWAP2 SWAP1 POP JUMP JUMPDEST PUSH0 PUSH2 0x1361 DUP3 PUSH2 0x12CC JUMP JUMPDEST PUSH2 0x136B DUP2 DUP6 PUSH2 0x12D6 JUMP JUMPDEST SWAP4 POP PUSH2 0x1376 DUP4 PUSH2 0x12E6 JUMP JUMPDEST DUP1 PUSH0 JUMPDEST DUP4 DUP2 LT ISZERO PUSH2 0x13A6 JUMPI DUP2 MLOAD PUSH2 0x138D DUP9 DUP3 PUSH2 0x1334 JUMP JUMPDEST SWAP8 POP PUSH2 0x1398 DUP4 PUSH2 0x134B JUMP JUMPDEST SWAP3 POP POP PUSH1 0x1 DUP2 ADD SWAP1 POP PUSH2 0x1379 JUMP JUMPDEST POP DUP6 SWAP4 POP POP POP POP SWAP3 SWAP2 POP POP JUMP JUMPDEST PUSH0 PUSH1 0x20 DUP3 ADD SWAP1 POP DUP2 DUP2 SUB PUSH0 DUP4 ADD MSTORE PUSH2 0x13CB DUP2 DUP5 PUSH2 0x1357 JUMP JUMPDEST SWAP1 POP SWAP3 SWAP2 POP POP JUMP JUMPDEST PUSH0 DUP1 REVERT JUMPDEST PUSH2 0x13E0 DUP2 PUSH2 0x1314 JUMP JUMPDEST DUP2 EQ PUSH2 0x13EA JUMPI PUSH0 DUP1 REVERT JUMPDEST POP JUMP JUMPDEST PUSH0 DUP2 CALLDATALOAD SWAP1 POP PUSH2 0x13FB DUP2 PUSH2 0x13D7 JUMP JUMPDEST SWAP3 SWAP2 POP POP JUMP JUMPDEST PUSH0 PUSH1 0x20 DUP3 DUP5 SUB SLT ISZERO PUSH2 0x1416 JUMPI PUSH2 0x1415 PUSH2 0x13D3 JUMP JUMPDEST JUMPDEST PUSH0 PUSH2 0x1423 DUP5 DUP3 DUP6 ADD PUSH2 0x13ED JUMP JUMPDEST SWAP2 POP POP SWAP3 SWAP2 POP POP JUMP JUMPDEST PUSH0 DUP2 SWAP1 POP SWAP2 SWAP1 POP JUMP JUMPDEST PUSH2 0x143E DUP2 PUSH2 0x142C JUMP JUMPDEST DUP2 EQ PUSH2 0x1448 JUMPI PUSH0 DUP1 REVERT JUMPDEST POP JUMP JUMPDEST PUSH0 DUP2 CALLDATALOAD SWAP1 POP PUSH2 0x1459 DUP2 PUSH2 0x1435 JUMP JUMPDEST SWAP3 SWAP2 POP POP JUMP JUMPDEST PUSH0 PUSH1 0x20 DUP3 DUP5 SUB SLT ISZERO PUSH2 0x1474 JUMPI PUSH2 0x1473 PUSH2 0x13D3 JUMP JUMPDEST JUMPDEST PUSH0 PUSH2 0x1481 DUP5 DUP3 DUP6 ADD PUSH2 0x144B JUMP JUMPDEST SWAP2 POP POP SWAP3 SWAP2 POP POP JUMP JUMPDEST PUSH0 DUP2 MLOAD SWAP1 POP SWAP2 SWAP1 POP JUMP JUMPDEST PUSH0 DUP3 DUP3 MSTORE PUSH1 0x20 DUP3 ADD SWAP1 POP SWAP3 SWAP2 POP POP JUMP JUMPDEST PUSH0 DUP2 SWAP1 POP PUSH1 0x20 DUP3 ADD SWAP1 POP SWAP2 SWAP1 POP JUMP JUMPDEST PUSH2 0x14BC DUP2 PUSH2 0x142C JUMP JUMPDEST DUP3 MSTORE POP POP JUMP JUMPDEST PUSH0 PUSH2 0x14CD DUP4 DUP4 PUSH2 0x14B3 JUMP JUMPDEST PUSH1 0x20 DUP4 ADD SWAP1 POP SWAP3 SWAP2 POP POP JUMP JUMPDEST PUSH0 PUSH1 0x20 DUP3 ADD SWAP1 POP SWAP2 SWAP1 POP JUMP JUMPDEST PUSH0 PUSH2 0x14EF DUP3 PUSH2 0x148A JUMP JUMPDEST PUSH2 0x14F9 DUP2 DUP6 PUSH2 0x1494 JUMP JUMPDEST SWAP4 POP PUSH2 0x1504 DUP4 PUSH2 0x14A4 JUMP JUMPDEST DUP1 PUSH0 JUMPDEST DUP4 DUP2 LT ISZERO PUSH2 0x1534 JUMPI DUP2 MLOAD PUSH2 0x151B DUP9 DUP3 PUSH2 0x14C2 JUMP JUMPDEST SWAP8 POP PUSH2 0x1526 DUP4 PUSH2 0x14D9 JUMP JUMPDEST SWAP3 POP POP PUSH1 0x1 DUP2 ADD SWAP1 POP PUSH2 0x1507 JUMP JUMPDEST POP DUP6 SWAP4 POP POP POP POP SWAP3 SWAP2 POP POP JUMP JUMPDEST PUSH0 PUSH1 0x40 DUP3 ADD SWAP1 POP DUP2 DUP2 SUB PUSH0 DUP4 ADD MSTORE PUSH2 0x1559 DUP2 DUP6 PUSH2 0x1357 JUMP JUMPDEST SWAP1 POP DUP2 DUP2 SUB PUSH1 0x20 DUP4 ADD MSTORE PUSH2 0x156D DUP2 DUP5 PUSH2 0x14E5 JUMP JUMPDEST SWAP1 POP SWAP4 SWAP3 POP POP POP JUMP JUMPDEST PUSH2 0x157F DUP2 PUSH2 0x1314 JUMP JUMPDEST DUP3 MSTORE POP POP JUMP JUMPDEST PUSH0 PUSH1 0x20 DUP3 ADD SWAP1 POP PUSH2 0x1598 PUSH0 DUP4 ADD DUP5 PUSH2 0x1576 JUMP JUMPDEST SWAP3 SWAP2 POP POP JUMP JUMPDEST PUSH32 0x4E487B7100000000000000000000000000000000000000000000000000000000 PUSH0 MSTORE PUSH1 0x41 PUSH1 0x4 MSTORE PUSH1 0x24 PUSH0 REVERT JUMPDEST PUSH32 0x4E487B7100000000000000000000000000000000000000000000000000000000 PUSH0 MSTORE PUSH1 0x32 PUSH1 0x4 MSTORE PUSH1 0x24 PUSH0 REVERT JUMPDEST PUSH0 DUP3 DUP3 MSTORE PUSH1 0x20 DUP3 ADD SWAP1 POP SWAP3 SWAP2 POP POP JUMP JUMPDEST PUSH32 0x54686520766F74696E672073657373696F6E206973206F70656E000000000000 PUSH0 DUP3 ADD MSTORE POP JUMP JUMPDEST PUSH0 PUSH2 0x163C PUSH1 0x1A DUP4 PUSH2 0x15F8 JUMP JUMPDEST SWAP2 POP PUSH2 0x1647 DUP3 PUSH2 0x1608 JUMP JUMPDEST PUSH1 0x20 DUP3 ADD SWAP1 POP SWAP2 SWAP1 POP JUMP JUMPDEST PUSH0 PUSH1 0x20 DUP3 ADD SWAP1 POP DUP2 DUP2 SUB PUSH0 DUP4 ADD MSTORE PUSH2 0x1669 DUP2 PUSH2 0x1630 JUMP JUMPDEST SWAP1 POP SWAP2 SWAP1 POP JUMP JUMPDEST PUSH32 0x596F7520646F206E6F7420686176652074686520726967687420746F20766F74 PUSH0 DUP3 ADD MSTORE PUSH32 0x6500000000000000000000000000000000000000000000000000000000000000 PUSH1 0x20 DUP3 ADD MSTORE POP JUMP JUMPDEST PUSH0 PUSH2 0x16CA PUSH1 0x21 DUP4 PUSH2 0x15F8 JUMP JUMPDEST SWAP2 POP PUSH2 0x16D5 DUP3 PUSH2 0x1670 JUMP JUMPDEST PUSH1 0x40 DUP3 ADD SWAP1 POP SWAP2 SWAP1 POP JUMP JUMPDEST PUSH0 PUSH1 0x20 DUP3 ADD SWAP1 POP DUP2 DUP2 SUB PUSH0 DUP4 ADD MSTORE PUSH2 0x16F7 DUP2 PUSH2 0x16BE JUMP JUMPDEST SWAP1 POP SWAP2 SWAP1 POP JUMP JUMPDEST PUSH32 0x596F75206861766520616C726561647920766F74656400000000000000000000 PUSH0 DUP3 ADD MSTORE POP JUMP JUMPDEST PUSH0 PUSH2 0x1732 PUSH1 0x16 DUP4 PUSH2 0x15F8 JUMP JUMPDEST SWAP2 POP PUSH2 0x173D DUP3 PUSH2 0x16FE JUMP JUMPDEST PUSH1 0x20 DUP3 ADD SWAP1 POP SWAP2 SWAP1 POP JUMP JUMPDEST PUSH0 PUSH1 0x20 DUP3 ADD SWAP1 POP DUP2 DUP2 SUB PUSH0 DUP4 ADD MSTORE PUSH2 0x175F DUP2 PUSH2 0x1726 JUMP JUMPDEST SWAP1 POP SWAP2 SWAP1 POP JUMP JUMPDEST PUSH32 0x596F752061726520612064656C656761746520666F7220736F6D656F6E650000 PUSH0 DUP3 ADD MSTORE POP JUMP JUMPDEST PUSH0 PUSH2 0x179A PUSH1 0x1E DUP4 PUSH2 0x15F8 JUMP JUMPDEST SWAP2 POP PUSH2 0x17A5 DUP3 PUSH2 0x1766 JUMP JUMPDEST PUSH1 0x20 DUP3 ADD SWAP1 POP SWAP2 SWAP1 POP JUMP JUMPDEST PUSH0 PUSH1 0x20 DUP3 ADD SWAP1 POP DUP2 DUP2 SUB PUSH0 DUP4 ADD MSTORE PUSH2 0x17C7 DUP2 PUSH2 0x178E JUMP JUMPDEST SWAP1 POP SWAP2 SWAP1 POP JUMP JUMPDEST PUSH32 0x596F752063616E6E6F74206D616B65206120766F74696E672070726F78792074 PUSH0 DUP3 ADD MSTORE PUSH32 0x6F20796F757273656C6600000000000000000000000000000000000000000000 PUSH1 0x20 DUP3 ADD MSTORE POP JUMP JUMPDEST PUSH0 PUSH2 0x1828 PUSH1 0x2A DUP4 PUSH2 0x15F8 JUMP JUMPDEST SWAP2 POP PUSH2 0x1833 DUP3 PUSH2 0x17CE JUMP JUMPDEST PUSH1 0x40 DUP3 ADD SWAP1 POP SWAP2 SWAP1 POP JUMP JUMPDEST PUSH0 PUSH1 0x20 DUP3 ADD SWAP1 POP DUP2 DUP2 SUB PUSH0 DUP4 ADD MSTORE PUSH2 0x1855 DUP2 PUSH2 0x181C JUMP JUMPDEST SWAP1 POP SWAP2 SWAP1 POP JUMP JUMPDEST PUSH32 0x5468697320706572736F6E20646F6573206E6F74206861766520746865207269 PUSH0 DUP3 ADD MSTORE PUSH32 0x67687420746F20766F7465000000000000000000000000000000000000000000 PUSH1 0x20 DUP3 ADD MSTORE POP JUMP JUMPDEST PUSH0 PUSH2 0x18B6 PUSH1 0x2B DUP4 PUSH2 0x15F8 JUMP JUMPDEST SWAP2 POP PUSH2 0x18C1 DUP3 PUSH2 0x185C JUMP JUMPDEST PUSH1 0x40 DUP3 ADD SWAP1 POP SWAP2 SWAP1 POP JUMP JUMPDEST PUSH0 PUSH1 0x20 DUP3 ADD SWAP1 POP DUP2 DUP2 SUB PUSH0 DUP4 ADD MSTORE PUSH2 0x18E3 DUP2 PUSH2 0x18AA JUMP JUMPDEST SWAP1 POP SWAP2 SWAP1 POP JUMP JUMPDEST PUSH32 0x5468697320706572736F6E20697320616C726561647920612064656C65676174 PUSH0 DUP3 ADD MSTORE PUSH32 0x6520666F7220736F6D656F6E6500000000000000000000000000000000000000 PUSH1 0x20 DUP3 ADD MSTORE POP JUMP JUMPDEST PUSH0 PUSH2 0x1944 PUSH1 0x2D DUP4 PUSH2 0x15F8 JUMP JUMPDEST SWAP2 POP PUSH2 0x194F DUP3 PUSH2 0x18EA JUMP JUMPDEST PUSH1 0x40 DUP3 ADD SWAP1 POP SWAP2 SWAP1 POP JUMP JUMPDEST PUSH0 PUSH1 0x20 DUP3 ADD SWAP1 POP DUP2 DUP2 SUB PUSH0 DUP4 ADD MSTORE PUSH2 0x1971 DUP2 PUSH2 0x1938 JUMP JUMPDEST SWAP1 POP SWAP2 SWAP1 POP JUMP JUMPDEST PUSH32 0x4E487B7100000000000000000000000000000000000000000000000000000000 PUSH0 MSTORE PUSH1 0x11 PUSH1 0x4 MSTORE PUSH1 0x24 PUSH0 REVERT JUMPDEST PUSH0 PUSH2 0x19AF DUP3 PUSH2 0x142C JUMP JUMPDEST SWAP2 POP PUSH2 0x19BA DUP4 PUSH2 0x142C JUMP JUMPDEST SWAP3 POP DUP3 DUP3 ADD SWAP1 POP DUP1 DUP3 GT ISZERO PUSH2 0x19D2 JUMPI PUSH2 0x19D1 PUSH2 0x1978 JUMP JUMPDEST JUMPDEST SWAP3 SWAP2 POP POP JUMP JUMPDEST PUSH32 0x54686520766F74696E672073657373696F6E20697320636C6F73656400000000 PUSH0 DUP3 ADD MSTORE POP JUMP JUMPDEST PUSH0 PUSH2 0x1A0C PUSH1 0x1C DUP4 PUSH2 0x15F8 JUMP JUMPDEST SWAP2 POP PUSH2 0x1A17 DUP3 PUSH2 0x19D8 JUMP JUMPDEST PUSH1 0x20 DUP3 ADD SWAP1 POP SWAP2 SWAP1 POP JUMP JUMPDEST PUSH0 PUSH1 0x20 DUP3 ADD SWAP1 POP DUP2 DUP2 SUB PUSH0 DUP4 ADD MSTORE PUSH2 0x1A39 DUP2 PUSH2 0x1A00 JUMP JUMPDEST SWAP1 POP SWAP2 SWAP1 POP JUMP JUMPDEST PUSH32 0x596F75206861766520676976656E20796F757220766F746520746F20736F6D65 PUSH0 DUP3 ADD MSTORE PUSH32 0x6F6E650000000000000000000000000000000000000000000000000000000000 PUSH1 0x20 DUP3 ADD MSTORE POP JUMP JUMPDEST PUSH0 PUSH2 0x1A9A PUSH1 0x23 DUP4 PUSH2 0x15F8 JUMP JUMPDEST SWAP2 POP PUSH2 0x1AA5 DUP3 PUSH2 0x1A40 JUMP JUMPDEST PUSH1 0x40 DUP3 ADD SWAP1 POP SWAP2 SWAP1 POP JUMP JUMPDEST PUSH0 PUSH1 0x20 DUP3 ADD SWAP1 POP DUP2 DUP2 SUB PUSH0 DUP4 ADD MSTORE PUSH2 0x1AC7 DUP2 PUSH2 0x1A8E JUMP JUMPDEST SWAP1 POP SWAP2 SWAP1 POP JUMP JUMPDEST PUSH32 0x5468697320706572736F6E206973206E6F7420612063616E6469646174650000 PUSH0 DUP3 ADD MSTORE POP JUMP JUMPDEST PUSH0 PUSH2 0x1B02 PUSH1 0x1E DUP4 PUSH2 0x15F8 JUMP JUMPDEST SWAP2 POP PUSH2 0x1B0D DUP3 PUSH2 0x1ACE JUMP JUMPDEST PUSH1 0x20 DUP3 ADD SWAP1 POP SWAP2 SWAP1 POP JUMP JUMPDEST PUSH0 PUSH1 0x20 DUP3 ADD SWAP1 POP DUP2 DUP2 SUB PUSH0 DUP4 ADD MSTORE PUSH2 0x1B2F DUP2 PUSH2 0x1AF6 JUMP JUMPDEST SWAP1 POP SWAP2 SWAP1 POP JUMP JUMPDEST PUSH0 PUSH2 0x1B40 DUP3 PUSH2 0x142C JUMP JUMPDEST SWAP2 POP PUSH32 0xFFFFFFFFFFFFFFFFFFFFFFFFFFFFFFFFFFFFFFFFFFFFFFFFFFFFFFFFFFFFFFFF DUP3 SUB PUSH2 0x1B72 JUMPI PUSH2 0x1B71 PUSH2 0x1978 JUMP JUMPDEST JUMPDEST PUSH1 0x1 DUP3 ADD SWAP1 POP SWAP2 SWAP1 POP JUMP JUMPDEST PUSH0 PUSH2 0x1B87 DUP3 PUSH2 0x142C JUMP JUMPDEST SWAP2 POP PUSH0 DUP3 SUB PUSH2 0x1B99 JUMPI PUSH2 0x1B98 PUSH2 0x1978 JUMP JUMPDEST JUMPDEST PUSH1 0x1 DUP3 SUB SWAP1 POP SWAP2 SWAP1 POP JUMP JUMPDEST PUSH32 0x4F6E6C79207468652063686169726D616E2063616E20706572666F726D207468 PUSH0 DUP3 ADD MSTORE PUSH32 0x697320616374696F6E0000000000000000000000000000000000000000000000 PUSH1 0x20 DUP3 ADD MSTORE POP JUMP JUMPDEST PUSH0 PUSH2 0x1BFE PUSH1 0x29 DUP4 PUSH2 0x15F8 JUMP JUMPDEST SWAP2 POP PUSH2 0x1C09 DUP3 PUSH2 0x1BA4 JUMP JUMPDEST PUSH1 0x40 DUP3 ADD SWAP1 POP SWAP2 SWAP1 POP JUMP JUMPDEST PUSH0 PUSH1 0x20 DUP3 ADD SWAP1 POP DUP2 DUP2 SUB PUSH0 DUP4 ADD MSTORE PUSH2 0x1C2B DUP2 PUSH2 0x1BF2 JUMP JUMPDEST SWAP1 POP SWAP2 SWAP1 POP JUMP JUMPDEST PUSH32 0x54686520766F74696E672073657373696F6E20697320616C7265616479206F70 PUSH0 DUP3 ADD MSTORE PUSH32 0x656E000000000000000000000000000000000000000000000000000000000000 PUSH1 0x20 DUP3 ADD MSTORE POP JUMP JUMPDEST PUSH0 PUSH2 0x1C8C PUSH1 0x22 DUP4 PUSH2 0x15F8 JUMP JUMPDEST SWAP2 POP PUSH2 0x1C97 DUP3 PUSH2 0x1C32 JUMP JUMPDEST PUSH1 0x40 DUP3 ADD SWAP1 POP SWAP2 SWAP1 POP JUMP JUMPDEST PUSH0 PUSH1 0x20 DUP3 ADD SWAP1 POP DUP2 DUP2 SUB PUSH0 DUP4 ADD MSTORE PUSH2 0x1CB9 DUP2 PUSH2 0x1C80 JUMP JUMPDEST SWAP1 POP SWAP2 SWAP1 POP JUMP JUMPDEST PUSH0 PUSH2 0x1CCA DUP3 PUSH2 0x142C JUMP JUMPDEST SWAP2 POP PUSH2 0x1CD5 DUP4 PUSH2 0x142C JUMP JUMPDEST SWAP3 POP DUP3 DUP3 MUL PUSH2 0x1CE3 DUP2 PUSH2 0x142C JUMP JUMPDEST SWAP2 POP DUP3 DUP3 DIV DUP5 EQ DUP4 ISZERO OR PUSH2 0x1CFA JUMPI PUSH2 0x1CF9 PUSH2 0x1978 JUMP JUMPDEST JUMPDEST POP SWAP3 SWAP2 POP POP JUMP JUMPDEST PUSH32 0x5468697320766F74657220616C72656164792068617320746865207269676874 PUSH0 DUP3 ADD MSTORE PUSH32 0x20746F20766F7465000000000000000000000000000000000000000000000000 PUSH1 0x20 DUP3 ADD MSTORE POP JUMP JUMPDEST PUSH0 PUSH2 0x1D5B PUSH1 0x28 DUP4 PUSH2 0x15F8 JUMP JUMPDEST SWAP2 POP PUSH2 0x1D66 DUP3 PUSH2 0x1D01 JUMP JUMPDEST PUSH1 0x40 DUP3 ADD SWAP1 POP SWAP2 SWAP1 POP JUMP JUMPDEST PUSH0 PUSH1 0x20 DUP3 ADD SWAP1 POP DUP2 DUP2 SUB PUSH0 DUP4 ADD MSTORE PUSH2 0x1D88 DUP2 PUSH2 0x1D4F JUMP JUMPDEST SWAP1 POP SWAP2 SWAP1 POP JUMP JUMPDEST PUSH32 0x54686520766F74696E672073657373696F6E20686173206E6F74207965742074 PUSH0 DUP3 ADD MSTORE PUSH32 0x616B656E20706C61636500000000000000000000000000000000000000000000 PUSH1 0x20 DUP3 ADD MSTORE POP JUMP JUMPDEST PUSH0 PUSH2 0x1DE9 PUSH1 0x2A DUP4 PUSH2 0x15F8 JUMP JUMPDEST SWAP2 POP PUSH2 0x1DF4 DUP3 PUSH2 0x1D8F JUMP JUMPDEST PUSH1 0x40 DUP3 ADD SWAP1 POP SWAP2 SWAP1 POP JUMP JUMPDEST PUSH0 PUSH1 0x20 DUP3 ADD SWAP1 POP DUP2 DUP2 SUB PUSH0 DUP4 ADD MSTORE PUSH2 0x1E16 DUP2 PUSH2 0x1DDD JUMP JUMPDEST SWAP1 POP SWAP2 SWAP1 POP JUMP INVALID LOG2 PUSH5 0x6970667358 0x22 SLT KECCAK256 PREVRANDAO RETURNDATASIZE DUP3 EXTCODEHASH PUSH26 0x96EB0CC9087358036EC38D30A3C83E99456539B4D2F1F1460864 JUMPDEST PUSH5 0x736F6C6343 STOP ADDMOD BYTE STOP CALLER "
				},
				"gasEstimates": {
					"creation": {
						"codeDepositCost": "1552600",
						"executionCost": "infinite",
						"totalCost": "infinite"
					},
					"external": {
						"getCandidates()": "infinite",
						"getChairman()": "2581",
						"getVoters()": "infinite",
						"giveRightToVote(address)": "99943",
						"makeVotingProxy(address)": "infinite",
						"results()": "infinite",
						"setBallotToOpen(uint256)": "infinite",
						"vote(address)": "infinite"
					},
					"internal": {
						"isCandidate(address)": "infinite"
					}
				},
				"methodIdentifiers": {
					"getCandidates()": "06a49fce",
					"getChairman()": "d6451557",
					"getVoters()": "cdd72253",
					"giveRightToVote(address)": "9e7b8d61",
					"makeVotingProxy(address)": "5bd4e10d",
					"results()": "a48bdb7c",
					"setBallotToOpen(uint256)": "9794d8f3",
					"vote(address)": "6dd7d8ea"
				}
			},
			"storageLayout": {
				"storage": [
					{
						"astId": 3,
						"contract": "contracts/Voting System/voting.sol:Ballot",
						"label": "chairman",
						"offset": 0,
						"slot": "0",
						"type": "t_address"
					},
					{
						"astId": 5,
						"contract": "contracts/Voting System/voting.sol:Ballot",
						"label": "openBallot",
						"offset": 20,
						"slot": "0",
						"type": "t_bool"
					},
					{
						"astId": 7,
						"contract": "contracts/Voting System/voting.sol:Ballot",
						"label": "endTime",
						"offset": 0,
						"slot": "1",
						"type": "t_uint256"
					},
					{
						"astId": 24,
						"contract": "contracts/Voting System/voting.sol:Ballot",
						"label": "voters",
						"offset": 0,
						"slot": "2",
						"type": "t_mapping(t_address,t_struct(Voter)14_storage)"
					},
					{
						"astId": 28,
						"contract": "contracts/Voting System/voting.sol:Ballot",
						"label": "candidates",
						"offset": 0,
						"slot": "3",
						"type": "t_array(t_struct(Candidate)19_storage)dyn_storage"
					},
					{
						"astId": 31,
						"contract": "contracts/Voting System/voting.sol:Ballot",
						"label": "voterList",
						"offset": 0,
						"slot": "4",
						"type": "t_array(t_address)dyn_storage"
					}
				],
				"types": {
					"t_address": {
						"encoding": "inplace",
						"label": "address",
						"numberOfBytes": "20"
					},
					"t_array(t_address)dyn_storage": {
						"base": "t_address",
						"encoding": "dynamic_array",
						"label": "address[]",
						"numberOfBytes": "32"
					},
					"t_array(t_struct(Candidate)19_storage)dyn_storage": {
						"base": "t_struct(Candidate)19_storage",
						"encoding": "dynamic_array",
						"label": "struct Ballot.Candidate[]",
						"numberOfBytes": "32"
					},
					"t_bool": {
						"encoding": "inplace",
						"label": "bool",
						"numberOfBytes": "1"
					},
					"t_mapping(t_address,t_struct(Voter)14_storage)": {
						"encoding": "mapping",
						"key": "t_address",
						"label": "mapping(address => struct Ballot.Voter)",
						"numberOfBytes": "32",
						"value": "t_struct(Voter)14_storage"
					},
					"t_struct(Candidate)19_storage": {
						"encoding": "inplace",
						"label": "struct Ballot.Candidate",
						"members": [
							{
								"astId": 16,
								"contract": "contracts/Voting System/voting.sol:Ballot",
								"label": "address_",
								"offset": 0,
								"slot": "0",
								"type": "t_address"
							},
							{
								"astId": 18,
								"contract": "contracts/Voting System/voting.sol:Ballot",
								"label": "voteCounter",
								"offset": 0,
								"slot": "1",
								"type": "t_uint256"
							}
						],
						"numberOfBytes": "64"
					},
					"t_struct(Voter)14_storage": {
						"encoding": "inplace",
						"label": "struct Ballot.Voter",
						"members": [
							{
								"astId": 9,
								"contract": "contracts/Voting System/voting.sol:Ballot",
								"label": "weight",
								"offset": 0,
								"slot": "0",
								"type": "t_uint256"
							},
							{
								"astId": 11,
								"contract": "contracts/Voting System/voting.sol:Ballot",
								"label": "remainingVotes",
								"offset": 0,
								"slot": "1",
								"type": "t_uint256"
							},
							{
								"astId": 13,
								"contract": "contracts/Voting System/voting.sol:Ballot",
								"label": "delegate",
								"offset": 0,
								"slot": "2",
								"type": "t_address"
							}
						],
						"numberOfBytes": "96"
					},
					"t_uint256": {
						"encoding": "inplace",
						"label": "uint256",
						"numberOfBytes": "32"
					}
				}
			},
			"userdoc": {
				"kind": "user",
				"methods": {},
				"version": 1
			}
		}
	}
}